:041208008A319A2A63
:101210007E1489312000111C1829CE3097009601C8
:101220008C31D8248931FA01FA0A20001110982A49
:101230000B1D982A613095005E08AB000330AB05AA
:101240005E08AA00FC30AA0503302B020630031802
:10125000802AF0002B088F319D278931A900263E76
:101260008600013087000108F700F801F71BF8033A
:101270007808803A803C031D3F2977082A0203182A
:1012800043290130442900302000A6002908273EC8
:101290008600013087000108F700F801F71BF8030A
:1012A0007808803A803C031D572977082A020318E2
:1012B0005B2901305C2900302000A7002908283E66
:1012C0008600013087000108F700F801F71BF803DA
:1012D0007808803A803C031D6F2977082A0203189A
:1012E00073290130742900302000A8002908293E04
:1012F0008600013087000108F700F801F71BF803AA
:101300007808803A803C031D872977082A02031851
:101310008B2901308C2900302000A30029082A3EA7
:101320008600013087000108F700F801F71BF80379
:101330007808803A803C031D9F2977082A02031809
:10134000A3290130A42900302000A40029082B3E45
:101350008600013087000108F700F801F71BF80349
:101360007808803A803C031DB72977082A020318C1
:10137000BB290130BC2900302000A5002B08573EB6
:1013800086008701010BD3292B085A3E86002308CB
:101390000112031D01162B085A3E86002608011073
:1013A000031D0114E9292B08573E860003308701ED
:1013B0000106031D062A2B085A3E86002308011247
:1013C000031D01162B085A3E860026080113031D33
:1013D00001172B085A3E860027088110031D81142F
:1013E0002B085A3E860024088111031D81152B0805
:1013F0005A3E860025080111031D01152B085A3E8F
:10140000860028088112031D8116452A2B08573EA5
:101410008600023087010106031D452AA001A00AAB
:101420002608031D172A2308031D172AA0012008D8
:10143000A600A101A10A2708031D222A2408031DD2
:10144000222AA1012108A700A201A20A2808031D3F
:101450002D2A2508031D2D2AA2012208A8002B08E9
:101460005A3E8600870126080110031D01142B082F
:101470005A3E860027088110031D81142B085A3E0E
:10148000860028080111031D01152B08013E8D312E
:101490002B2589318F2A04306202031C622A5F08DF
:1014A0008E31D226893104302000E2026302031C0F
:1014B000602A61088F310827893104302000E30257
:1014C000E00A832AFF308F31082789312000063057
:1014D000DF0AF0005F08013E8F3179278931E10092
:1014E0006308E2000630F0005F08013E8F31792783
:1014F0008931203E8600013087000108E300063074
:101500005F02031C4B2A06305F06031D8F2A3F3003
:101510006002031C8E2AE001DF018F2AE00AFE3000
:1015200020005E06031D962AFC01FC0ADE0A0B1150
:101530007E10090091310929C6004508B800440809
:10154000B700A930B9008F30BA004608212B5108E6
:10155000BF005008BE00A730C0000030C100963167
:1015600057268A312100C0014008CD248A31031D4D
:10157000EC2ABF0106302000AC0021004008943165
:1015800007248A31A73E21003F07A000063E8600BF
:1015900087013F08A100A201BA238A3176238A314C
:1015A000310850072100A30020003208513D2100DE
:1015B000A40021082307A5002208243DA600250831
:1015C0008400260885000331000881000330BF0A2B
:1015D0003F020318152BBA2A20005108BF005008FB
:1015E000BE002100BA238A31762331082100A000F1
:1015F000200032082100A10020082000BE072100A1
:1016000021082000BF3D0330BE070318BF0A063083
:10161000AC0021004008943107248A31063EA73EE1
:10162000C000C101963157268A3121000330C00A1B
:101630004002031CB42AA7302000AC000030AD00EB
:101640008B2BC200C3014208860087010108B1004C
:10165000B201B11BB2033A08BC003908BB00430811
:101660003B0784003C0803183C0A85000008B300CF
:10167000B401B31BB40376238A313208C1003108A8
:10168000C000420A8600A1238A310330B0238A3188
:10169000B31BB40376238A313108C0073208C13D39
:1016A0004208023E8600A1238A310630B0238A31E7
:1016B000B31BB40376238A313108C0073208C13D19
:1016C0004108BB004308BC00BD013707BE003D0810
:1016D000383DBF003E0886003F0887003B08810078
:1016E0000330C30A430203180800232BB501B601D7
:1016F000311C7E2B3308B5073408B63DB335B40D25
:10170000B236B10C31083204031D782B3608B20012
:101710003508B1000800B0013008203E86000130D5
:1017200087003008AE00AF012C0784002F082D3D44
:101730008500000881001830B00A30020318080044
:101740008C2B87010108B100B201B11BB203430821
:10175000BB00BC013907BD003C083A3DBE00080093
:101760003D0784003E0803183E0A85000008B300C8
:10177000B401080040082000B1000330B201B300FA
:10178000B4010800DD238A3138080339D3249331AA
:1017900068238A31DD2338082100A000A230200010
:1017A000B7000030B800210020089531F6258A31B5
:1017B000A230D0000030D100162C41302000AF0004
:1017C000C630AE004E30AD006D30AC002100560882
:1017D0002000B300210055082000B2002100540869
:1017E0002000B100210053082000B00099242F08E8
:1017F0002100D60020002E082100D50020002D0851
:101800002100D40020002C082100D3003930D30758
:101810003030D43D0030D53DD63D56082000B900CB
:10182000210055082000B800B91308002B2C5108DE
:10183000BF005008BE002030C0000130C10096310A
:1018400057268A315D2CD201392CD201D20A392C8B
:101850000230D200392C5308003A0319172C013AF0
:101860000319232C033A0319252C013A0319282CB8
:10187000392C5D248A315208CD248A31031D4D2C28
:101880005108B0005008AF000630AC005208943147
:1018900007248A31263EB100842C5108BF0050082D
:1018A000BE000630AC005208943107248A31263E2F
:1018B000C0000130C1009631572E5308AC00AD0175
:1018C0002D08D3248A3103196D2C2D08533E860030
:1018D000C6248A31AD0A602CAD0A2D08533E86001D
:1018E0008701C6248A312D08533E8600010803195A
:1018F0007D2C03302D02031C6C2C2D08533E8600DA
:1019000087012C08810008003108BE248A310008B4
:101910008100310A86002F088400300885000131DB
:10192000000881003108023EBE2402310008810017
:101930000800B401B501B601B7012C1CA72C300872
:10194000B4073108B53D3208B63D3308B73DB03570
:10195000B10DB20DB30DAF36AE0CAD0CAC0C2F0803
:101960002E042D042C04031D9D2C3708AF003608CF
:10197000AE003508AD003408AC0008008600013028
:1019800087002F0884003008850008002D08543E89
:1019900084008501000881000800573E860002305F
:1019A000870101060800533E8600870101080800F0
:1019B000E1248C31003A0319DF2C16258C311E25C9
:1019C000080000308B1B0130F60001268C311225F7
:1019D0008C3121000E140630F000F101FE248C3110
:1019E000003020000E180130F50013258C31761CD4
:1019F000FB2C8B17FC2C8B137508080070087104E6
:101A000003190800CA30F2000130F300F20200307E
:101A1000F33B720873040130031D062DF002003001
:101A2000F13BFE2CF82D0E17202508008B1320000B
:101A30000E1721000E1380311C28080064000800D6
:101A4000F401F40A74082B258C310430F40A740272
:101A500003180800222DF300F0007308973189273E
:101A60008C3133250800F10097314A278C317108F9
:101A700024009100F201722D031020008C1E03142B
:101A8000031C452D20008C166D2D20008C126D2D11
:101A9000031020008E1D0314031C512D20008E15F1
:101AA0006D2D20008E116D2D031020000E1D0314CE
:101AB000031C5D2D20000E156D2D20000E116D2DC7
:101AC000031020008C1E0314031C692D20008C16AB
:101AD0006B2D20008C120C308E060230F20A72023E
:101AE000031808007008013A03193C2D033A031942
:101AF000482D013A0319542DFC3A0319602D6D2D20
:101B00006D2D89258C31003A0319882DEF258C31F4
:101B1000F62D00308B1B01302000B20001268C31E5
:101B2000E2258C3121000E14CD269331F3238C3124
:101B300000300E180130B100A6258C31321CA22DC8
:101B40008B17A32D8B132000310808000E17E32DEF
:101B500000308B1B01302000B1002100170820004D
:101B6000B4008B13E2258C31FC01FC0AFA01FA0A5D
:101B7000210017081438D539970000300B190130AF
:101B80002000B2000B11003011180130B300111009
:101B9000630020003408210097002000311CD22D62
:101BA0008B17D32D8B132000321CD82D0B15D92D5C
:101BB0000B112000331CDF2D20001114E12D20001B
:101BC0001110A62DF82DB001B00A30089531172557
:101BD0008C310430B00A300203180800E52D8B1355
:101BE0000E1721000E1380311C2808006400080025
:101BF00021000E13AF3020008D0533308E058C127E
:101C000008008B1321000E1020000E100800BD00EC
:101C100000308B1B0130BC0071268C31BE008B1351
:101C200083268C31CD269331F3238C313E08AD00D1
:101C3000293039268C312000BB003D08C0268C316C
:101C40002B3039268C312000BB003D0AC0268C3158
:101C50002D3039268C312000BB003D08023E860025
:101C600087013B0881003C1C372E8B1708008B1323
:101C70000800AE002400951620002D0856268C3151
:101C800091112E088038240091002000911D452ECE
:101C900091112D08593EC7268C312000911D4D2EE3
:101CA0002D0895319225240011080800AC00622E01
:101CB0008C1208008E1108000E1108008C12F330EF
:101CC0008E0508002C08013A0319582E033A03190F
:101CD0005A2E013A03195C2EFC3A03195E2E702E1F
:101CE0000800AC01AC0A2C08563E86000230870181
:101CF0000106031D7D2E2C0808000430AC0A2C02BE
:101D000003180034732E71268C31BA003A08031977
:101D1000080095317C258C3120003A088F2EB800C0
:101D2000C9308600003087002E30840000308500E6
:101D30000A30AD0016001A00AD0B9A2E3808593E35
:101D4000860087010108B700240095162000380896
:101D500056268C31911DAA2EB901911139082E3EBB
:101D6000C7268C312000911DB22E0A30B90A3902E3
:101D7000031CAD2E380895319225240095120800D9
:101D8000860087013B0881003E08AD000800860000
:101D90008701010824009100080006302000AC00F3
:101DA000AD010800F100D7268E317108082FF00030
:101DB000F02E21008D1718308E04080021008E1699
:101DC000080021000E16080021008D1708002100D0
:101DD0008E16080021000E16080021008D1708003D
:101DE0007008003A0319DE2E013A0319E12E033A76
:101DF0000319E42E013A0319E72E073A0319EA2ED4
:101E0000013A0319ED2EFA3A0319D92E072F0800CB
:101E1000F0003B2F21008D1320008D13CF302100C7
:101E20008E0520008E05080059270E1220000E1284
:101E3000080059278E1220008E120800E73021007A
:101E40008E0520008E120E16080053270E12200059
:101E50000E16080053278E1220008E160800E73059
:101E600021008E0520008E160E1208001830210069
:101E70008E040E1608007008003A0319142F013A58
:101E80000319192F033A03191E2F013A0319252F9D
:101E9000073A03192A2F013A03192F2FFA3A031987
:101EA0000A2F362F080021008D1320008D132100EA
:101EB000080021008D1320008D17210008009131AA
:101EC000C4299131C9299131CC299131CF2991313E
:101ED000D2299131DA299231292A9131E22991319D
:101EE000ED299131EF299131F7299231032A92316D
:101EF000132AF2000830F300F4017208F1000730F1
:101F0000F136890B802F74357104F400F2357008B6
:101F10007402031C8D2F7008F402F30B7D2F7408DC
:101F200008006400013080010131FE020030FF3BF7
:101F30007F087E0403190034922FF200F10170082B
:101F40007218F107F035F2367208031D9F2F7108E1
:101F5000080000346A34963485343D343D345734B7
:041F60005734573467
:10221200F0308400223085000130FE01FF008F3152
:10222200912791315330F901FA01FB01FC0184003D
:10223200003085001130FE00FF018F31912791316E
:1022420021002030D701D801D901DA01DB01DC01FC
:102252008400013085001830FE00FF018F31912784
:1022620091316030C9004730CA000130CB01CC0146
:10227200CD01CE01CF01D001D101D201D300003076
:10228200D401D501D6017E10200047292100C801C2
:10229200CD2791318A239131003068239131063064
:1022A200A4279131842191317329FB012100183037
:1022B200C301C4008421913173298A238D31812580
:1022C20091310030FA01682391310330A427913112
:1022D200842191312100C8017329FC01AD2591317E
:1022E2002100C8007B08031D56297A08031D5E29B8
:1022F2007C08031D6E2921004808031973298D31BA
:10230200A8259131732905082200B9000408B800F4
:1023120021004308003EC5008030443DC600450808
:10232200840046088500FF302000DD002000000800
:102332002200C600840A0319850AF03046052100EE
:10234200C500103A031D252B200000084D239131B2
:102352002200CC00622791314D2391312200CD0021
:10236200622791312200C8000408013E2100C50005
:102372000030053DC60045082200CA00210046087B
:102382002200CB001C2A4C08C7004D08C705292A89
:102392004C084D041A2A4C084D071A2A4D084C02C3
:1023A2001A2A4D082000AC0022004C080724913163
:1023B200112A4D082000AC0022004C08CB25913197
:1023C200112ABF014C080319EB294D080319EB2907
:1023D200BF01BF0A3F081A2A4C08F5294C08031D01
:1023E200F4290130F52900304D061A2A4C08803AAA
:1023F2002100C50022004D08803A2100C502031CBD
:102402000E2A102A4D08803A2100C50022004C08ED
:10241200803A2100C502031C102A0130112A003023
:1024220022001A2A4C084D06031D192A01301A2AC5
:102432000030C700292A4608F03E031C0800840029
:102442000D300402031808008F3104355F3E82000C
:102452004708A92791315523913122007A2A200079
:1024620000082200BC00622791312200BD003C0816
:1024720085003D087D2A7727913162279131BA0084
:102482002200480855239131840A0319850A9729A5
:10249200200000082200BA00622791312200C90000
:1024A200840A0319850A3A08003A0319882A013A6C
:1024B2000319782A033A0319622A013A03197F2A77
:1024C20097299A279131C00041302000B70001308E
:1024D200B800220049084D239131F6259131403050
:1024E2002100C1000130C200B12391312E2AAE2752
:1024F20091314B0885004A0884009729AE278B3119
:10250200DD2391313808BA00220049082C2A390803
:1025120085003808840049084D2B2000000822005D
:10252200BB00840A0319850AC02A9A279131200028
:10253200DD02F130C7002230C8005D08C70703186A
:10254200C80A142491310330E42391312E2A05085C
:10255200CB000408CA002000F030DD0A2100C100CF
:102562002230C20020005D082100C1070318C20A00
:10257200B12391315D0868279131DD072E2A3B088E
:10258200013A0319A82A033A0319962A4C2B7727F2
:102592009131840A0319850A63239131BA0022001A
:1025A200480855239131972920006F2791314D23F7
:1025B2009131E42391319729200000082200BE00C6
:1025C200840A0319850A632391312200C500450854
:1025D20003199729BE0A632391312100C500220005
:1025E2003E08F03E2100C6002230C701C73D460822
:1025F200860047088700450881002200C503E82AB3
:1026020077279131840A0319850A82279131A927F4
:10261200913155239131972920006F2791314D2314
:1026220091312100C500F130860022308700450833
:102632008100972982279131031997290330840752
:102642000318850A9729080022004608003A031950
:102652004C2B053A0319492A033A03198E2A0E3ADA
:1026620003193C2A013A0319302A033A0319D52ADD
:10267200013A0319C82A073A03194C2B013A0319E4
:10268200DD2A3D3A0319012B013A03190D2B713A48
:1026920003191B2B242B97292000AC002C080319AB
:1026A20000342C08682708002000BD00F03EBB0063
:1026B2002230BC01BC3D3B0886003C0887003A083A
:1026C200810008002000DD0A5D086827080020005C
:1026D200AC00AD012D08533E8600870101082C068F
:1026E2000319842B0330AD0A2D060319842B6B2B9F
:1026F2002D08533E860087012D08523E8400850135
:1027020000088100AD032D08031D792B2C08D3008E
:10271200080000308B1B01302000BD008B130E1708
:10272200AC01AC0AAD01F3239131BE01BE0AFF3008
:10273200AC000030322591311D2591312000BC00C2
:10274200B6003E089A24913120000430BE0A3E02AF
:10275200031C982B3D1CAF2B8B1708008B13080012
:1027620041087C2791317D3E0318B92B8B31C22B56
:1027720041087C2791317A3E41080318CA2B013E59
:102782002000D00000302100423D2000D1008C31D9
:10279200162C7C279131683E41080318DA2B013E42
:1027A2002000D00000302100423D2000D1008A31BB
:1027B200A72A013E2000AC0000302100423D20004B
:1027C200AD008B318B2BAE005D08F03EAC002230A9
:1027D200AD01AD3D2C0886002D0887002E08810032
:1027E200DD0308002C082D0403190800CA30AE00CE
:1027F2000130AF00AE020030AF3B2E082F04013093
:10280200031DFB2BAC020030AD3BF32B2000AE00CE
:10281200AD012C082E18AD07AC35AE362E08031DBF
:102822000A2C2D08080049308E31072691312000EC
:102832004808C5004708C40049308A319C2AB500BF
:10284200942791313508172591311D2591312000AA
:10285200B4003008153EB100003003180130B20058
:10286200803A803C031D372C31083402031C0800D7
:10287200200034083007B100B201B20D320DB20CA3
:10288200B10C3108B3008E279131810A35088927AE
:1028920091310319962C3508172591311D25913157
:1028A20020003302031C792C8B2C3508563E8600FF
:1028B2000330870181002100DA01DA0A200035089D
:1028C200FF3E68239131862C3508563E86008701EB
:1028D2008101810A2100D901D90A862C3508563E88
:1028E20086000230870181002100DC01DC0A862C8F
:1028F200350889279131013A0319562C413A0319B7
:10290200652CC03A03196F2C862C200035086823E9
:102912009131962C3508593E860087013508593E7B
:102922008400850100358100472C8E2791313508BE
:10293200172DBB00563E860087010108003A031995
:10294200F72C013A0319E32C033A0319C92C013A73
:102952000319AD2CF72C08003B08593E860087016D
:1029620001143B08172591311D25913137279131EB
:10297200B90080303902031DC02C3A083702031C0B
:10298200080020003B08563E8600870181010800AE
:102992003B08593E8600870181173B08593E860055
:1029A20001173B08172591311D25913137279131A8
:1029B200803C031DDE2C37083A02031CC22C200087
:1029C2003B087C2D3B08593E8600870101173B08D6
:1029D200172591311D25913137279131803C031DF7
:1029E200F42C37083A0203180800C22C3B0894273B
:1029F20091313B08172591311D25913137279131AE
:102A0200B90080303902031D082D3A083702031835
:102A1200080020003B08593E8600870181013B08DF
:102A2200172591313608B0003B08202CAF00AC00CE
:102A32002F0889279131322D21008E1723008E17FE
:102A4200603021009E0025309D002000AC01AC0AC0
:102A5200AD01F323913121009D149D182E2D1C08E8
:102A62000800AD004A2791312D0824009100200072
:102A7200AE016D2D03108C1E0314031C432D200088
:102A82008C16682D20008C12682D03108E1D0314E5
:102A9200031C4E2D20008E15682D20008E11682DEE
:102AA20003100E1D0314031C592D20000E15682D52
:102AB20020000E11682D03108C1E0314031C642DBC
:102AC20020008C16662D20008C120C308E060230EF
:102AD200AE0A2E02031808002C08013A03193B2DF6
:102AE200033A0319462D013A0319512DFC3A0319F1
:102AF2005C2D682D682DB000593E86008701811536
:102B02003008593E860001133008172591313008EC
:102B1200922521000D1624009417141330309500CD
:102B22000800AC009E2D8C1608008E1508000E15AC
:102B320008008C160C308E0408002C08013A031988
:102B4200942D033A0319962D013A0319982DFC3A54
:102B520003199A2DAC2D08002000AC01AC0AAD017E
:102B62002D08203E86000130870001080319C42D7C
:102B72002D08203E86002D08203E8400013085006D
:102B820000378100AC011830AD0A2D02031CB12DB3
:102B92002C0808002000B000AE01AC1FD42DAC09F7
:102BA200AC0AAE01AE0AB01FDA2D0130B009B00A8C
:102BB200AE06AF012C080319EF2DAD01AD0AAC1B17
:102BC200E42DAC35DF2DAF352C083002031CEC2D83
:102BD2002C08B0022F14AC36AD0BE42D2E080319CD
:102BE200F42DAF09AF0A2F0808002000BD005530B0
:102BF200AC003D08FA269131D63EB327BC00B100A5
:102C0200FA30B201B300FF30B4008B317623913138
:102C12003108FF3EB9000030323DBA003A0DBA0C1D
:102C2200B90C3908BE002B303D0203181E2E7F302E
:102C3200BF003E08C000C101452E55303D020318B9
:102C4200262E3E08BF007F301B2E80303D02031827
:102C52002F2E7F30BF01C0003E08372EAB303D0221
:102C62000318392EBF013E08C0007F30C100452E37
:102C7200D5303D020318412E3E08BF00C001362E5A
:102C82007F30BF00C0012D2E37088600380887002C
:102C92003F0881004008B9003708013E57279131AB
:102CA2004108B9003708023E57270800CF019F2785
:102CB2009131FA2691314227913101080330AC005B
:102CC200031D6E2E4F08023EFA26913142279131A2
:102CD20001080319BF2E0330AC004F08023EFA264A
:102CE2009131422791319F279131FA269131C400C7
:102CF200C5013E07840045083F3D850000080107E5
:102D0200B700B8010318B80A801BB803811BB803C7
:102D120020004F08C600C7013E07860047083F3D16
:102D220087000108B100B201B11BB2039F279131A4
:102D3200FA26C800C9013E07860049083F3D8700C0
:102D42000108B300B401B31BB4038B317623913174
:102D52003208BA003108B900122791313708CA0087
:102D62004F08CB00CC014007CD004C08413DCE00BE
:102D72004D0886004E0887004A08D12E4F08422788
:102D820091310137C4004F08C500C6014007C70092
:102D92004608413DC80047088600480887004408A5
:102DA20081004F08422791314F08C400C5014007F6
:102DB20084004508413D850000080102C6004F0815
:102DC200C700C8014007C9004808413DCA00490878
:102DD200033ECB0000304A3DCC004B0886004C0835
:102DE2008700460881000330CF0A4F02031808000B
:102DF200582EAE000830AF00B0012E08AD000730EB
:102E0200AD36890B012F30352D04B000AE352C08BC
:102E12003002031C0E2F2C08B002AF0BFE2E30081E
:102E22000800BC01BD01370838040319322FBB0169
:102E3200BB0AB81B1F2FB735B80D192FBC35BD0DF6
:102E420038083A02031D272F37083902031C2E2F98
:102E52003708B9023808BA3B3C14B836B70CBB0B7A
:102E62001F2F3D08B8003C08B70008002000BA0038
:102E72003608153EB700003003180130B800803A1A
:102E82000800C200C3013E07860043083F3D870099
:102E9200080021008C120D1373308E05303024008F
:102EA200950094171413200091110800BA00003005
:102EB200383DBB003A0886003B088700390881008C
:102EC2000800840A0319850A200000080800F03E61
:102ED200860022308701873D010808000008220091
:102EE200C900840A0319850A49080800200000085D
:102EF2002200C80008008600420887000108803AC4
:102F02000800F030860022308700413101080800B5
:102F1200593E86008701010808003508593E86009F
:102F2200870181010800593E8600FF308701810038
:102F320008000508CB000408CA0003340330AC00C3
:102F42004F08013E08002100C3001830C4000800E9
:102F52002000BA002200480808000508CB00040837
:102F6200CA000800B000803A7F3E30080318C72F1D
:102F7200AC00AD01AC1BAD03AC09AD09AC0A031941
:102F8200AD0A2C08AE002D08AF00CB2FAE00AF016A
:102F9200AE1BAF032E080800E527913123008C01F8
:102FA2008D018E01DD279131ED27D901DA01D7019B
:102FB200DC01DB01D801080021008D160E13200070
:102FC2000E1724008C1108003C3099041908FC39B2
:102FD2000238990099130800C030210095055A3033
:102FE20020009500C130990001309800CE30970042
:0E2FF200210011140B08E038EF398B000800A5
:00000001FF
