:041208008A31962A67
:101210007E1489312000111C1829CE3097009601C8
:101220008C31F72489312000CC01CC0A1110942A8A
:101230000B1D942A613095005A08AB000330AB05B2
:101240005A08AA00FC30AA0503302B020630031806
:101250007C2AF0002B088F3151278931A900CE3E1E
:101260008600870101082A0203183829013039292C
:101270000030A7002908CF3E8600870101082A0216
:1012800003184429013045290030A8002908D03E20
:101290008600870101082A020318502901305129CC
:1012A0000030A5002908D13E8600870101082A02E6
:1012B00003185C2901305D290030A3002908D23EC3
:1012C0008600870101082A0203186829013069296C
:1012D0000030A6002908D33E8600870101082A02B3
:1012E00003187429013075290030A4002B08533EDF
:1012F00086008701010BB1292B08563E8600230882
:101300000112031D01162B08563E86002708011006
:10131000031D01142B08563E860028088110031D6A
:1013200081142B08563E860026088111031D811565
:101330002B08563E860024080111031D01152B08B9
:10134000563E860025088112031D81162B08013E9A
:10135000F2002B08563E860001088C31E1248931C9
:101360008B2A2B08533E8600033087010106031D9C
:10137000EE292B08563E860023080112031D011694
:101380002B08563E860027080113031D01172B0862
:10139000563E860028088110031D81142B08563EF6
:1013A000860026088111031D81152B08563E8600F4
:1013B00024080111031D01152B08563E860025083F
:1013C0008112031D81162B08013EF2002B08563EA8
:1013D000860001088C31DB2489318B2A2B08533E8F
:1013E0008600023087010106031D8B2AA001A00A96
:1013F0002708031DFF292308031DFF29A00120083A
:10140000A700A101A10A2808031D0A2A2608031D16
:101410000A2AA1012108A800A201A20A2508031D89
:10142000152A2408031D152AA2012B08563E860002
:10143000870127080110031D01142B08563E860062
:1014400028088110031D81142B08563E86002608AB
:101450000111031D01152B08013EF2002B08563E19
:10146000860001088C31D52489318B2A04305E0234
:10147000031C532A5B088D31B625893104302000C6
:10148000DE025F02031C4C2A5D088D31B6258931CE
:1014900004302000DF02502A5B088D31FF2589319E
:1014A0002000DC0A7F2AFF308D31B62589312000EB
:1014B000DB0A5B08F200F301F20A0319F30A0630B3
:1014C000F000F1018F310C2789317008DD005F08D1
:1014D000DE005B08F200F301F20A0319F30A06309A
:1014E000F000F1018F310C2789317008C83E860069
:1014F00087010108DF0006305B02031C362A063034
:101500005B06031D8B2A3F305C02031C8A2ADC0128
:10151000DB018B2ADC0AFE3020005A06031D922ACA
:10152000CE01CE0ADA0A0B117E100900913147294B
:10153000FA228A31B7228A31003A031DAD2ABE3021
:1015400094313F248A31B7228A31B80019303802E9
:101550000318AD2A2E238A31A32AFC228A31003AAD
:1015600003190800CB3094313F248A31592C0030C4
:101570008B1B01302000B2005D248A312000B300B3
:10158000B3033308031DC02A21009D149D18C62AE9
:101590001C082000B500B40121001B082000B4077E
:1015A0000318B50A321CD62A8B17D72A8B130130A1
:1015B00020003502F33003193402031CFF34F330EA
:1015C000B4020130B53B3502173003193402031859
:1015D0000034EB30AC00AD013508AF003408AE008C
:1015E0009531B9252D08B5002C08B4003509B40093
:1015F000B50108006400080000308B1B0130B0000A
:101600008F3101278A3126238A31B101B201AA2400
:101610008A3103193102031C072B21000E1420000C
:10162000B101B201AA248A3103193102031C122B21
:1016300000300E180130AF002C238A31301C222BD1
:101640008B17232B8B1320002F08080021000D136C
:1016500020000D138E31EE2E0E17472C00308B1B01
:1016600001302000AE00210017082000B1008B13CC
:10167000FF30AC0000309331B3238A31B0248A317B
:10168000CD238A3173248A310B1901302000AF0039
:101690000B11003011180130B00011106300200050
:1016A00031082100970020002E1C582B8B17592B36
:1016B0008B1320002F1C5E2B0B155F2B0B112000B2
:1016C000301C652B200011140800200011100800A8
:1016D000B2000630AC0031089631D4268A31013E82
:1016E000B60000308B1B0130B3008B13B501B40181
:1016F000B21F8A2B3108CD238A31200031081A24E9
:101700008A3120003508031D872B0130882B0030DB
:10171000B500912B3608CD238A31200036081A24D3
:101720008A31CA248A3103248A31FF30CD238A3199
:10173000D0248A3103248A310830B235B40A340205
:10174000031C782B35080319B52B3108CD238A31BA
:10175000200031081A248A3120003508031DB22BDD
:101760000130B32B0030B500BC2B3608CD238A31B5
:10177000200036081A248A31CA248A3103248A3187
:10178000FF30CD238A31D0248A3103248A31331C9F
:10179000CB2B8B1708008B1308002000AC00210016
:1017A0000C16EA2B21008D1320008D13A42C210090
:1017B0008C2C21009C2CE7302100BB2C2100842C98
:1017C0002100942CE7302100C02C183021008E0419
:1017D0000E16080020002C08003A0319D72B013AF6
:1017E0000319D92B033A0319DB2B013A0319DE2B1A
:1017F000073A0319E02B013A0319E22BFA3A0319CD
:10180000D22BE52B08002C082D0403190800FA221E
:101810008A31CA302000AE000130AF00AE02003085
:10182000AF3B2E082F040130031D0E2CAC020030FC
:10183000AD3B032CAC002F2CC52C21008E160800CC
:1018400021000E16080021008D17080021008E16B9
:10185000080021000E16080021008D1708002C0832
:10186000003A03191D2C013A0319202C033A0319DD
:10187000232C013A0319262C073A0319292C013A83
:1018800003192C2CFA3A03191C2C462C0800AE0123
:10189000AE0A2E08AC002E089731E0278A3193312A
:1018A000B3238A3120000430AE0A2E020318080048
:1018B000492CB52480311C2808008B13220097176F
:1018C0001708FC390238970021009E171E088F392F
:1018D00060389E00FC309E057C309D041D14220063
:1018E000171BFF346F2C2200971321001D100D16BB
:1018F0000D172000CE01CE0ACC01CC0A210017081A
:101900001438D539970000348D1320008D13210031
:101910000E1220000E1608008D1320008D172100D6
:101920000E1220000E1208008D1320008D132100CE
:101930008E1220008E1608008D1320008D172100B6
:101940008E1220008E120800CF3021008E0520005C
:101950008E050800B10A0319B20A09303202F634C2
:1019600020000E1321000E13FF348B1320000E17DE
:1019700021000E1308008E0520008E120E1608009E
:101980008E0520008E160E12080021008D171830CB
:101990008E040800EE302000AC000230AD000800DC
:1019A000FA302000AC00AD010800F3007208F0002E
:1019B0007308AA260800F3007208F0007308AA262C
:1019C0000800F3007208F0007308AA260800F2016C
:1019D000F20A7208F00072089731E0278C31AA26CB
:1019E0008C310430F20A720203180800E92C4526F3
:1019F0008C3119258C31003A031D0B2DBE30152575
:101A00008C3119258C31FC0019307C0203180B2D08
:101A100077268C31012D47268C31003A03190800B6
:101A2000CB3015258C31D3260800FB00F501562557
:101A3000080000308B1B0130F6008C315D248C31A6
:101A4000F700F7037708031D212D21009D149D1831
:101A5000272D1C08F900F8011B08F8070318F90ADC
:101A6000761C342D8B17352D8B1301307902F33012
:101A700003197802031CFF34F330F8020130F93BFC
:101A8000790217300319780203180034EB30F000A4
:101A9000F1017908F3007808F200D9267108F900FD
:101AA0007008F8007909F800F9010800F60006301E
:101AB000F00075082D268C31013EFA0000308B1B9A
:101AC0000130F7008B13F901F801F61F752D750829
:101AD000B6258C317508FF258C317908031D722DD0
:101AE0000130732D0030F9007B2D7A08B6258C313A
:101AF0007A08FF258C3107278C31E9258C31FF309E
:101B0000B6258C31FA30F000F101E9258C3108302E
:101B1000F635F80A7802031C652D790803199E2D05
:101B20007508B6258C317508FF258C317908031DA1
:101B30009B2D01309C2D0030F900A42D7A08B6258C
:101B40008C317A08FF258C3107278C31E9258C31BF
:101B5000FF30B6258C31FA30F000F101E9258C31E7
:101B6000771CB42D8B1708008B130800F0002100A0
:101B70000C16D12D8D1320008D138C31A42C8C319B
:101B80008C2C8C319C2CE7308C31BB2C8C31842CF0
:101B90008C31942CE7308C31C02C18308E040E160A
:101BA00008007008003A0319BF2D013A0319C12D2E
:101BB000033A0319C32D013A0319C62D073A031935
:101BC000C82D013A0319CA2DFA3A0319BA2DCD2DA1
:101BD0000800700871040319080045268C31CA30CA
:101BE000F2000130F300F2020030F33B720873049C
:101BF0000130031DF32DF0020030F13BE92DF00020
:101C0000152E8C31C52C21008E16080021000E16D1
:101C1000080021008D17080021008E160800210001
:101C20000E16080021008D1708007008003A0319ED
:101C3000032E013A0319062E033A0319092E013A1D
:101C400003190C2E073A03190F2E013A0319122E0D
:101C5000FA3A0319012E2C2E0800F2000830F30086
:101C6000F4017208F1000730F136890B342E743517
:101C70007104F400F23570087402031C412E7008E0
:101C8000F402F30B312E74080800640008000030E1
:101C90008B1B0130F40001278C316F268C31F5014C
:101CA000F601FB268C3103197502031C512E21000D
:101CB0000E14F501F601FB268C3103197502031C85
:101CC0005B2E003020000E180130F30074268C319A
:101CD000741C6C2E8B176D2E8B137308080021005B
:101CE0000D1320000D13EE2E0E17E7240800003010
:101CF0008B1B0130F20021001708F5008B13FF3019
:101D0000F0000030AA268C31B0248C31B6258C31FD
:101D100073248C310B190130F3000B1100302000BB
:101D200011180130F40011106300750821009700AC
:101D3000721C9C2E8B179D2E8B13731CA12E0B15C2
:101D4000A22E0B11741CA72E2000111408002000D5
:101D500011100800F10097314E278C3171082400D2
:101D6000910020009119C22EB12E8C168C12D02E0B
:101D70008E158E11D02EBF2E9731FB278C310E156C
:101D80000E11D02E7008013A0319B52E033A03192B
:101D9000B82E013A0319BB2EFC3A0319BC2ED02EE3
:101DA0002400951208008C31B5248C3180311C2818
:101DB0000800F401F501701CE12E7208F4077308A5
:101DC000F53DF235F30DF136F00C70087104031D8A
:101DD000DB2E7508F1007408F00008000D122100D8
:101DE0008E1320008E138C128E110E1121000E13F3
:101DF00020000E130800F50A0319F60A09307602CE
:101E0000F6348B1321000E1020000E100800EE3067
:101E1000F0000230F1000800F501F31F162FF2095F
:101E2000F309F20A0319F30AF501F50AF11F1D2F50
:101E3000F009F109F00A0319F10A70087104031995
:101E4000382FF401F40AF11B282FF035F10D222F61
:101E500071087302031D2E2F70087202031C342FA9
:101E60007008F2027108F33BF136F00CF40B282FE6
:101E700075080319402FF209F309F20A0319F30A4E
:101E80007308F1007208F00008006400013080015E
:101E90000131FE020030FF3B7F087E04031900344D
:101EA000462FF200F10170087218F107F035F23692
:101EB0007208031D532F7108080000346A349634E9
:0C1EC00085343D343D34573457345734DA
:10206200492090313808033938219231C022903109
:1020720049203808C5004730B1000030B200450899
:1020820096317F2690314730C2000030C30070285D
:1020920041302000AF00C630AE004E30AD006D3092
:1020A200AC006308B3006208B2006108B1006008C6
:1020B200B00005212F08E3002E08E2002D08E10000
:1020C2002C08E0003930E0073030E13D0030E23DDD
:1020D200E33D6308B9006208B800B9130800FF3095
:1020E200C40085284308BA004208B900C830BB00C2
:1020F2009431F4249031C928C4019328C401C40A3C
:1021020093280230C40093284F08003A0319732819
:10211200013A03197D28033A03197F28013A03196A
:1021220082289328C92090314408533E8600023009
:10213200870101060319AE284408533E8600043085
:1021420001060319AE284408422190310319AE2832
:1021520044083D219031031DBB284308B0004208CA
:10216200AF000630AC004408963163269031CE3E73
:10217200B100F0284308BA004208B9000630AC00AA
:102182004408963163269031CE3EBB009431F42C44
:102192004F08AC00AD012D08382190310319D92820
:1021A2002D084F3E86002A219031AD0ACC28AD0A77
:1021B2002D084F3E860087012A2190312D084F3E7F
:1021C200860001080319E92803302D02031CD828D0
:1021D2002D084F3E860087012C0881000800310837
:1021E2003121903100088100310A86002F088400D5
:1021F200300885000131000881003108023E31219A
:102202000231000881000800B401B501B601B7012E
:102212002C1C13293008B4073108B53D3208B63DED
:102222003308B73DB035B10DB20DB30DAF36AE0CBC
:10223200AD0CAC0C2F082E042D042C04031D09290F
:102242003708AF003608AE003508AD003408AC00E0
:1022520008002D08503E8400850100088100080016
:10226200860087012F0884003008850008004F3E51
:102272008600870101080800533E860005300106EA
:102282000800533E8600063001060800F030840044
:10229200223085000030FE000130FF008F314527DB
:1022A20091314B308400003085001530FE00003043
:1022B200FF008F3145279131C23084000030850004
:1022C2001E30FE000030FF008F3145279131013072
:1022D200E0000030E100E200E3007E1020007129FE
:1022E2001B279131E22291310030C022913121002D
:1022F2001830BC01BD00AE2191319C290630CD01C0
:10230200F6279131AE2191319C29E2228A3198221D
:10231200913120000030CC01C02291310330F627E8
:102322009131AE2191312100C1019C29CE011124AC
:1023320091312100C10020004D08031D7F294C0866
:10234200031D86294E08031D972921004108031900
:102352009C298B312E2391319C292200B60105083C
:10236200AC000408AB0021003C08003EBE008030F7
:102372003D3DBF003E0884003F0885007F302000BD
:10238200D900200000082200A000840A0319850A4F
:10239200A02A200000082200A300C7279131A40030
:1023A2002308850024081E2ADA2791310319850A99
:1023B2002D08F03E2100BE002230BF01BF3D3E0885
:1023C20086003F088700200000088100840A031964
:1023D200850AC229200000082200A100C7279131E6
:1023E200B500840A0319850A2F2A0508B4000408D7
:1023F200B3000330AE003508031D012AA501042AEB
:1024020082279131A5002F30A6012000B1000130B2
:10241200B200220025087F2691312E302100BA0019
:102422000130BB00DA23913122001B2A0508B400D7
:102432000408B3003408850033088400C2292C083C
:1024420085002B0884003508031D292AA7012C2AA0
:1024520082279131A700A80127089E2A2108003A65
:102462000319202A013A0319172A033A0319F629F4
:10247200013A0319172AC229200000082200A200EB
:10248200840A0319850A5C2A0508B4000408B3000B
:102492002000D90A5908703E2100BE002330BF0136
:1024A200BF3D3E08BA003F08BB00DA239131BF2787
:1024B2009131D907152A2208003A0319172A013A3D
:1024C2000319452AC229DA2791310319850A3630C0
:1024D2002C2491312100BE0022002D08F03E210063
:1024E200BF002230C001C03D3F088600400887007F
:1024F2003E088100220036080319C22936089E2AA6
:10250200200000082200B500840A0319850A350854
:10251200031D8D2AA901902A82279131A900363004
:10252200AA012000B80022002908442491317B2A04
:102532002C0885002B088400C130B200BA2A20087A
:10254200003A0319C229053A0319EB29033A031980
:102552003D2A0E3A0319D529013A0319CA29033A29
:102562000319812A013A0319642A073A0319C22975
:10257200992A32080319BF2A32083F2C3C2F200027
:10258200AC00AD012D084F3E8600870101082C06E4
:102592000319DC2A0330AD0A2D060319DC2AC32AEB
:1025A2002D084F3E860087012D084E3E840085018E
:1025B20000088100AD032D08031DD12A2C08CF008D
:1025C200080000308B1B01302000BB008B130E175C
:1025D200FF30BC00BC0BEB2AFF30AC000030B32351
:1025E2009131462691312000BA00BD01BD0AFF306B
:1025F200AC000030B323913120003A08B4003D080A
:10260200CE25913120000430BD0A3D02031CF82A78
:102612003B1C0D2B8B1708008B130800B300EB2714
:1026220091319D279131B32391314626913120007A
:10263200B2002E08153EAF00003003180130B00082
:10264200803A803C031D272B2F083202031C08000E
:10265200200032082E07AF00B001B00D300DB00CD3
:10266200AF0C2F08B100E5279131810A3308E0272A
:1026720091310319AE2B9D279131B3239131462617
:10268200913120003102031C882BA32B3308523EC8
:1026920086000330870181002100C501C50A2000A0
:1026A2003308FF3EC02291319E2B3308523E8600F2
:1026B2000530870181002100C301C30A9E2B330824
:1026C200523E86000430870181002100C201C20A05
:1026D2009E2B3308523E860006308701810021007E
:1026E200C601C60A9E2B3308523E8600870181012D
:1026F200810A2100C401C40A9E2B3308523E86007F
:102702000230870181002100C701C70A9E2B3308CE
:10271200E0279131013A0319472B033A0319562B4B
:102722000A3A0319602B183A03196A2B503A031913
:10273200742BC03A03197E2B9E2B20003308C02233
:102742009131AE2B3308553E860087013308553E42
:102752008400850100358100372BE52791319D27C3
:102762009131B32BAD004E2791312D0824009100F9
:1027720020009119C92BB92B8C168C12D72B8E15D0
:102782008E11D72BC62BFB2791310E150E11D72B8D
:102792002C08013A0319BD2B033A0319C02B013A45
:1027A2000319C32BFC3A0319C42BD72B240095120F
:1027B20008003A0886003B0887000330010203182C
:1027C200E42B903131283A0886003B088700063016
:1027D20001023A080318F72B013E2000C200003024
:1027E20021003B3D2000C3009031702886003B0849
:1027F2008700183001023A080318082C013E200015
:10280200C200003021003B3D2000C300622C013E8B
:102812002000AC00003021003B3D2000AD00062F1F
:10282200AC01AC0AAD012D08C83E86008701010843
:102832000319252C2D08C83E86002D08C83E8400A9
:10284200850100368100AC011830AD0A2D02031C4F
:10285200142C2C0808002000B80080305902031CF8
:102862003C2CCF303F2420003808860001308700FE
:10287200CF3081008034D90ABF2708002000B7007A
:10288200B1018B31682B2000BB0080305902031C40
:10289200542C0F303F242000380886000130870076
:1028A2000F30810008005908703EB9002330BA0188
:1028B200BA3D390886003A0887003B088100D903EF
:1028C20008004308BA004208B900A030BB00F42453
:1028D20091312100B9013908533E86000430870145
:1028E20001060319872C3908533E8600023001067F
:1028F2000319872C390891313D2191310319872C15
:102902003908913142219131031DBA2CB8010630A8
:102912002000AC002100390863269131A03E21003D
:1029220038072000C400063E8600870121003808CF
:102932002000C500C601B0279131B92591312C087C
:102942004207C7002D08433DC80045084707C90094
:102952004608483DCA00490884004A0885000331F8
:102962000008810021000330B80A38020318E82C5D
:10297200882C3908533E8600870101030319C82CAD
:102982003908533E860003300106031DE82C20005F
:102992004308BA004208B900B0279131B9259131F4
:1029A2002C08C4002D08C5004408B9074508BA3DE3
:1029B2000330B9070318BA0A0630AC0021003908FF
:1029C20063269131063EA03EBB00F42491312100E2
:1029D2000330B90A3902031C6C2CA0302000AC0071
:1029E2000030AD00062F7C2791310108031DFE2C1B
:1029F2003908AA27913103191A2D390886003A0895
:102A020087004231390884003A08850001316D2778
:102A120091310108AC00AD017C2791310108AE0073
:102A2200AF01B9259131F1279131942591313208C5
:102A32001F2D390886003A0887000136BF00390881
:102A420086003A0887003F080102BC003908AA271D
:102A52009131031D302DA42791310319482D3908D6
:102A620086003A0887004231772791316D279131EC
:102A720041318A27913142310108AE00AF01B925B7
:102A82009131F12791319425913132084B2D7C27D8
:102A920091310136C0007C27913140080102BD000E
:102AA200A4279131031D5A2D7C2791310108031966
:102AB2006E2D7C279131772791316D2791314231EB
:102AC2008A2791310108AE00AF01B9259131F12772
:102AD2009131942591313208712DB9279131013606
:102AE200C100B92741080102BE003B0886008701E8
:102AF2003F0881003B0A86003D0881003B08023EF8
:102B02008600410881003B08033E86003C088100A4
:102B12003B08043E8600400881003B08053E8600D3
:102B22003E0881000800B701B801320833040319D6
:102B3200B42DB601B60AB31BA12DB235B30D9B2D30
:102B4200B735B80D33083502031DA92D32083402FA
:102B5200031CB02D3208B4023308B53B3714B33628
:102B6200B20CB60BA12D3808B3003708B20008002A
:102B7200B001B1012C1CC12D2E08B0072F08B13DA8
:102B8200AE35AF0DAD36AC0C2C082D04031DBB2D9C
:102B92003108AD003008AC000800B900523E860092
:102BA20087010108003A0319232E013A03190C2E5A
:102BB200033A0319002E013A0319E12D232E0800CE
:102BC2003908553E8600870101143908AE00D52721
:102BD2009131752691314626913162279131B700A4
:102BE20080303702031DF72D38083502031C080018
:102BF20020003908523E8600870181010800390809
:102C0200553E8600870181173908AE00D5279131DC
:102C12007A269131172E3908553E86008701011711
:102C22003908AE00D527913170269131462691316F
:102C320062279131803C031D202E3508380203188B
:102C42000800F92D3908EB279131CE279131B323B2
:102C520091314626913162279131B7008030370297
:102C6200031D352E380835020318080020003908E4
:102C7200553E860087018101CE279131B3239131E0
:102C820020003408AE0039080F2B21008E172300D4
:102C92008E1721009E131E088F3960389E00FC306B
:102CA2009E051D08833924389D001D142000AC01A7
:102CB200AC0A2C0A031D592E21009D149D185F2E6B
:102CC2001C0808002000AE00AD012C082E18AD072C
:102CD200AC35AE362E08031D662E2D080800AF0057
:102CE2002E08AC002F08B32BAF002E08AC002F0823
:102CF200B32BAF002E08AC002F08B32B2000B70077
:102D02005530AC003708D4269131D63EEC269131AD
:102D1200B600FA30AC00360863269131FF3EB800A7
:102D22002B30370203189B2EFF30B9003808BA0047
:102D3200BB01C22E553037020318A32E3808B90042
:102D4200FF30982E803037020318AC2EFF30B901C5
:102D5200BA003808B42EAB3037020318B62EB901C8
:102D62003808BA00FF30BB00C22ED5303702031834
:102D7200BE2E3808B900BA01B32EFF30B900BA012D
:102D8200AA2E3108860032088700390881003A08E5
:102D9200B3003108013E922791313B08B30031085C
:102DA200023E92270800AE000830AF00B0012E08A4
:102DB200AD000730AD36890BDB2E30352D04B00067
:102DC200AE352C083002031CE82E2C08B002AF0BE3
:102DD200D82E30080800B000803A7F3E3008031831
:102DE200002FAC00AD01AC1BAD03AC09AD09AC0AC0
:102DF2000319AD0A2C08AE002D08AF00042FAE0057
:102E0200AF01AE1BAF032E080800B0013008C83E68
:102E1200860087013008AE00AF012C0784002F081E
:102E22002D3D8500000881001830B00A30020318D9
:102E32000800072F3327913123008C018D018E0169
:102E42002B2791313D27C401C501C201C701C6012B
:102E5200C301080021008D160E1320000E17240056
:102E62008C1108003C30210099041908FC39023801
:102E72009900991308000800C030210095055A30C6
:102E82002000950061309900980111102100111461
:102E92000B08E038EF398B00080021008E130D1368
:102EA2008C128E110E1120008C128E110E11240024
:102EB20095161516F03095059417141320009111EC
:102EC20008002000B8003408153EB5000030031891
:102ED2000130B600803A080000080107B200B301D1
:102EE200B30D390886003A088700080039088400C3
:102EF2003A0885000800390886003A0887004131FF
:102F020008003508F03E860022308701873D01081F
:102F120008000108AC00AD01390886003A088700B4
:102F22000800B4000030323DB50034088600350890
:102F320087003308810008003308AC003308553E8F
:102F4200860001080800390886003A08870001084F
:102F5200080086003A088700423101080800210073
:102F620039082000AC000330AD01AE00AF0108000B
:102F7200390886003A088700423108005908703E35
:102F8200860023308701873D01080800840A03195F
:102F9200850A20000008220008003908AC00390820
:102FA200553E8600010808003908553E8600010892
:102FB2000800200000082200AD00840A0800553EE7
:102FC20086008701010808003308553E8600870104
:102FD20081010800553E8600FF308701810008000C
:102FE2002D08B5002C08B40008002100BC001830E0
:0E2FF200BD0008008C168C128E158E11080082
:020000040001F9
:04000E00FCCFCFDF75
:00000001FF
