:041208008A31512AAC
:101210007E1489312000111C1829CE3097009601C8
:101220008E31E3268931F801F80A200011104F2A87
:101230000B1D4F2A613095005E08AB000330AB05F3
:101240005E08AA00FC30AA0503302B020630031802
:10125000372AF0002B08903129208931A900C53E9A
:101260008600870101082A0203183829013039292C
:101270000030A6002908C63E8600870101082A0220
:1012800003184429013045290030A7002908C73E2A
:101290008600870101082A020318502901305129CC
:1012A0000030A8002908C83E8600870101082A02EC
:1012B00003185C2901305D290030A3002908C93ECC
:1012C0008600870101082A0203186829013069296C
:1012D0000030A4002908CA3E8600870101082A02BE
:1012E00003187429013075290030A5002B08573EDA
:1012F00086008701010B8B292B085A3E86002308A4
:101300000112031D01162B085A3E86002608011003
:10131000031D0114A1292B08573E860003308701C5
:101320000106031DBE292B085A3E86002308011220
:10133000031D01162B085A3E860026080113031DC3
:1013400001172B085A3E860027088110031D8114BF
:101350002B085A3E860024088111031D81152B0895
:101360005A3E860025080111031D01152B085A3E1F
:10137000860028088112031D8116FD292B08573E7F
:101380008600023087010106031DFD29A001A00A85
:101390002608031DCF292308031DCF29A0012008FB
:1013A000A600A101A10A2708031DDA292408031DAC
:1013B000DA29A1012108A700A201A20A2808031D19
:1013C000E5292508031DE529A2012208A8002B080C
:1013D0005A3E8600870126080110031D01142B08C0
:1013E0005A3E860027088110031D81142B085A3E9F
:1013F000860028080111031D01152B08013E8F31BD
:1014000094278931462A04306202031C1A2A5F0895
:1014100090317D20893104302000E2026302031CF8
:10142000182A61089031B320893104302000E3028A
:10143000E00A3A2AFF309031B3208931200006308B
:10144000DF0AF0005F08013E90314D208931E10054
:101450006308E2000630F0005F08013E90314D2045
:101460008931BF3E860087010108E30006305F0234
:10147000031C032A06305F06031D462A3F30600224
:10148000031C452AE001DF01462AE00AFE30200065
:101490005E06031D4D2AFA01FA0ADE0A0B117E10C0
:1014A000090091314A2900308B1B01302000B30024
:1014B000210017082000B6008B13B3228A31FA01ED
:1014C000FA0AF801F80A210017081438D5399700EC
:1014D00000300B1901302000B4000B11003011183E
:1014E0000130B5001110630020003608210097007C
:1014F000B5228A31331C7E2A8B177F2A8B1320005A
:10150000341C842A0B15852A0B112000351C8B2ACC
:10151000200011148D2A20001110CE309700960162
:10152000A22C00308B1B0130B2008F31AC278A31E6
:10153000B3221430AC00AD019631CC268A312100A3
:101540000E14FE249631CC268A3100300E1801305C
:10155000B100B5228A31321CAF2A8B17B02A8B1307
:101560002000310808008F319C2FFF302000AC0094
:10157000003047248A31E7248A31912CBC00F924B9
:101580008A31003A0319EC2A013A0319E22A033A94
:101590000319D82A013A0319CE2AEC2AE1248A3108
:1015A000011C0314C6248A310110031D0114272BCA
:1015B000E1248A31811F0314C6248A318113031D5B
:1015C0008117272BE1248A31011F0314C6248A3195
:1015D0000113031D0117272B3C08593E8600FF30DD
:1015E000870181063C0841248A312A248A3120005F
:1015F000BA00BD248A31803C031D002B37083A0213
:10160000031C0C2B2000BD248A31803C031D0A2BB7
:1016100037083602031C242B2000B4248A31B90079
:1016200080303902031D162B3A083702031C272B82
:101630002000B4248A31B90080303902031D222BE6
:10164000360837020318272B20003C088B2B20007C
:101650003C0841248A312A248A312000BA003B0800
:101660000319472BBD248A31803C031D392B3708D1
:101670003A02031C5E2B2000BD248A31B900803061
:101680003902031D452B36083702031C5E2B200050
:101690003B08031D542BB4248A31803C031D522B7C
:1016A00037083A0203185E2B2000B4248A31803CAC
:1016B000031D5C2B370836020318882BDC248A3183
:1016C00044312000B7003C0A662BB735890B652BE7
:1016D0003708FF3A8105DC248A314531B7003C0ADE
:1016E000722BB735890B712B3708FF3A8105DC2443
:1016F0008A314331B7003C0A7E2BB735890B7D2BED
:101700003708FF3A81053C08563E86008701810173
:1017100020003A080800B500593E8600FF308701D6
:101720008100350841248A312A248A312000B300FF
:101730003508593E860087018101350841248A31E8
:101740002A248A312000B400153EB000003003186E
:101750000130B100803A803C031DB02B30083302C9
:101760000318B52B20003408080020003308340784
:10177000B000B101B10D310DB10CB00C3008B200A8
:10178000F3248A31810A3508EE248A310319242C86
:10179000350841248A312A248A3120003202031C70
:1017A000072C192C3508563E86000330870181002E
:1017B000DC248A314431B000350ADF2BB035890B87
:1017C000DE2B042C3508563E8600F030870181015F
:1017D000810A86002230870001304331B000350A8B
:1017E000F22BB035890BF12B042C3508563E8600C0
:1017F000023087018100DC248A314531B000350A8E
:10180000022CB035890B012C30088104142C3508CA
:10181000EE248A31013A0319D22B413A0319E22B03
:10182000C03A0319F52B142C35089531D4258A318B
:10183000242C3508593E860087013508593E84001E
:10184000850100358100C32BF3248A3135084124FA
:101850008A312A2C21008E1723008E176030210038
:101860009E0025309D00FE249631CC268A31210031
:101870009D149D18392C8E1323008E1321001C08F3
:101880000800AF00AC002F08EE248A31472CAD00D1
:10189000CF248A312D08240091002000AE01822C33
:1018A00003108C1E0314031C582C20008C167D2C56
:1018B00020008C127D2C03108E1D0314031C632C3E
:1018C00020008E157D2C20008E117D2C03100E1D06
:1018D0000314031C6E2C20000E157D2C20000E110D
:1018E0007D2C03108C1E0314031C792C20008C16F5
:1018F0007B2C20008C120C308E060230AE0A2E0299
:10190000031808002C08013A0319502C033A031954
:101910005B2C013A0319662CFC3A0319712C7D2CBF
:101920007D2C2000B001B00A3008F9248A31031957
:101930009C2C300841248A310430B00A300203184C
:101940000800942C91228A31003A0319AB2CB3225F
:101950008A31AE248A31AC2C640008008F31B22762
:101960008A3180311C2808003608EB3EB700FF3072
:1019700003180030B800803A08003608153EB7005A
:10198000003003180130B800803A08000030031816
:101990000130BB003C08593E86003B08080021008E
:1019A0008C120D1373308E0530302400950094177F
:1019B0001413200091110800F030860022308700B7
:1019C00001343C08593E86008701031008008C163C
:1019D0008E150E150E17240095160800593E860028
:1019E0008701010808003508593E860087018101FA
:1019F0000800563E86008701010808002000AC015F
:101A0000AC0AAD010800B80039308600013087000B
:101A10002E308400003085000A30AD0016001A0018
:101A2000AD0B0E2D3808593E860087010108B7001E
:101A3000240095162000380886258D31911D1E2D15
:101A4000B901911139082E3EF4258D312000911DE8
:101A5000262D0A30B90A3902031C212D3808B92570
:101A6000240095120800BD0000308B1B0130BC0023
:101A7000A7258D31BE003E08031908008B13A12550
:101A800006302000AC00AD019631CC268D313E08E9
:101A9000AD0029306A258D312000BB003D08ED25C1
:101AA0008D312B306A258D312000BB003D0AED259C
:101AB0008D312D306A258D312000BB003D08023E5E
:101AC000860087013B0881003C1C682D8B170800AD
:101AD0008B130800AE002400951620002D088625E3
:101AE0008D3191112E088038240091002000911D25
:101AF000762D91112D08593EF4258D312000911D30
:101B00007E2D2D08B925240011080800AC00922D67
:101B10008C1208008E1108000E1108008C12F33090
:101B20008E0508002C08013A0319882D033A031981
:101B30008A2D013A03198C2DFC3A03198E2DA02D04
:101B40000800BA00D4258D3120003A08032DAC01DD
:101B5000AC0A2C08563E8600023087010106031DA0
:101B6000B32D2C0808000430AC0A2C0203180034F2
:101B7000A92DAC00C52D8C1608008E1508000E1579
:101B800008008C160C308E0408002C08013A03194A
:101B9000BB2D033A0319BD2D013A0319BF2DFC3AA1
:101BA0000319C12DD32D0800B00021000D1620000F
:101BB0003008593E8600870101133008593E8600DF
:101BC000811530088C3141248D313008B92524002D
:101BD00094171413303095000800860087013B08E5
:101BE00081003E08AD00080086008701010824003E
:101BF00091000800162638080339973180278D3167
:101C00009531D4258D3116268D3138082100A0005C
:101C1000A2302000B7000030B800210020084F2675
:101C2000A230CD000030CE0091310A294130200091
:101C3000AF00C630AE004E30AD006D30AC002100BC
:101C40005A082000B300210059082000B2002100EA
:101C500058082000B100210057082000B000B3262A
:101C60002F082100DA0020002E082100D9002000D2
:101C70002D082100D80020002C082100D700393081
:101C8000D7073030D83D0030D93DDA3D5A08200022
:101C9000B900210059082000B800B913080020003D
:101CA000BD005530AC003D08953152258D31D63EF2
:101CB000963162268D31BC00B100FA30B201B3001A
:101CC000FF30B4009531BF258D313108FF3EB9009A
:101CD0000030323DBA003A0DBA0CB90C3908BE00DA
:101CE0002B303D0203187A2E7F30BF003E08C00023
:101CF000C101A12E55303D020318822E3E08BF00BF
:101D00007F30772E80303D0203188B2E7F30BF014D
:101D1000C0003E08932EAB303D020318952EBF0144
:101D20003E08C0007F30C100A12ED5303D0203180F
:101D30009D2E3E08BF00C001922E7F30BF00C00123
:101D4000892E37088600380887003F088100400840
:101D5000B9003708013ED8268D314108B90037084F
:101D6000023ED8260800B401B501B601B7012C1C0B
:101D7000C12E3008B4073108B53D3208B63D3308EE
:101D8000B73DB035B10DB20DB30DAF36AE0CAD0CE5
:101D9000AC0C2F082E042D042C04031DB72E37087D
:101DA000AF003608AE003508AD003408AC000800BE
:101DB000BA000030383DBB003A0886003B08870077
:101DC000390881000800EE268E31003A0319EC2E06
:101DD00024278E317D278E318127080000308B1B10
:101DE0000130F600AC278E3124278E311430F000FC
:101DF000F10110278E3121000E14F001F00AF101DB
:101E000010278E31003020000E180130F5002527F4
:101E10008E31761C0D2F8B170E2F8B137508080033
:101E20007008710403190800CA30F2000130F30091
:101E3000F2020030F33B720873040130031D182FC7
:101E4000F0020030F13B102F9C2FFF30F0000030EB
:101E50002F2720008C31E7248E3183270800F100E2
:101E60008C31CF248E31710824009100F2016E2F45
:101E7000031020008C1E0314031C412F20008C161D
:101E8000692F20008C12692F031020008E1D03146F
:101E9000031C4D2F20008E15692F20008E11692FF5
:101EA000031020000E1D0314031C592F20000E15D3
:101EB000692F20000E11692F031020008C1E0314BF
:101EC000031C652F20008C16672F20008C120C300D
:101ED0008E060230F20A7202031808007008013AF6
:101EE0000319382F033A0319442F013A0319502FCD
:101EF000FC3A03195C2F692F692FB22780311C2807
:101F0000080064000800F401F40A74088C31F92414
:101F10008E3103198E2F740894278E310430F40A01
:101F2000740203180800852FF300F00073088C3149
:101F3000EE248E312F27080021000D138E130E136F
:101F400020000D138E138E110E110E138C1224000F
:101F5000951220000D1308008B1321000E10200095
:101F60000E1008008B130E1721000E130800DB273C
:101F70008F3123008C018D018E01D3278F31E32710
:101F8000F030860022308700F03044318101860035
:101F900022308700F03043318101860022308700F3
:101FA00045318101080021008D160E1320000E1707
:101FB00024008C1108003C3099041908FC390238BF
:101FC000990099130800C030210095055A3020006F
:101FD0009500C130990001309800CE309700210063
:0C1FE00011140B08E038EF398B000800EA
:102000009131FF299231042A9231072A92310A2A0A
:1020100092310D2A9231152A9231672A92311D2A66
:102020009231282A92312A2A9231322A92313E2A3A
:1020300092314E2A00346A34963485343D343D342E
:06204000573457345734F9
:10205200F200F10170087218F107F035F2367208D9
:10206200031D2B2871080800C6004508B800440863
:10207200B7001A30B9009030BA00460895316A2D7F
:102082006400013080010131FE020030FF3B7F0815
:102092007E04031900344228F2000830F300F401F0
:1020A2007208F1000730F136890B54287435710437
:1020B200F400F23570087402031C61287008F402FF
:1020C200F30B512874080800B5013508BF3E86009D
:1020D20087013508B300B401310784003408323D6A
:1020E2008500000896316226903181001830B50AC9
:1020F2003502031808006628F10082209031710829
:10210200B328F0009B2821008D1718308E04080098
:1021120021008E16080021000E16080021008D17DE
:10212200080021008E16080021000E16080021006A
:102132008D1708007008003A03198928013A03191B
:102142008C28033A03198F28013A03199228073A77
:1021520003199528013A03199828FA3A0319842891
:10216200B2280800F000E62821008D1320008D130C
:10217200CF3021008E0520008E05080004210E12AA
:1021820020000E12080004218E1220008E12080078
:10219200E73021008E0520008E120E160800FE2068
:1021A2000E1220000E160800FE208E1220008E163F
:1021B2000800E73021008E0520008E160E1208005E
:1021C200183021008E040E1608007008003A031918
:1021D200BF28013A0319C428033A0319C928013A4E
:1021E2000319D028073A0319D528013A0319DA2826
:1021F200FA3A0319B528E128080021008D132000BE
:102202008D132100080021008D1320008D1721005D
:1022120008001C294E08BF004D08BE00BF30C00098
:10222200A7249131A42ECF012A29CF01CF0A2A292E
:102232000230CF002A295308003A03190B29013A28
:1022420003191429033A03191629013A0319192902
:102252002A29A42691314F0861279131031D3E2975
:102262004E08B8004D08B7000630AC004F089A245B
:102272009131C53EB900BA011A2E4E08BF004D0871
:10228200BE000630AC004F089A249131C53EC00012
:10229200A72CF0308400223085000130FE01FF00BF
:1022A2009031412091315330F701F801F901FA01DF
:1022B2008400003085001130FE00FF019031412082
:1022C2009131BF308400003085001830FE00FF01DC
:1022D20090314120913121000130D700D801D9013C
:1022E200DA0122006030B9004730BA000030BB0189
:1022F200BC01BD01BE01BF01C001C101C2017E100E
:10230200200083292100BE018F31B72791318A3104
:10231200B5229131F62591310030D4259131063024
:102322007B279131C3219131B229F90121009830E3
:10233200B901BA00C3219131B229F6259131003099
:10234200F801FA01D425913103307B279131C32161
:1023520091312100BE01B229FA0194279131210065
:10236200BE007908031D96297808031D9E297A0864
:10237200031DAD2921003E080319B2298A315322D7
:102382009131B22905082200A1000408A000210011
:102392003A08850039088400FF302000DD00200063
:1023A20000082200AF00840A0319850AF0302F05C5
:1023B2002100BB00103A031DE72B200000081B245C
:1023C20091312200B800840A0319850A200000080E
:1023D2001B2491312200B700F6269131B500040882
:1023E200013E2100BB000030053DBC003B0822003D
:1023F200B20021003C082200B3005A2A3808B0007B
:102402003708B005672A38083704552A38083707CD
:10241200552A37083802552A37082000AC00220016
:1024220038089A2491314C2A37082000AC00220047
:102432003808B02791314C2AA80138080319262AF6
:1024420037080319262AA801A80A2808552A380895
:10245200302A3808031D2F2A0130302A003037066F
:10246200552A3808803A2100BB0022003708803AFA
:102472002100BB02031C492A4B2A3708803A21005B
:10248200BB0022003808803A2100BB02031C4B2A01
:1024920001304C2A00302200552A38083706031D25
:1024A200542A0130552A0030B000672ACA30A900E8
:1024B20008002F08F03E031C572A84000D30040246
:1024C2000318572A90310435003E820030086C27E9
:1024D2009131232491312200B02A0508312491310F
:1024E200040831249131200000082200A400F626BD
:1024F2009131A500240885002508B32A18279131B7
:102502000319850A20000008BA0022003508232496
:102512009131840A0319850AD0292000000822007B
:10252200A200F6269131B600840A0319850AC72A49
:1025320067279131AA002B302000B7000130B80084
:10254200220036081B248E314F2691312A30D100C9
:102552000130D2007C2691316C2A852791313308D3
:10256200850032088400D02985278E3116269131C4
:102572003808BA00220036086A2A21088500200895
:10258200840036081B242200A90008002208003A11
:102592000319BE2A013A0319AE2A033A0319992AEA
:1025A200013A0319B52AD029200000082200A3000D
:1025B200840A0319850A052B672791312000DD0261
:1025C200F130C7002230C8005D08C7070318C80AE7
:1025D200E02691310330312491316C2A0508B30091
:1025E2000408B2002000F030DD0AD1002230D2000F
:1025F2005D08D1070318D20A7C26913120005D08BC
:102602000C279131DD076C2A2308013A0319EF2ABE
:10261200033A0319DD2A1A2C182791310319850A66
:1026220041249131BA002200350823249131D02966
:1026320013279131712791311B249131312491312A
:10264200D02948279131840A0319850A41249131FE
:102652002200B1003408F03E2100BB002230BC0150
:10266200BC3D3B0886003C088700220031088100FF
:1026720031080319D029B40A412491312100BB0049
:1026820022003408F03E2100BC002230BD01BD3DD5
:102692003C0886003D0887003B0881002200B10308
:1026A200392B48279131840A0319850A34080C27EB
:1026B2009131B10034083107AE0034082E02031CF8
:1026C200D0292E080C2791313124913122002E0875
:1026D2000319D029AE035E2B13279131F6269131CF
:1026E200B500712791311B2491312200B800B81F27
:1026F2008D2B38082100BB00BC01BB1BBC03BB09EE
:10270200BC09BB0A0319BC0A3B082200A60021002F
:102712003C082200A700922B3808A600A701A61B9E
:10272200A70326086C27913123249131D029182739
:1027320091310319850A542791316C279131232451
:102742009131D02913279131712791311B24913175
:102752002100BB00F1308600223087003B08810057
:10276200D029542791310319D02903308407031843
:10277200850AD02948279131F6269131B600F626EE
:102782009131B500840A0319850A51302F06031DC1
:10279200D72B35081B249131BA00220036081B249E
:1027A20091312200340723249131D02936081B2489
:1027B2009131220034071B249131BA0022003508DE
:1027C20023249131D029C130A900080022002F080A
:1027D200003A03191A2C053A03198E2A033A0319EF
:1027E200D52A0E3A03197F2A023A0319192B013A04
:1027F20003190D2B073A03196D2B013A0319222BEA
:10280200033A0319522B3E3A0319982B013A031942
:10281200A32B713A0319B22B103A0319BB2B013ABD
:102822000319BB2B313A0319742A013A03196E2A90
:10283200E42BD0292000AC002C08031900342C080A
:102842000C2708002000BD00F03EBB002230BC0176
:10285200BC3D3B0886003C0887003A08810008001E
:102862002000AE005D08F03EAC002230AD01AD3D6F
:102872002C0886002D0887002E088100DD03080041
:102882002000DD0A5D080C2708004E08BF004D0835
:10289200BE00A030C000A72491312100B801380841
:1028A20061279131031D722C20004E08B8004D089B
:1028B200B70028279131BF2591315B279131B707A6
:1028C2005008B83D0330B7070318B80A762791318C
:1028D2009A249131063EA03EB900BA011A269131DE
:1028E2008D2C20004E08BF004D08BE0028279131D4
:1028F200BF2591315B279131BE075008BF3D0330A0
:10290200BE070318BF0A762791319A249131063EF9
:10291200A03EC000A724913121000330B80A38023A
:10292200031C502CA0302000B1000030B2009031C6
:1029320065282000AE00AD012C082E18AD07AC357D
:10294200AE362E08031D9D2C2D08080000308B1B6F
:102952000130CB003F08B8003E08B7003F08BA007C
:102962003E08B9001A2691318B13CC018F27913181
:102972005225913131279131031DC72C8A2791317C
:1029820052259131312791310319132D4C084007FB
:10299200C100860003308701AC004C08013E52257D
:1029A20091313A2791310008C4008A27913152258A
:1029B2009131C500C6013E07840046083F3D8500AF
:1029C20044080007B700B8010318B80AC41BB803CB
:1029D200801BB80320004C08C700C8013E078400D2
:1029E20048083F3D85000008B100B201B11BB203A7
:1029F2008F27913152259131C900CA013E078400C7
:102A02004A083F3D85000008B300B401B31BB4037C
:102A1200BF2591313208BA003108B900DB27913164
:102A220037081C2D4C084007C100860087014C085E
:102A32003A279131003781004C084007C100033E1C
:102A4200860087014C084007C20084008501000807
:102A5200C3004C08C400C5013E07840045083F3D41
:102A620085000008C6004308460281000330CC0AF4
:102A72004C02031CB72C40088600443FCC0040089F
:102A8200043E8600400A8400850100088100400A55
:102A920086004C0881004B1C502D8B1708008B13AD
:102AA2000800AE000830AF00B0012E08AD000730BC
:102AB200AD36890B592D30352D04B000AE352C08BA
:102AC2003002031C662D2C08B002AF0B562D3008C5
:102AD2000800C200C3014208860087010108B10054
:102AE200B201B11BB2033A08BC003908BB0043086B
:102AF2003B0784003C0803183C0A85000008B30029
:102B0200B401B31BB403BF2591313208C1003108AF
:102B1200C000420A8600FD26913103301E27913102
:102B2200B31BB403BF2591313108C0073208C13D40
:102B32004208023E8600FD26913106301E27913161
:102B4200B31BB403BF2591313108C0073208C13D20
:102B52004108BB004308BC00BD013707BE003D0869
:102B6200383DBF003E0886003F0887003B088100D1
:102B72000330C30A4302031808006C2DB501B601E5
:102B8200311CC72D3308B5073408B63DB335B40D33
:102B9200B236B10C31083204031DC12D3608B20021
:102BA2003508B10008002000AC00AD012D08533EED
:102BB2008600870101082C060319F02D0330AD0AA7
:102BC2002D060319F02DD72D2D08533E86008701BF
:102BD2002D08523E8400850100088100AD032D08B6
:102BE200031DE52D2C08D300080000308B1B01309B
:102BF2002000BD008B13AC01AC0AAD01CC268C3198
:102C02002A2491312000BE00BF01BF0A3E08B6004F
:102C12003F088A31BE2291312000BE000430BF0A33
:102C22003F02031C072E3D1C182E8B1708008B1326
:102C320008003708860038088700010862269131AB
:102C4200BB00390886003A0887003B088100370834
:102C52008600380887004131010862269131BB00A5
:102C62003908013EEB269131370886003808870083
:102C72004231010862269131BB003908023EEB263F
:102C82009131390886003A0887000108BB003908EB
:102C9200033EEB269131390886003A08870041311C
:102CA2000108BB003908043EEB2691313908860041
:102CB2003A08870042310108BB003908053EEB267D
:102CC2000800B000803A7F3E30080318762EAC0030
:102CD200AD01AC1BAD03AC09AD09AC0A0319AD0AD9
:102CE2002C08AE002D08AF007A2EAE00AF01AE1B4D
:102CF200AF032E0808005108422791317D3E031888
:102D0200842E8D31FA2D5108422791317A3E510895
:102D12000318912E013ECD000030523DCE000A290B
:102D220042279131683E510803189D2E013ECD0085
:102D32000030523DCE00462C013EB1000030523DE3
:102D4200B2009031652820005308AC00AD012D0877
:102D5200802791310319B52E2D08533E86004D2749
:102D62009131AD0AA82EAD0A2D08533E8600870187
:102D72004D2791312D08533E860001080319C52EB7
:102D820003302D02031CB42E2D08533E860087010A
:102D92002C08810008002C082D0403190800CA30F1
:102DA200AE000130AF00AE020030AF3B2E082F0460
:102DB2000130031DD42EAC020030AD3BCC2E493085
:102DC2008D31332520004808C5004708C40049302A
:102DD20090313528BC0000303A3DBD003C088600E9
:102DE2003D0887003B0881000800840A0319850A10
:102DF200200000082200080087010108B100B2018A
:102E0200B11BB2034308BB00BC013907BD003C083B
:102E12003A3DBE000800F03E860022308701873D21
:102E220001080800200000082200B6000800200067
:102E320000082200B500840A08003D0784003E080D
:102E420003183E0A85000008B300B40108002100FF
:102E520038082000B1000330B201B300B401080009
:102E6200C100C2013E07860042083F3D87000108BB
:102E72000800C200C3013E07840043083F3D8500AD
:102E820008008600520887000108803A08002000E6
:102E920000082200B40008002D08543E8400850179
:102EA200000881000800F03086002230870041319E
:102EB200010808003108CF003208D0004F0808008E
:102EC200573E860002308701010608000508B3005C
:102ED2000408B20003342000BA00220035080800BA
:102EE200840A0319850A360808000630AC0021005E
:102EF200380808002100B9009830BA000800533E93
:102F020086008701010808000508B3000408B20022
:102F120008000330AC004C08023E08000330AC004D
:102F22004C08013E08002000AC01AC0AAD012D089E
:102F3200BF3E8600870101080319A92F2D08BF3E55
:102F420086002D08BF3E8400850100368100AC0159
:102F52001830AD0A2D02031C982F2C0808002000FF
:102F6200B000AE01AC1FB92FAC09AC0AAE01AE0A7B
:102F7200B01FBF2F0130B009B00AAE06AF012C0856
:102F82000319D42FAD01AD0AAC1BC92FAC35C42F28
:102F9200AF352C083002031CD12F2C08B0022F149D
:102FA200AC36AD0BC92F2E080319D92FAF09AF0AC2
:102FB2002F080800BC01BD01370838040319FB2F94
:102FC200BB01BB0AB81BE82FB735B80DE22FBC35E1
:102FD200BD0D38083A02031DF02F37083902031CD1
:102FE200F72F3708B9023808BA3B3C14B836B70C89
:0E2FF200BB0BE82F3D08B8003C08B7000800F4
:020000040001F9
:04000E00FCCFCFDB79
:00000001FF
