:041208008A31542AA9
:101210007E1489312000111C1829CE3097009601C8
:101220008E31B3268931F801F80A20001110522AB4
:101230000B1D522A613095005C08AD000330AD05EE
:101240005C08AC00FC30AC0503302D0206300318FE
:101250003B2AF0002D08903145208931AB00C93E72
:101260008600870101082C0203183829013039292A
:101270000030A8002B08CA3E8600870101082C0216
:1012800003184429013045290030A9002B08CB3E22
:101290008600870101082C020318502901305129CA
:1012A0000030AA002B08CC3E8600870101082C02E2
:1012B00003185C2901305D290030A5002B08CD3EC4
:1012C0008600870101082C0203186829013069296A
:1012D0000030A6002B08CE3E8600870101082C02B4
:1012E00003187429013075290030A7002D08553ED8
:1012F00086008701010B8B292D08583E86002508A2
:101300000112031D01162D08583E86002808011001
:10131000031D0114A1292D08553E860003308701C5
:101320000106031DBE292D08583E8600250801121E
:10133000031D01162D08583E860028080113031DC1
:1013400001172D08583E860029088110031D8114BD
:101350002D08583E860026088111031D81152D0891
:10136000583E860027080111031D01152D08583E1F
:1013700086002A088112031D8116FD292D08553E7D
:101380008600023087010106031DFD29A201A20A81
:101390002808031DCF292508031DCF29A2012208F3
:1013A000A800A301A30A2908031DDA292608031DA2
:1013B000DA29A3012308A900A401A40A2A08031D0D
:1013C000E5292708031DE529A4012408AA002D0802
:1013D000583E8600870128080110031D01142D08BE
:1013E000583E860029088110031D81142D08583E9F
:1013F00086002A080111031D01152D08013E8F31B9
:101400006C2789314A2A60080319242A5D08903123
:10141000812089312000E00361080319152A5F0843
:101420009031B72089312000E1035E0F1B2AFF3085
:10143000A000A101212A5E08A000A101A00A0319B1
:10144000A10A2008DE003E2AFF309031B720893102
:1014500020000630DD0AF0005D08013E9031512089
:101460008931DF006108E0005F08C33E8600870124
:101470000108E10006305D02031C032A06305D0608
:10148000031D4A2A3F305E02031C492ADE01DD01AA
:101490004A2ADE0AFE305C06031D502AFA01FA0AC7
:1014A000DC0A0B117E100900913134299631822615
:1014B0008A313A080339C0259131A3218A31963106
:1014C00082268A313A082100A000A2302000B9000B
:1014D0000030BA002100200873228A31A230CE00E9
:1014E0000030CF00D42A2000BF005530AE003F08A6
:1014F000BD248A31D63ED5248A31BE00B300FA30ED
:10150000B401B500FF30B600DD238A313308FF3E59
:10151000BB000030343DBC003C0DBC0CBB0C3B0898
:10152000C0002B303F0203189B2A7F30C1004008C7
:10153000C200C301C22A55303F020318A32A400843
:10154000C1007F30982A80303F020318AC2A7F30D8
:10155000C101C2004008B42AAB303F020318B62ACA
:10156000C1014008C2007F30C300C22AD5303F020B
:101570000318BE2A4008C100C201B32A7F30C1004F
:10158000C201AA2A390886003A088700410881006A
:101590004208BB003908013E54258A314308BB008C
:1015A0003908023E54250800E62A4F08C1004E08BB
:1015B000C000C330C2001A248A31922DD001F42A0F
:1015C000D001D00AF42A0230D000F42A5108003A9F
:1015D0000319D52A013A0319DE2A033A0319E02A2E
:1015E000013A0319E32AF42A92258A315008822508
:1015F0008A31031D0C2B7A258A31D0238A31C93ECA
:10160000BB00BC01F2238A317A258A31D0238A318A
:10161000CC3EBB00BC01F22B4F08C1004E08C000FD
:101620000630AE005008D0238A31C93EC2001A2CC1
:10163000C400C5014408860087010108B300B40155
:10164000B31BB4033C08BE003B08BD0045083D0782
:1016500084003E0803183E0A85000008B500B60164
:10166000B51BB603DD238A313408C3003308C2003A
:10167000440A86002C258A3103305F258A31B51B48
:10168000B603DD238A313308C2073408C33D44085A
:10169000023E86002C258A3106305F258A31B51B33
:1016A000B603DD238A313308C2073408C33D43083B
:1016B000BD004508BE00BF013907C0003F083A3DE4
:1016C000C10040088600410887003D0881000330C2
:1016D000C50A4502031808001A2B4F08C1004E081E
:1016E000C000A230C2001A248A312100BA013A088F
:1016F00082258A31031DA22B200044258A313B25F7
:101700008A31DD238A3124258A3114258A31D02378
:101710008A31063EA23EBB00BC01F2238A31442539
:101720008A313B258A31DD238A3124258A311425EB
:101730008A31D0238A31093EA23EBB00BC01F2238C
:101740008A31C32B20004F08C1004E08C0003B2542
:101750008A31DD238A3124258A3120082000C00700
:10176000210021082000C13D0330C0070318C10A31
:101770000630AE0021003A08D0238A31063EA23E50
:10178000C2001A248A3121000330BA0A3A02031C2B
:10179000772BA2302000B3000030B40090316928CC
:1017A0002000B000AF012E083018AF07AE35B036BC
:1017B0003008031DD32B2F080800B701B801331CD4
:1017C000E52B3508B7073608B83DB535B60DB43644
:1017D000B30C33083404031DDF2B3808B40037087A
:1017E000B3000800390886003A0887000108D524AC
:1017F0008A31BD003B0886003C0887003D08810017
:10180000390886003A08870041310108D5248A3119
:10181000BD003B08013E49258A31390886003A0857
:10182000870042310108D5248A31BD003B08023EC1
:10183000492508004108BA004008B9004108BC0029
:101840004008BB00F2238A318B13CD018D258A31EC
:10185000BD248A3169258A31031D362C88258A31B9
:10186000BD248A3169258A310319822C4D0842072B
:10187000C300860003308701AE004D08013EBD2441
:101880008A3172258A310008C60088258A31BD2434
:101890008A31C700C801400784004808413D8500DF
:1018A00046080007B900BA010318BA0AC61BBA03F2
:1018B000801BBA0320004D08C900CA0140078400FC
:1018C0004A08413D85000008B300B401B31BB403CE
:1018D0008D258A31BD248A31CB00CC01400784009C
:1018E0004C08413D85000008B500B601B51BB603A4
:1018F000DD238A313408BC003308BB00EF248A3171
:1019000039088B2C4D084207C300860087014D081B
:1019100072258A31003781004D084207C300033E1B
:10192000860087014D084207C40084008501000835
:10193000C5004D08C600C701400784004708413D67
:1019400085000008C8004508480281000330CD0A20
:101950004D02031C262C42088600443FCD0042085D
:10196000043E8600420A8400850100088100420A84
:1019700086004D0881008B170800B0000830B100C8
:10198000B2013008AF000730AF36890BC42C3235B6
:101990002F04B200B0352E083202031CD12C2E08C1
:1019A000B202B10BC12C32080800B200803A7F3E6F
:1019B00032080318E92CAE00AF01AE1BAF03AE092D
:1019C000AF09AE0A0319AF0A2E08B0002F08B10004
:1019D000ED2CB000B101B01BB10330080800BE010E
:1019E000BF0139083A0403190F2DBD01BD0ABA1B06
:1019F000FC2CB935BA0DF62CBE35BF0D3A083C02A9
:101A0000031D042D39083B02031C0B2D3908BB02B2
:101A10003A08BC3B3E14BA36B90CBD0BFC2C3F084F
:101A2000BA003E08B900080020082000B9072100CC
:101A300021082000BA3D0330B9070318BA0A06305E
:101A4000AE0021003A08080033082100A000200061
:101A500034082100A100080087010108B300B40187
:101A6000B31BB4034508BD00BE013B07BF003E08E1
:101A70003C3DC000080021003A082000B3000330BC
:101A8000B401B500B60108004F08BA004E08B9000D
:101A90000800BE0000303C3DBF003E0886003F0805
:101AA00087003D0881000800BC0000303A3DBD00C1
:101AB0003C0886003D0887003B08810008003F077E
:101AC000840040080318400A85000008B500B601EC
:101AD0000800C300C401400786004408413D870058
:101AE00001080800C400C501400784004508413DC5
:101AF000850008004F08BA004E08B9000630AE0055
:101B000050080800553E8600023087010106080093
:101B10000330AE004D08023E08000330AE004D0811
:101B2000013E08005108AE00AF012F08C0258A31E0
:101B30000319A22D2F08513E8600B9258A31AF0A1C
:101B4000952DAF0A2F08513E86008701B9258A31AD
:101B50002F08513E860001080319B22D03302F02D1
:101B6000031CA12D2F08513E860087012E088100FD
:101B700008002F08523E84008501000881000800FB
:101B8000513E8600870101080800BA0039308600FE
:101B90000130870030308400003085000A30AF000B
:101BA00016001A00AF0BD02D3A08573E8600870169
:101BB0000108B9002400951620003A083F268D310F
:101BC000911DE02DBB0191113B08303EAD268D31BA
:101BD0002000911DE82D0A30BB0A3B02031CE32DB7
:101BE0003A087226240095120800BE0060268D3146
:101BF000BF003F08031908008B135A260630200047
:101C0000AE00AF0193316D238D313F08AF00293015
:101C100023268D312000BD003E08A6268D312B30B5
:101C200023268D312000BD003E0AA6268D312D30A1
:101C300023262000BD003E08023E860087013D08A5
:101C400081008B170800B0002400951620002F0893
:101C50003F268D31911130088038240091002000FA
:101C6000911D2F2E91112F08573EAD268D3120004A
:101C7000911D372E2F087226240011080800AE008F
:101C80004B2E8C1208008E1108000E1108008C12C9
:101C9000F3308E0508002E08013A0319412E033A4D
:101CA0000319432E013A0319452EFC3A0319472E16
:101CB000592E0800BC008D268D3120003C08C52D12
:101CC000AE01AE0A2E08543E86000230870101069E
:101CD000031D6C2E2E0808000430AE0A2E020318D5
:101CE0000034622EAE007E2E8C1608008E15080081
:101CF0000E1508008C160C308E0408002E08013AD0
:101D00000319742E033A0319762E013A0319782E1B
:101D1000FC3A03197A2E8C2E0800B20021000D1611
:101D200020003208573E8600870101133208573ED3
:101D3000860081153208933167238D31320872266F
:101D40002400941714133030950008008600870192
:101D50003D0881003F08AF000800860087010108A8
:101D6000240091000800BE268E31003A0319BC2ED3
:101D7000FA268E31FB268E31FF260800F601F60A80
:101D80008B13FA268E31F501DF2E643075020318AD
:101D9000E22E21000E1020000E10F001F00AF101D9
:101DA000E6268E3121000E14F001F00AF101E6263C
:101DB0008E31003020000E180130F600F50A76084A
:101DC000031DC52E01278B177608080070087104C3
:101DD00003190800CA30F2000130F300F2020030AB
:101DE000F33B720873040130031DEE2EF002003045
:101DF000F13BE62E742F822780311C2808006400F6
:101E00000800FF30F00000300A27973187278E3115
:101E10005B270800F100973152278E3171082400AA
:101E20009100F201492F031020008C1E0314031CA3
:101E30001C2F20008C16442F20008C12442F0310DE
:101E400020008E1D0314031C282F20008E15442F04
:101E500020008E11442F031020000E1D0314031CBC
:101E6000342F20000E15442F20000E11442F031094
:101E700020008C1E0314031C402F20008C16422FC0
:101E800020008C120C308E060230F20A7202031807
:101E9000582F7008013A0319132F033A03191F2F03
:101EA000013A03192B2FFC3A0319372F442F442FE3
:101EB00020008E130800F401F40A74089731CD272E
:101EC0008E310319662F74086C278E310430F40AA2
:101ED0007402031808005D2FF300F00073089731B7
:101EE00099278E310A27080021000D138E130E1337
:101EF00020000D138C1224009512333020008E0523
:101F00000D1308008B130E1721000E130800B227C3
:101F10008F3123008C018D018E01AA278F31BA27C2
:101F2000F030860022308700F03044318101860095
:101F300022308700F0304331810186002230870053
:101F40004531810120001C30D501D601D701210087
:101F50009700080021008D160E1320000E17240094
:101F60008C1108003C3099041908FC39023899009A
:101F700099130800C030210095055A3020009500C3
:101F8000C130990001309800CE3097002100111423
:101F90000B08E038EF398B000800B601B701B80133
:101FA000B9012E1CDB2F3208B6073308B73D3408C1
:101FB000B83D3508B93DB235B30DB40DB50DB136E8
:101FC000B00CAF0CAE0C310830042F042E04031DEE
:101FD000D12F3908B1003808B0003708AF003608F3
:101FE000AE0008006400013080010131FE020030C3
:0C1FF000FF3B7F087E0403190034F32F30
:102000009331BD2B9331C22B9331C52B9331C82B08
:102010009331CB2B9331D42B9431262C9331DC2B61
:102020009331E72B9331E92B9331F12B9331FD2B36
:1020300094310D2C00346A34963485343D343D346B
:06204000573457345734F9
:10208A00F200F10170087218F107F035F2367208A1
:10209A00031D472871080800F2000830F300F40114
:1020AA007208F1000730F136890B5828743571042B
:1020BA00F400F23570087402031C65287008F402F3
:1020CA00F30B552874080800B7013708C33E860089
:1020DA0087013708B500B601330784003608343D56
:1020EA00850000088C31D524903181001830B70A58
:1020FA003702031808006A28F10086209031710817
:10210A00B728F0009F2821008D1718308E04080088
:10211A0021008E16080021000E16080021008D17D6
:10212A00080021008E16080021000E160800210062
:10213A008D1708007008003A03198D28013A03190F
:10214A009028033A03199328013A03199628073A63
:10215A0003199928013A03199C28FA3A031988287D
:10216A00B6280800F000EA2821008D1320008D13FC
:10217A00CF3021008E0520008E05080008210E129E
:10218A0020000E12080008218E1220008E1208006C
:10219A00E73021008E0520008E120E16080002215B
:1021AA000E1220000E16080002218E1220008E1632
:1021BA000800E73021008E0520008E160E12080056
:1021CA00183021008E040E1608007008003A031910
:1021DA00C328013A0319C828033A0319CD28013A3A
:1021EA000319D428073A0319D928013A0319DE2812
:1021FA00FA3A0319B928E528080021008D132000AE
:10220A008D132100080021008D1320008D17210055
:10221A000800B401B40A8B1325279131B3012D2983
:10222A00643033020318302921000E1020000E10EA
:10223A00AE01AE0AAF016D23913121000E14A82719
:10224A0091316D23913100300E180130B400B30A78
:10225A003408031D1529C6268B1734080800F030E8
:10226A008400223085000130FE01FF008F31F22701
:10227A0091315130F701F801F901FA018400003077
:10228A0085001130FE00FF018F31F2279131C330F2
:10229A008400003085001830FE00FF018F31F227DC
:1022AA00913121000130DB00DC01DD01DE01220079
:1022BA006030B9004730BA000030BB01BC01BD0133
:1022CA00BE01BF01C001C101C2017E1020006D29FB
:1022DA002100C2018F3187279131C6269131C4214D
:1022EA0091310030A32191311B2791310630B22759
:1022FA009131812391319629C42191310030F8011D
:10230A00FA01FA0AA32191310330B22791318123CC
:10231A0091312100C2019629FA013B26913121000F
:10232A00C2007808031D81297A08031D912921001A
:10233A00420803199629D82791319629AE00AF0190
:10234A002F08513E8600870101082E060319BE296F
:10235A000330AF0A2F060319BE29A5292F08513EBB
:10236A00860087012F08503E8400850100088100FD
:10237A00AF032F08031DB3292E08D10008008B13C1
:10238A00A82791316D239131472391312000BF0055
:10239A00C001C00A3F08B8004008DD219131200081
:1023AA00BF000430C00A4002031CCF298B17080063
:1023BA00BE00CD279131003A03190B2A013A0319BD
:1023CA00012A033A0319F729013A0319ED290B2ABD
:1023DA0075279131011C0314492791310110031DFE
:1023EA000114462A75279131811F03144927913117
:1023FA008113031D8117462A75279131011F031482
:10240A00492791310113031D0117462A3E08573EF9
:10241A008600FF30870181063E08672391314723F2
:10242A0091312000BC0029279131803C031D1F2ACD
:10243A0039083C02031C2B2A200029279131803CB1
:10244A00031D292A39083802031C432A200032278F
:10245A009131BB0080303B02031D352A3C0839020A
:10246A00031C462A200032279131BB0080303B02F0
:10247A00031D412A380839020318462A20003E085B
:10248A00AA2A20003E086723913147239131200070
:10249A00BC003D080319662A29279131803C031D97
:1024AA00582A39083C02031C7D2A20002927913129
:1024BA00BB0080303B02031D642A38083902031C22
:1024CA007D2A20003D08031D732A32279131803C62
:1024DA00031D712A39083C0203187D2A200032277D
:1024EA009131803C031D7B2A390838020318A72A38
:1024FA006A27913144312000B9003E0A852AB9354C
:10250A00890B842A3908FF3A81056A2791314531B6
:10251A00B9003E0A912AB935890B902A3908FF3A3F
:10252A0081056A2791314331B9003E0A9D2AB9359E
:10253A00890B9C2A3908FF3A81053E08543E8600D9
:10254A008701810120003C080800B700573E860039
:10255A00FF30870181003708672391314723913182
:10256A002000B5003708573EB727913167239131CC
:10257A00472391312000B600153EB20000300318FF
:10258A000130B300803A803C031DCD2A320835025F
:10259A000318D22A2000360808002000350836071A
:1025AA00B200B301B30D330DB30CB20C3208B40050
:1025BA003708573E86008030870181008E27913187
:1025CA000319402B370867239131472391312000A3
:1025DA003402031C262B362B3708543E8600033060
:1025EA00870181006A2791314431B200370AFE2AF5
:1025FA00B235890BFD2A232B3708543E8600F0306A
:10260A0087018101810A8600223087000130433127
:10261A00B200370A112BB235890B102B232B37083E
:10262A00543E86000230870181006A279131453184
:10263A00B200370A212BB235890B202B32088104CC
:10264A00322B8E279131013A0319F12A413A0319A3
:10265A00012BC03A0319142B322B3708A3219131CD
:10266A00402B3708573E860087013708573E8400BB
:10267A0085010036E22A3708573EB727913167238A
:10268A009131472B2400951220008E13AE01AE0A19
:10269A00AF016D23913121008E1723008E17603010
:1026AA0021009E0025309D00A82791316D2391318C
:1026BA0021009D149D185F2B23008E1321008E1379
:1026CA001C080800B100AE00310899279131CF2EBD
:1026DA002E082F0403190800CA30B0000130B100D7
:1026EA00B0020030B13B300831040130031D752BB4
:1026FA00AE020030AF3B6D2B05082200A100040892
:10270A00A00021003E0885003D088400FF3020001B
:10271A00DB00200000082200AF00840A0319850AA2
:10272A00F0302F052100BF00103A031DA92D20000B
:10273A000008DD2591312200B800840A0319850AB0
:10274A0020000008DD2591312200B7003B27913196
:10275A00B5000408013E2100BF000030053DC0005D
:10276A003F082200B200210040082200B300192CC1
:10277A003808B0003708B005262C38083704142C5E
:10278A0038083707142C37083802142C3708200069
:10279A00AE00220038088B31D02391310B2C370838
:1027AA002000AE0022003808572691310B2CA801D0
:1027BA0038080319E52B37080319E52BA801A80ADD
:1027CA002808142C3808EF2B3808031DEE2B01308B
:1027DA00EF2B00303706142C3808803A2100BF004E
:1027EA0022003708803A2100BF02031C082C0A2C59
:1027FA003708803A2100BF0022003808803A2100B9
:10280A00BF02031C0A2C01300B2C00302200142CAE
:10281A0038083706031D132C0130142C0030B00081
:10282A00262CCA30A90008002F08F03E031C162CDB
:10283A0084000D3004020318162C90310435003E32
:10284A00820030089E279131E52591312200702CB3
:10285A000508F32591310408F32591312000000879
:10286A002200A4003B279131A500240885002508F1
:10287A00732C642791310319850A20000008BC00D3
:10288A0022003508E5259131840A0319850A8E2B21
:10289A00200000082200A2003B279131B600840ADA
:1028AA000319850A872C94279131AA002B3020001E
:1028BA00B9000130BA0022003608DD258A317322B8
:1028CA0091312A302100BB000130BC000826913129
:1028DA002B2CAD27913133088500320884008E2BCA
:1028EA00AD279131822691313A08BC002200360880
:1028FA00292C21088500200884003608DD252200BD
:10290A00A90008002208003A03197E2C013A03198B
:10291A006E2C033A0319582C013A0319752C8E2B85
:10292A00200000082200A300840A0319850AC72C84
:10293A00942791312000DB02F130C9002230CA000D
:10294A005B08C9070318CA0ABC2691310330F3256C
:10295A0091312B2C0508B3000408B2002000F03096
:10296A00DB0A2100BB002230BC0020005B082100EA
:10297A00BB070318BC0A082691315B08422791312C
:10298A00DB072B2C2308013A0319AF2C033A03194E
:10299A009D2CDC2D642791310319850A0326913178
:1029AA00BC0022003508E52591318E2B5F27913135
:1029BA00A3279131DD259131F32591318E2B7B2788
:1029CA009131840A0319850A032691312200B10044
:1029DA003408F03E2100BF002230C001C03D3F084C
:1029EA008600400887002200310881003108031957
:1029FA008E2BB40A032691312100BF00220034082D
:102A0A00F03E2100C0002230C101C13D40088600CD
:102A1A00410887003F0881002200B103FB2C7B2775
:102A2A009131840A0319850A340842279131B10089
:102A3A0034083107AE0034082E02031C8E2B2E08F0
:102A4A0042279131F325913122002E0803198E2B4A
:102A5A00AE03202D5F2791313B279131B500A32783
:102A6A009131DD2591312200B800B81F4F2D380869
:102A7A002100BF00C001BF1BC003BF09C009BF0AB4
:102A8A000319C00A3F082200A600210040082200BC
:102A9A00A700542D3808A600A701A61BA7032608DD
:102AAA009E279131E52591318E2B642791310319A7
:102ABA00850A802791319E279131E52591318E2B08
:102ACA005F279131A3279131DD2591312100BF0084
:102ADA00F1308600223087003F0881008E2B802744
:102AEA00913103198E2B033084070318850A8E2B24
:102AFA007B2791313B279131B6003B279131B500B5
:102B0A00840A0319850A51302F06031D992D3508A9
:102B1A00DD259131BC0022003608DD2591312200E5
:102B2A003407E52591318E2B3608DD2591312200B7
:102B3A003407DD259131BC0022003508E5259131A5
:102B4A008E2BC130A900080022002F08003A031971
:102B5A00DC2D053A03194D2C033A0319952C0E3A2C
:102B6A0003193E2C023A0319DB2C013A0319CF2C24
:102B7A00073A03192F2D013A0319E42C033A0319D2
:102B8A00142D3E3A03195A2D013A0319652D713A4B
:102B9A000319742D103A03197D2D013A03197D2D5D
:102BAA00313A0319332C013A03192D2CA62D8E2BF9
:102BBA002000AE002E08031900342E084227080010
:102BCA002000BF00F03EBD002230BE01BE3D3D08E0
:102BDA0086003E0887003C08810008002000B000FB
:102BEA005B08F03EAE002230AF01AF3D2E088600F2
:102BFA002F08870030088100DB0308002000DB0A69
:102C0A005B08422708003B086F2791317D3E031875
:102C1A00102E8A31562A3B086F2791317A3E3B089B
:102C2A000318212E013E2000CE00003021003C3D39
:102C3A002000CF008A31D42A6F279131683E3B08A1
:102C4A000318312E013E2000CE00003021003C3D09
:102C5A002000CF008B316D2B013E2000B3000030E5
:102C6A0021003C3D2000B400903169282000AE01CB
:102C7A00AE0AAF012F08C33E860087010108031977
:102C8A00502E2F08C33E86002F08C33E84008501BC
:102C9A0000368100AE011830AF0A2F02031C3F2E06
:102CAA002E0808002000B200B001AE1F602EAE0947
:102CBA00AE0AB001B00AB21F662E0130B209B20ADA
:102CCA00B006B1012E0803197B2EAF01AF0AAE1B65
:102CDA00702EAE356B2EB1352E083202031C782EBB
:102CEA002E08B2023114AE36AF0B702E300803191B
:102CFA00802EB109B10A3108080041302000B10024
:102D0A00C630B0004E30AF006D30AE0021005E0814
:102D1A002000B50021005D082000B40021005C08F5
:102D2A002000B30021005B082000B2008F31CD27BC
:102D3A0031082100DE00200030082100DD002000DB
:102D4A002F082100DC0020002E082100DB0039308A
:102D5A00DB073030DC3D0030DD3DDE3D5E08200023
:102D6A00BB0021005D082000BA00BB1308004B30ED
:102D7A008D31F52591314A08C7004908C6004B3004
:102D8A00F42FFF302000AE000030CF269131872784
:102D9A009131BC2FAF00522791312F0824009100A6
:102DAA002000B0010A2F03108C1E0314031CE02E0E
:102DBA0020008C16052F20008C12052F03108E1D63
:102DCA000314031CEB2E20008E15052F20008E11F4
:102DDA00052F03100E1D0314031CF62E20000E15DA
:102DEA00052F20000E11052F03108C1E0314031C3F
:102DFA00012F20008C16032F20008C120C308E0617
:102E0A000230B00A30020318192F2E08013A0319AA
:102E1A00D82E033A0319E32E013A0319EE2EFC3A8F
:102E2A000319F92E052F052F8E1308000E21913153
:102E3A00003A0319242F25279131D2279131272FC0
:102E4A008F31742F640008003808153EB90000302D
:102E5A0003180130BA00803A08003808EB3EB9007E
:102E6A00FF3003180030BA00803A0800840A0319B8
:102E7A00850A2000000822000800F03E8600223061
:102E8A008701873D01080800003003180130BD00A2
:102E9A003E08573E86003D08080021008C120D139B
:102EAA0073308E05303024009500941714132000D7
:102EBA0091110800200000082200B6000800200036
:102ECA0000082200B500840A0800F030860022308B
:102EDA008700013486003C0887000108803A080010
:102EEA003E08573E860087010310080020000008AC
:102EFA002200B4000800F0308600223087004131F9
:102F0A00010808008C168E150E150E17240095164A
:102F1A0008003708573E860087010108080005089F
:102F2A00B3000408B2000334573E86008701010843
:102F3A0008002000BC00220035080800840A031992
:102F4A00850A360808002000AE01AE0AAF01080063
:102F5A000508B3000408B20008002100BD0098303B
:102F6A00BE0008008600870181013708080020009A
:102F7A00B201B20A3208CD2791310319C72F32089C
:102F8A00672391310430B20A320203180800BF2FB6
:102F9A00543E86008701010808008F31822791314B
:102FAA0080311C28080017082000B5008B1325273C
:102FBA0091311430FA01FA0AF801F80A210097004F
:102FCA000B11200011106300200035082100970022
:102FDA00C62691318B17CE30970096011B2FC80059
:102FEA004708BA004608B9001A30BB009030BC0046
:062FFA0048088B31182B82
:020000040001F9
:04000E00FCCFCFDB79
:00000001FF
