:041208008A31932A6A
:101210007E1489312000111C1829CE3097009601C8
:101220008D31DF258931FA01FA0A20001110912A47
:101230000B1D912A613095005E08AB000330AB05B1
:101240005E08AA00FC30AA0503302B020630031802
:10125000792AF0002B08903152208931A900CB3E29
:10126000860087010108F700F801F71BF8037808EA
:10127000803A803C031D3E2977082A020318422940
:101280000130432900302000A6002908CC3E86000A
:1012900087010108F700F801F71BF8037808803A86
:1012A000803C031D552977082A020318592901306B
:1012B0005A2900302000A7002908CD3E860087016A
:1012C0000108F700F801F71BF8037808803A803C22
:1012D000031D6C2977082A0203187029013071292F
:1012E00000302000A8002908CE3E860087010108B2
:1012F000F700F801F71BF8037808803A803C031DDB
:10130000832977082A0203188729013088290030A9
:101310002000A3002908CF3E860087010108F700BE
:10132000F801F71BF8037808803A803C031D9A29DE
:1013300077082A0203189E2901309F2900302000D7
:10134000A4002908D03E860087010108F700F801B3
:10135000F71BF8037808803A803C031DB129770811
:101360002A020318B5290130B62900302000A50053
:101370002B08573E86008701010BCD292B085A3ECA
:10138000860023080112031D01162B085A3E860011
:1013900026080110031D0114E3292B08573E86007F
:1013A000033087010106031D002A2B085A3E8600E0
:1013B00023080112031D01162B085A3E8600260839
:1013C0000113031D01172B085A3E860027088110C0
:1013D000031D81142B085A3E860024088111031D29
:1013E00081152B085A3E860025080111031D0115A1
:1013F0002B085A3E860028088112031D81163F2AB9
:101400002B08573E8600023087010106031D3F2A44
:10141000A001A00A2608031D112A2308031D112A72
:10142000A0012008A600A101A10A2708031D1C2A6B
:101430002408031D1C2AA1012108A700A201A20A59
:101440002808031D272A2508031D272AA201220890
:10145000A8002B085A3E8600870126080110031DAC
:1014600001142B085A3E860027088110031D8114A1
:101470002B085A3E860028080111031D01152B0870
:10148000013E8E313C268931882A04306202031CD9
:101490005C2A5F0890319B20893104302000E202F1
:1014A0006302031C5A2A61089031D120893104302B
:1014B0002000E302E00A7C2AFF309031D1208931FC
:1014C00020000630DF0AF0005F08013E90315E2008
:1014D0008931E1006308E2000630F0005F08013E58
:1014E00090315E208931C53E860087010108E30006
:1014F00006305F02031C452A06305F06031D882A5A
:101500003F306002031C872AE001DF01882AE00ADD
:10151000FE3020005E06031D8F2AFC01FC0ADE0A55
:101520000B117E1009009231D22AC6004508B8007E
:101530004408B7001A30B9009030BA0046082C2C85
:10154000B22A4D08BF004C08BE00C530C0007D2344
:101550008A31E12ACE01C02ACE01CE0AC02A023049
:10156000CE00C02A5308003A0319A12A013A0319F0
:10157000AA2A033A0319AC2A013A0319AF2AC02A4E
:10158000E1228A314E0825258A31031DD42A4D08CF
:10159000B0004C08AF000630AC004E089531D025A5
:1015A0008A31CB3EB100D02C4D08BF004C08BE00A4
:1015B0000630AC004E089531D0258A31CB3EC000B4
:1015C0007D2B5308AC00AD012D0835258A31031958
:1015D000F12A2D08533E86001E258A31AD0AE42AE1
:1015E000AD0A2D08533E860087011E258A312D083D
:1015F000533E860001080319012B03302D02031C02
:10160000F02A2D08533E860087012C08810008002F
:101610004D08BF004C08BE00A730C0007D238A31B2
:101620002100C001400825258A31031D4A2BBF0136
:1016300006302000AC00210040089531D0258A31C9
:10164000A73E21003F07A000063E860087013F0815
:10165000A100A2010F258A3181248A3131084C076B
:101660002100A300200032084D3D2100A4002108E4
:101670002307A5002208243DA6002508840026088B
:1016800085000331000881000330BF0A3F020318C0
:10169000712B182B20004D08BF004C08BE00210004
:1016A0000F258A31812431082100A0002000320852
:1016B0002100A10020082000BE07210021082000F1
:1016C000BF3D0330BE070318BF0A0630AC0021003F
:1016D00040089531D0258A31063EA73EC0007D23C3
:1016E0008A3121000330C00A4002031C122BA730AC
:1016F0002000AC000030AD00BB2CCB0130258A317E
:1017000014248A31FE248A31031D8E2B2B258A3125
:1017100014248A31FE248A310319DA2B4B0840073E
:10172000C100860003308701AC004B08013E142441
:101730008A3107258A310008C4002B258A311424F8
:101740008A31C500C6013E07840046083F3D85003A
:1017500044080007B700B8010318B80AC41BB8034F
:10176000801BB80320004B08C700C8013E07840057
:1017700048083F3D85000008B100B201B11BB2032B
:1017800030258A3114248A31C900CA013E078400F9
:101790004A083F3D85000008B300B401B31BB40301
:1017A00081248A313208BA003108B90096248A317E
:1017B0003708E32B4B084007C100860087014B0820
:1017C00007258A31003781004B084007C100033EDE
:1017D000860087014B084007C2008400850100088D
:1017E000C3004B08C400C5013E07840045083F3DC7
:1017F00085000008C6004308460281000330CB0A7A
:101800004B02031C7E2B40088600443FCB0040085F
:10181000043E8600400A8400850100088100400AD9
:1018200086004B0881000800AE000830AF00B00110
:101830002E08AD000730AD36890B1B2C30352D043A
:10184000B000AE352C083002031C282C2C08B00246
:10185000AF0B182C30080800C200C30142088600F4
:1018600087010108B100B201B11BB2033A08BC0004
:101870003908BB0043083B0784003C0803183C0AB6
:1018800085000008B300B401B31BB40381248A317E
:101890003208C1003108C000420A8600E5248A31BE
:1018A0000330F4248A31B31BB40381248A31310814
:1018B000C0073208C13D4208023E8600E5248A3155
:1018C0000630F4248A31B31BB40381248A313108F1
:1018D000C0073208C13D4108BB004308BC00BD0140
:1018E0003707BE003D08383DBF003E0886003F0870
:1018F00087003B0881000330C30A43020318080035
:101900002E2CB501B601311C892C3308B5073408DB
:10191000B63DB335B40DB236B10C31083204031DF7
:10192000832C3608B2003508B1000800BC01BD01A7
:10193000370838040319B62CBB01BB0AB81BA32C0B
:10194000B735B80D9D2CBC35BD0D38083A02031DC6
:10195000AB2C37083902031CB22C3708B9023808FF
:10196000BA3B3C14B836B70CBB0BA32C3D08B800EF
:101970003C08B7000800B0013008C53E860087016A
:101980003008AE00AF012C0784002F082D3D8500E4
:10199000000881001830B00A300203180800BC2C7F
:1019A000310817258A3100088100310A86002F0886
:1019B0008400300885000131000881003108023EB2
:1019C0001725023100088100080087010108B100D5
:1019D000B201B11BB2034308BB00BC013907BD0013
:1019E0003C083A3DBE0008003D0784003E0803184D
:1019F0003E0A85000008B300B4010800C100C2011E
:101A00003E07860042083F3D870001080800C200EB
:101A1000C3013E07840043083F3D8500080040089D
:101A20002000B1000330B201B300B4010800860009
:101A300087012F0884003008850008002D08543ED7
:101A400084008501000881000800573E86000230AE
:101A50008701010608000330AC004B08023E080075
:101A60000330AC004B08013E0800533E860087015E
:101A70000108080000308B1B01302000B10021005C
:101A800017082000B4008B13A5258D31FC01FC0A3A
:101A9000FA01FA0A210017081438D53997000030E6
:101AA0000B1901302000B2000B1100301118013069
:101AB000B3001110630020003408210097002000BB
:101AC000311C642D8B17652D8B132000321C6A2D61
:101AD0000B156B2D0B112000331C712D20001114E0
:101AE000732D20001110CE3097009601A62D812570
:101AF0008D31003A0319802DA5258D31BC258D31FE
:101B0000C02D00308B1B01302000B200D9258D3153
:101B1000A5251430AC00AD01963124268D3121006D
:101B20000E149731B7278D31963124268D31003030
:101B30000E180130B100A6258D31321CA12D8B1756
:101B4000A22D8B13200031080800C22DD2258D3123
:101B5000A92D2000B001B00A3008973199278D31A6
:101B60000319B62D30089231CC228D310430B00AE1
:101B7000300203180800AC2D912680311C28080083
:101B80006400080021000D138E130E1320000D13A6
:101B90008E138E110E110E138C122400951220003C
:101BA0000D1308008C168E150E150E1724009516B1
:101BB00008008B1321000E1020000E100800EA25EB
:101BC0008D31003A0319E82D20268D3125268D31DF
:101BD0002926080000308B1B0130F600D9258D31F5
:101BE00020268D311430F000F1010C268D312100BA
:101BF0000E14F001F00AF1010C268D3100302000A6
:101C00000E180130F50021268D31761C092E8B1718
:101C10000A2E8B1375080800700871040319080058
:101C2000CA30F2000130F300F2020030F33B7208D8
:101C300073040130031D142EF0020030F13B0C2E12
:101C4000C22DD2258D312B260800912680311C28EB
:101C5000080064000800F401F40A74089731992719
:101C60008D310319362E74083C268D310430F40A68
:101C70007402031808002D2EF300F000730897314A
:101C8000A3278D3144260800F100E0268D3171082C
:101C900024009100F201822E031020008C1E0314F8
:101CA000031C552E20008C167D2E20008C127D2EBC
:101CB000031020008E1D0314031C612E20008E15BE
:101CC0007D2E20008E117D2E031020000E1D03148A
:101CD000031C6D2E20000E157D2E20000E117D2E72
:101CE000031020008C1E0314031C792E20008C1678
:101CF0007B2E20008C120C308E060230F20A72020B
:101D0000031808007008013A03194C2E033A03190E
:101D1000582E013A0319642EFC3A0319702E7D2EB9
:101D20007D2E8B130E1721000E130800AD00E02648
:101D30008D312D08240091002000AE01D12E03101A
:101D40008C1E0314031CA72E20008C16CC2E200002
:101D50008C12CC2E03108E1D0314031CB22E2000F7
:101D60008E15CC2E20008E11CC2E03100E1D0314C8
:101D7000031CBD2E20000E15CC2E20000E11CC2EE3
:101D800003108C1E0314031CC82E20008C16CA2EB0
:101D900020008C120C308E060230AE0A2E02031880
:101DA00008002C08013A03199F2E033A0319AA2EA2
:101DB000013A0319B52EFC3A0319C02ECC2ECC2EB5
:101DC00021008C120D1373308E05303024009500E5
:101DD0009417141320009111080049302727200080
:101DE0004808C5004708C40049308A31952AB80020
:101DF00038308600013087002E30840000308500A6
:101E00000A30AD0016001A00AD0B022F3808593EFB
:101E1000860087010108B7002400951620003808C5
:101E20007A278E31911D122FB901911139082E3E5A
:101E3000E8278E312000911D1A2F0A30B90A390285
:101E4000031C152F3808AD27240095120800BD008B
:101E500000308B1B0130BC009B278E31BE003E083A
:101E6000031908008B13952706302000AC00AD0144
:101E7000963124268E313E08AD0029305E278E3102
:101E80002000BB003D08E1278E312B305E278E31CC
:101E90002000BB003D0AE1278E312D305E278E31B8
:101EA0002000BB003D08023E860087013B08810000
:101EB0003C1C5C2F8B1708008B130800AE0024001D
:101EC000951620002D087A278E3191112E08803822
:101ED000240091002000911D6A2F91112D08593E78
:101EE000E8278E312000911D722F2D08AD27240088
:101EF00011080800AC00862F8C1208008E11080013
:101F00000E1108008C12F3308E0508002C08013ADF
:101F100003197C2F033A03197E2F013A0319802FEE
:101F2000FC3A0319822F942F0800BA00C8278E317B
:101F300020003A08F72EAC01AC0A2C08563E860069
:101F4000023087010106031DA72F2C08080004306A
:101F5000AC0A2C02031800349D2FAC00B92F8C164C
:101F600008008E1508000E1508008C160C308E0423
:101F700008002C08013A0319AF2F033A0319B12FB7
:101F8000013A0319B32FFC3A0319B52FC72F0800E4
:101F9000B00021000D1620003008593E8600870150
:101FA00001133008593E8600811530089231CC2249
:101FB0008E313008AD27240094171413303095006B
:101FC0000800860087013B0881003E08AD0008003C
:101FD0008600870101082400910008006400013098
:101FE00080010131FE020030FF3B7F087E040319AF
:041FF0000034EF2F9B
:102000009331862B93318B2B93318E2B9331912BE4
:102010009331942B93319C2B9331EE2B9331A42B42
:102020009331AF2B9331B12B9331B92B9331C52B16
:102030009331D52B00346A34963485343D343D34A5
:06204000573457345734F9
:1020A400F200F10170087218F107F035F236720887
:1020B400031D542871080800F2000830F300F401ED
:1020C4007208F1000730F136890B65287435710404
:1020D400F400F23570087402031C72287008F402CC
:1020E400F30B622874080800B401B501B601B70106
:1020F4002C1C84283008B4073108B53D3208B63D9D
:102104003308B73DB035B10DB20DB30DAF36AE0CDB
:10211400AD0CAC0C2F082E042D042C04031D7A28BE
:102124003708AF003608AE003508AD003408AC00FF
:102134000800F100A02090317108D128F000B928DE
:1021440021008D1718308E04080021008E16080017
:1021540021000E16080021008D17080021008E169C
:10216400080021000E16080021008D1708007008D1
:10217400003A0319A728013A0319AA28033A0319B4
:10218400AD28013A0319B028073A0319B328013AD4
:102194000319B628FA3A0319A228D0280800F00037
:1021A400042921008D1320008D13CF3021008E05CA
:1021B40020008E05080022210E1220000E120800B5
:1021C40022218E1220008E120800E73021008E0595
:1021D40020008E120E1608001C210E1220000E166E
:1021E40008001C218E1220008E160800E730210002
:1021F4008E0520008E160E120800183021008E0461
:102204000E1608007008003A0319DD28013A031974
:10221400E228033A0319E728013A0319EE28073A9A
:102224000319F328013A0319F828FA3A0319D328B1
:10223400FF28080021008D1320008D1321000800C1
:1022440021008D1320008D1721000800FB2638087B
:1022540003398D3135259131AE259131FB269131EC
:1022640038082100A000A2302000B7000030B800D8
:10227400210020087F26A230CC000030CD008A3116
:10228400A02ABC0099279131003A03197129013A17
:1022940003196729033A03195D29013A03195329DC
:1022A40071297A279131011C0314462791310110B9
:1022B400031D0114AA297A279131811F031446278B
:1022C40091318113031D8117AA297A279131011FA6
:1022D4000314462791310113031D0117AA293C0851
:1022E400593E8600FF30870181063C08CC2291319B
:1022F400B52291312000BA003C279131031D842975
:1023040037083A02031C8F2920003C279131031D12
:102314008D2937083602031CA72920004F27913145
:10232400B90080303902031D99293A083702031C89
:10233400AA2920004F279131B90080303902031DAA
:10234400A529360837020318AA2920003C080D2ABB
:1023540020003C08CC229131B52291312000BA00F2
:102364003B080319BD293C279131031DBB293708BC
:102374003A02031CF72920003B08031D0A2A4F27B1
:102384009131803C031DC82937083A020318F72904
:102394000A2A752791314431B700B8013C0AD4297F
:1023A400B735B80D890BD229EE29752791314531FE
:1023B400B700B8013C0AE029B735B80D890BDE290E
:1023C400EE29752791314331B700B8013C0AEC2955
:1023D400B735B80D890BEA2937083804031DF429E9
:1023E4000130F52900308105052A20003C08992791
:1023F4009131013A0319E329033A0319D729013A20
:102404000319CB29052A3C08563E86008701810121
:1024140020003A080800B500593E8600FF308701C5
:1024240081003508CC229131B52291312000B300CE
:102434003508593E8600870181013508CC22913147
:10244400B52291312000B400153EB00000300318CD
:102454000130B100803A803C031D322A3008330237
:102464000318372A200034080800200033083407F2
:10247400B000B101B10D310DB10CB00C3008B20097
:102484008D279131810A932791310319AF2A350899
:10249400CC229131B522913120003202031C942ABE
:1024A400A42A3508563E860003308701810075272B
:1024B40091314431B000350A602AB035890B5F2A66
:1024C400300881043508FF3EAE259131A02A350835
:1024D400563E8600F03087018101810A8600223051
:1024E400870001304331B000350A792AB035890BB1
:1024F400782A30088104A02A3508563E8600023026
:10250400870181000130B000350A892AB035890B72
:10251400882A3008B100F53086002230870031085F
:102524008100A02A93279131013A0319532A413A91
:102534000319692AC03A03197E2AA02A3508AE2550
:102544009131AF2A3508593E860087013508593E36
:102554008400850100358100452A8D279131350895
:10256400CC229131B52A21008E1723008E176030BA
:1025740021009E0025309D00B727913124269131FA
:1025840021009D149D18C42A8E1323008E1321004C
:102594001C080800AF00AC002F08A3278E31962E2C
:1025A400F0308400223085000130FE01FF008F31BD
:1025B400EE2791315330F901FA01FB01FC0184004B
:1025C400003085001130FE00FF018F31EE2791317C
:1025D400C5308400003085001830FE00FF018F31C3
:1025E400EE27913121000130DD00DE01DF01E00141
:1025F40022006030B8004730B9000030BA01BB0196
:10260400BC01BD01BE01BF01C001C1017E1020009B
:102614000B2B2100C401C1279131DD2591310030FC
:10262400AE2591310630D1009830D2004B23913140
:102634003A2BFB0120009830D101D2004B23913179
:102644003A2BDD258D31772591310030FA01FC01DB
:10265400AE2591310330D1009830D2004B23913113
:102664002100C4013A2BFC01382691312100C40019
:102674007B08031D1B2B7A08031D232B7C08031DD9
:10268400352B2100440803193A2B8D313A25913119
:102694003A2B05082200A1000408A00020005208DB
:1026A400850051088400FF30DD002000000822006E
:1026B400AF00840A0319850AF0302F052100C100F8
:1026C400103A031D522D2000000883259131220069
:1026D400B700840A0319850A200000088325913174
:1026E4002200B60035279131B4000408013E2100D0
:1026F400C1000030053DC20041082200B2002100A3
:1027040042082200B300E12B3708B0003608B005B8
:10271400EE2B37083604DC2B37083607DC2B36085B
:102724003702DC2B36082000AC0022003708D02505
:102734009131D32B36082000AC00220037085426F0
:102744009131D32BA80137080319AD2B360803198F
:10275400AD2BA801A80A2808DC2B3708B72B3708AB
:10276400031DB62B0130B72B00303606DC2B37089F
:10277400803A2100C10022003608803A2100C102BB
:10278400031CD02BD22B3608803A2100C100220032
:102794003708803A2100C102031CD22B0130D32B0D
:1027A40000302200DC2B37083606031DDB2B0130FA
:1027B400DC2B0030B000EE2BCA30AD0008002F082F
:1027C400F03E031CDE2B84000D3004020318DE2BC4
:1027D40090310435003E82003008AD2791318B25BD
:1027E40091312200372C0508992591310408992547
:1027F4009131200000082200A40035279131A50062
:102804002408850025083A2C682791310319850A84
:1028140020000008BA00220034088B259131840A74
:102824000319850A572B200000082200A20035272F
:102834009131B500840A0319850A4E2C9E279131E3
:10284400A9002A302000B7000130B8002200350862
:10285400832591317F2691312930CF000130D0007A
:10286400FB259131F32BBC279131330885003208C5
:102874008400572BBC279131FB2691313808BA00CC
:1028840022003508F12B2108850020088400350832
:1028940083252200AD0008002208003A0319452CC4
:1028A400013A0319352C033A0319202C013A031970
:1028B4003C2C572B200000082200A300840A031993
:1028C400850A8B2C9E272000DD02F130C7002230C0
:1028D400C8005D08C7070318C80A8E31ED26913178
:1028E400033099259131F32B0508B3000408B20095
:1028F4002000F030DD0ACF002230D0005D08CF0781
:102904000318D00AFB2591315D086E279131DD074C
:10291400F32B2308013A0319762C033A0319642C88
:10292400822D682791310319850AA9259131BA00AE
:10293400220034088B259131572B63279131B2271C
:1029440091318325913199259131572BA8279131C4
:10295400840A0319850AA92591312200AE003108A1
:10296400F03E2100C1002230C201C23D4108860070
:102974004208870022002E0881002E080319572BD5
:10298400B10AA92591312100C10022003108F03E8D
:102994002100C2002230C301C33D4208860043081F
:1029A4008700410881002200AE03BF2C63279131C8
:1029B40035279131B400B22791318325913122001A
:1029C400B700B71FF82C37082100C100C201C11B92
:1029D400C203C109C209C10A0319C20A410822007B
:1029E400A600210042082200A700FD2C3708A600FB
:1029F400A701A61BA7032608AD2791318B2591318A
:102A0400572B682791310319850A86279131AD2701
:102A140091318B259131572B63279131B227913115
:102A2400832591312100C100F130860022308700D6
:102A340041088100572B862791310319572B033006
:102A440084070318850A572BA8279131352791311C
:102A5400B50035279131B400840A0319850A513031
:102A64002F06031D422D340883259131BA0022001C
:102A7400350883259131220031078B259131572B5D
:102A84003508832591312200310783259131BA001D
:102A9400220034088B259131572BC130AD0008003A
:102AA40022002F08003A0319822D053A0319152C28
:102AB400033A03195C2C0E3A0319062C023A031943
:102AC4009F2C013A0319932C073A0319D82C013A85
:102AD4000319A82C3D3A0319032D013A03190E2DAD
:102AE400713A03191D2D103A0319262D013A0319C1
:102AF400262D313A0319FB2B013A0319F52B4F2DDF
:102B0400572B2000AC002C08031900342C086E2726
:102B140008002000BD00F03EBB002230BC01BC3DDB
:102B24003B0886003C0887003A0881000800200022
:102B3400AE005D08F03EAC002230AD01AD3D2C0886
:102B440086002D0887002E088100DD030800200080
:102B5400DD0A5D086E2708002000AC00AD012D08D9
:102B6400533E8600870101082C060319CA2D033041
:102B7400AD0A2D060319CA2DB12D2D08533E86002A
:102B840087012D08523E8400850100088100AD03B1
:102B94002D08031DBF2D2C08D30008002000AE0013
:102BA400AD012C082E18AD07AC35AE362E08031D2A
:102BB400D32D2D08080000308B1B01302000BD00F0
:102BC4008B13B52291312000BE00BF01BF0A3E081D
:102BD400B6003F08432191312000BE000430BF0AF3
:102BE4003F02031CE92D3D1CF92D8B1708008B13A4
:102BF40008004F08802791317D3E0318022E2829B2
:102C04004F08802791317A3E4F080318102E013E59
:102C1400CC000030503DCD008A31A02A802791316C
:102C2400683E4F0803181D2E013ECC000030503D75
:102C3400CD008B31082B013EAC000030503DAD007F
:102C44008C31BB2C2C082D0403190800CA30AE00AB
:102C54000130AF00AE020030AF3B2E082F0401302C
:102C6400031D2C2EAC020030AD3B242E2000AC0101
:102C7400AC0AAD012D08C53E860087010108031981
:102C84004D2E2D08C53E86002D08C53E84008501C5
:102C940000368100AC011830AD0A2D02031C3C2E15
:102CA4002C0808002000B000AE01AC1F5D2EAC095A
:102CB400AC0AAE01AE0AB01F632E0130B009B00AEF
:102CC400AE06AF012C080319782EAD01AD0AAC1B7A
:102CD4006D2EAC35682EAF352C083002031C752ED2
:102CE4002C08B0022F14AC36AD0B6D2E2E08031930
:102CF4007D2EAF09AF0A2F0808002000BD00553013
:102D0400AC003D088C3114249131D63EE126BC0040
:102D1400B100FA30B201B300FF30B4008C31812429
:102D240091313108FF3EB9000030323DBA003A0D0E
:102D3400BA0CB90C3908BE002B303D020318A82E7A
:102D44007F30BF003E08C000C101CF2E55303D0288
:102D54000318B02E3E08BF007F30A52E80303D0200
:102D64000318B92E7F30BF01C0003E08C12EAB301E
:102D74003D020318C32EBF013E08C0007F30C100CE
:102D8400CF2ED5303D020318CB2E3E08BF00C00124
:102D9400C02E7F30BF00C001B72E37088600380828
:102DA40087003F0881004008B9003708013E5827D2
:102DB40091314108B9003708023E58270800B00095
:102DC400803A7F3E30080318F52EAC00AD01AC1BF1
:102DD400AD03AC09AD09AC0A0319AD0A2C08AE0069
:102DE4002D08AF00F92EAE00AF01AE1BAF032E08C5
:102DF400080041302000AF00C630AE004E30AD00B8
:102E04006D30AC00210060082000B30021005F0891
:102E14002000B20021005E082000B10021005D08FE
:102E24002000B000903176202F082100E00020001F
:102E34002E082100DF0020002D082100DE002000E4
:102E44002C082100DD003930DD073030DE3D003054
:102E5400DF3DE03D60082000B90021005F0820004C
:102E6400B800B9130800840A0319850A2000000871
:102E7400220008003608153EB70000300318013060
:102E8400B800803A803C0800003003180130BB00D1
:102E94003C08593E86003B0808003608EB3EB70064
:102EA400FF3003180030B800803A0800BA00003040
:102EB400383DBB003A0886003B088700390881008A
:102EC4000800200000082200B500080020000008C7
:102ED4002200B400840A0800F03E860022308701F4
:102EE400873D01080800F030860022308700013455
:102EF4003C08593E860087010310080086005008EC
:102F040087000108803A0800F030860022308700EC
:102F14004131010808003508593E860087018101C6
:102F240008003508593E8600870101080800563E0E
:102F340086008701010808000508B3000408B200F0
:102F44000334593E86008701010808002000000868
:102F54002200B10008002000BA0022003408080052
:102F6400840A0319850A350808002000AC01AC0A5C
:102F7400AD0108000508B3000408B2000800E52705
:102F8400913123008C018D018E01DD279131ED27D4
:102F9400F030860022308700F03044318101860011
:102FA40022308700F03043318101860022308700CF
:102FB40045318101080021008D160E1320000E17E3
:102FC40024008C1108003C3099041908FC3902389B
:102FD400990099130800C030210095055A3020004B
:102FE4009500C130990001309800CE30970021003F
:0C2FF40011140B08E038EF398B000800C6
:020000040001F9
:04000E00FCCFCFDB79
:00000001FF
