:041208008A31542AA9
:101210007E1489312000111C1829CE3097009601C8
:101220008D31C5258931F901F90A20001110522AA2
:101230000B1D522A613095005C08AD000330AD05EE
:101240005C08AC00FC30AC0503302D0206300318FE
:101250003B2AF0002D0890311D208931AB00C93E9A
:101260008600870101082C0203183829013039292A
:101270000030A8002B08CA3E8600870101082C0216
:1012800003184429013045290030A9002B08CB3E22
:101290008600870101082C020318502901305129CA
:1012A0000030AA002B08CC3E8600870101082C02E2
:1012B00003185C2901305D290030A5002B08CD3EC4
:1012C0008600870101082C0203186829013069296A
:1012D0000030A6002B08CE3E8600870101082C02B4
:1012E00003187429013075290030A7002D08553ED8
:1012F00086008701010B8B292D08583E86002508A2
:101300000112031D01162D08583E86002808011001
:10131000031D0114A1292D08553E860003308701C5
:101320000106031DBE292D08583E8600250801121E
:10133000031D01162D08583E860028080113031DC1
:1013400001172D08583E860029088110031D8114BD
:101350002D08583E860026088111031D81152D0891
:10136000583E860027080111031D01152D08583E1F
:1013700086002A088112031D8116FD292D08553E7D
:101380008600023087010106031DFD29A201A20A81
:101390002808031DCF292508031DCF29A2012208F3
:1013A000A800A301A30A2908031DDA292608031DA2
:1013B000DA29A3012308A900A401A40A2A08031D0D
:1013C000E5292708031DE529A4012408AA002D0802
:1013D000583E8600870128080110031D01142D08BE
:1013E000583E860029088110031D81142D08583E9F
:1013F00086002A080111031D01152D08013E8E31BA
:10140000852689314A2A60080319242A5D0890310B
:101410007E2089312000E00361080319152A5F0846
:101420009031B42089312000E1035E0F1B2AFF3088
:10143000A000A101212A5E08A000A101A00A0319B1
:10144000A10A2008DE003E2AFF309031B420893105
:1014500020000630DD0AF0005D08013E90312920B1
:101460008931DF006108E0005F08C33E8600870124
:101470000108E10006305D02031C032A06305D0608
:10148000031D4A2A3F305E02031C492ADE01DD01AA
:101490004A2ADE0AFE305C06031D502AFB01FB0AC5
:1014A000DC0A0B117E10090091316B299631CE2692
:1014B0008A313A080339C0259131DA218A319631CF
:1014C000CE268A313A082100A000A2302000B900BF
:1014D0000030BA002100200873228A31A230CE00E9
:1014E0000030CF00D42A2000BF005530AE003F08A6
:1014F000BD248A31D63ED5248A31BE00B300FA30ED
:10150000B401B500FF30B600DD238A313308FF3E59
:10151000BB000030343DBC003C0DBC0CBB0C3B0898
:10152000C0002B303F0203189B2A7F30C1004008C7
:10153000C200C301C22A55303F020318A32A400843
:10154000C1007F30982A80303F020318AC2A7F30D8
:10155000C101C2004008B42AAB303F020318B62ACA
:10156000C1014008C2007F30C300C22AD5303F020B
:101570000318BE2A4008C100C201B32A7F30C1004F
:10158000C201AA2A390886003A088700410881006A
:101590004208BB003908013E49258A314308BB0097
:1015A0003908023E49250800E62A4F08C1004E08C6
:1015B000C000C330C2001A248A31922DD001F42A0F
:1015C000D001D00AF42A0230D000F42A5108003A9F
:1015D0000319D52A013A0319DE2A033A0319E02A2E
:1015E000013A0319E32AF42A92258A315008822508
:1015F0008A31031D0C2B72258A31D0238A31C93ED2
:10160000BB00BC01F2238A3172258A31D0238A3192
:10161000CC3EBB00BC01F22B4F08C1004E08C000FD
:101620000630AE005008D0238A31C93EC2001A2CC1
:10163000C400C5014408860087010108B300B40155
:10164000B31BB4033C08BE003B08BD0045083D0782
:1016500084003E0803183E0A85000008B500B60164
:10166000B51BB603DD238A313408C3003308C2003A
:10167000440A86002C258A3103305F258A31B51B48
:10168000B603DD238A313308C2073408C33D44085A
:10169000023E86002C258A3106305F258A31B51B33
:1016A000B603DD238A313308C2073408C33D43083B
:1016B000BD004508BE00BF013907C0003F083A3DE4
:1016C000C10040088600410887003D0881000330C2
:1016D000C50A4502031808001A2B4F08C1004E081E
:1016E000C000A230C2001A248A312100BA013A088F
:1016F00082258A31031DA22B200044258A313B25F7
:101700008A31DD238A3124258A3114258A31D02378
:101710008A31063EA23EBB00BC01F2238A31442539
:101720008A313B258A31DD238A3124258A311425EB
:101730008A31D0238A31093EA23EBB00BC01F2238C
:101740008A31C32B20004F08C1004E08C0003B2542
:101750008A31DD238A3124258A3120082000C00700
:10176000210021082000C13D0330C0070318C10A31
:101770000630AE0021003A08D0238A31063EA23E50
:10178000C2001A248A3121000330BA0A3A02031C2B
:10179000772BA2302000B3000030B40090314128F4
:1017A0002000B000AF012E083018AF07AE35B036BC
:1017B0003008031DD32B2F080800B701B801331CD4
:1017C000E52B3508B7073608B83DB535B60DB43644
:1017D000B30C33083404031DDF2B3808B40037087A
:1017E000B3000800390886003A0887000108D524AC
:1017F0008A31BD003B0886003C0887003D08810017
:10180000390886003A08870041310108D5248A3119
:10181000BD003B08013E54258A31390886003A084C
:10182000870042310108D5248A31BD003B08023EC1
:10183000542508004108BA004008B9004108BC001E
:101840004008BB00F2238A318B13CD0188258A31F1
:10185000BD248A3169258A31031D362C8D258A31B4
:10186000BD248A3169258A310319822C4D0842072B
:10187000C300860003308701AE004D08013EBD2441
:101880008A317A258A310008C6008D258A31BD2427
:101890008A31C700C801400784004808413D8500DF
:1018A00046080007B900BA010318BA0AC61BBA03F2
:1018B000801BBA0320004D08C900CA0140078400FC
:1018C0004A08413D85000008B300B401B31BB403CE
:1018D00088258A31BD248A31CB00CC0140078400A1
:1018E0004C08413D85000008B500B601B51BB603A4
:1018F000DD238A313408BC003308BB00EF248A3171
:1019000039088B2C4D084207C300860087014D081B
:101910007A258A31003781004D084207C300033E13
:10192000860087014D084207C40084008501000835
:10193000C5004D08C600C701400784004708413D67
:1019400085000008C8004508480281000330CD0A20
:101950004D02031C262C42088600443FCD0042085D
:10196000043E8600420A8400850100088100420A84
:1019700086004D0881008B170800B0000830B100C8
:10198000B2013008AF000730AF36890BC42C3235B6
:101990002F04B200B0352E083202031CD12C2E08C1
:1019A000B202B10BC12C32080800B200803A7F3E6F
:1019B00032080318E92CAE00AF01AE1BAF03AE092D
:1019C000AF09AE0A0319AF0A2E08B0002F08B10004
:1019D000ED2CB000B101B01BB10330080800BE010E
:1019E000BF0139083A0403190F2DBD01BD0ABA1B06
:1019F000FC2CB935BA0DF62CBE35BF0D3A083C02A9
:101A0000031D042D39083B02031C0B2D3908BB02B2
:101A10003A08BC3B3E14BA36B90CBD0BFC2C3F084F
:101A2000BA003E08B900080020082000B9072100CC
:101A300021082000BA3D0330B9070318BA0A06305E
:101A4000AE0021003A08080033082100A000200061
:101A500034082100A100080087010108B300B40187
:101A6000B31BB4034508BD00BE013B07BF003E08E1
:101A70003C3DC000080021003A082000B3000330BC
:101A8000B401B500B60108004F08BA004E08B9000D
:101A90000800BC0000303A3DBD003C0886003D080F
:101AA00087003B0881000800BE0000303C3DBF00BD
:101AB0003E0886003F0887003D08810008003F0778
:101AC000840040080318400A85000008B500B601EC
:101AD0000800C300C401400786004408413D870058
:101AE000010808004F08BA004E08B9000630AE00E1
:101AF00050080800C400C501400784004508413D66
:101B000085000800553E8600023087010106080066
:101B10000330AE004D08013E08000330AE004D0812
:101B2000023E08005108AE00AF012F08C0258A31DF
:101B30000319A22D2F08513E8600B9258A31AF0A1C
:101B4000952DAF0A2F08513E86008701B9258A31AD
:101B50002F08513E860001080319B22D03302F02D1
:101B6000031CA12D2F08513E860087012E088100FD
:101B700008002F08523E84008501000881000800FB
:101B8000513E8600870101080800D0258D31003ABA
:101B90000319CE2D14268D3115268D3119260800F6
:101BA0000030F701F70A8B1B0130F5008B13142668
:101BB0008D31F601F52D643076020318F82D2100E1
:101BC0000E1020000E10F001F00AF10100268D31F8
:101BD00021000E14F001F00AF10100268D310030D1
:101BE00020000E180130F700F60A7708031DDB2DE0
:101BF0001B267508031D8B1703198B137708080024
:101C00007008710403190800CA30F2000130F300B3
:101C1000F2020030F33B720873040130031D082EFA
:101C2000F0020030F13B002E8D2E9B2680311C28C7
:101C3000080064000800FF30F000003024269731CF
:101C4000CA278D3175260800F10097319C278D3108
:101C5000710824009100F201632E031020008C1EF5
:101C60000314031C362E20008C165E2E20008C12CE
:101C70005E2E031020008E1D0314031C422E200034
:101C80008E155E2E20008E115E2E031020000E1D7C
:101C90000314031C4E2E20000E155E2E20000E1184
:101CA0005E2E031020008C1E0314031C5A2E2000ED
:101CB0008C165C2E20008C120C308E060230F20A3C
:101CC00072020318722E7008013A03192D2E033A7E
:101CD0000319392E013A0319452EFC3A0319512EE6
:101CE0005E2E5E2E20008E130800F401F40A7408A4
:101CF000B2268D3103197F2E740885268D3104306C
:101D0000F40A740203180800772EF300F000730839
:101D10009731D8278D312426080021000D138E130A
:101D20000E1320000D138C12240095123330200066
:101D30008E050D1308008B130E1721000E130800DB
:101D40002000B201B20A3208B2268D310319AC2E3E
:101D500032089331A1238D310430B20A32020318C4
:101D60000800A32E543E8600870101080800BA002F
:101D70003930860001308700303084000030850023
:101D80000A30AF0016001A00AF0BC22E3A08573EB9
:101D9000860087010108B9002400951620003A0842
:101DA00031278E31911DD22EBB0191113B08303E5F
:101DB0009F278E312000911DDA2E0A30BB0A3B028C
:101DC000031CD52E3A086427240095120800BE0093
:101DD00052278E31BF003F08031908008B134C2790
:101DE00006302000AE00AF019331A7238E313F08AB
:101DF000AF00293015278E312000BD003E089827FE
:101E00008E312B3015278E312000BD003E0A9827D9
:101E10008E312D3015272000BD003E08023E860081
:101E200087013D0881008B170800B000240095163B
:101E300020002F0831278E3191113008803824007E
:101E400091002000911D212F91112F08573E9F27AF
:101E50008E312000911D292F2F086427240011089E
:101E60000800AE003D2F8C1208008E1108000E11E4
:101E700008008C12F3308E0508002E08013A031971
:101E8000332F033A0319352F013A0319372FFC3A40
:101E90000319392F4B2F0800BC007F278E312000FB
:101EA0003C08B72EAE01AE0A2E08543E8600023022
:101EB00087010106031D5E2F2E0808000430AE0ABC
:101EC0002E0203180034542FAE00702F8C16080019
:101ED0008E1508000E1508008C160C308E040800B4
:101EE0002E08013A0319662F033A0319682F013AA5
:101EF00003196A2FFC3A03196C2F7E2F0800B200D9
:101F000021000D1620003208573E8600870101137C
:101F10003208573E8600811532089331A1238E3155
:101F200032086427240094171413303095000800F9
:101F3000860087013D0881003F08AF000800860049
:101F400087010108240091000800D0278F31230069
:101F50008C018D018E01C8278F31D827F030860083
:101F600022308700F0304431810186002230870022
:101F7000F0304331810186002230870045318101F4
:101F800020001C30D501D601D701210097000800A0
:101F900021008D160E1320000E1724008C1108004E
:101FA0003C3099041908FC3902389900991308004B
:101FB000C030210095055A3020009500C1309900AD
:101FC00001309800CE309700210011140B08E03842
:101FD000EF398B0008006400013080010131FE02FE
:101FE0000030FF3B7F087E0403190034EC2F0034DF
:101FF0006A34963485343D343D345734573457343D
:102000009331F72B9331FC2B9331FF2B9431022C1E
:102010009431052C94310E2C9431602C9431162C73
:102020009431212C9431232C94312B2C9431372C46
:042030009431472C74
:10203A00F200F10170087218F107F035F2367208F1
:10204A00031D1F2871080800F2000830F300F4018C
:10205A007208F1000730F136890B302874357104A3
:10206A00F400F23570087402031C3D287008F4026B
:10207A00F30B2D2874080800B7013708C33E860001
:10208A0087013708B500B601330784003608343DA6
:10209A00850000088C31D524903181001830B70AA8
:1020AA003702031808004228B601B701B801B9017E
:1020BA002E1C67283208B6073308B73D3408B83DE6
:1020CA003508B93DB235B30DB40DB50DB136B00C06
:1020DA00AF0CAE0C310830042F042E04031D5D280A
:1020EA003908B1003808B0003708AF003608AE002A
:1020FA000800F100832090317108B428F0009C2870
:10210A0021008D1718308E04080021008E16080051
:10211A0021000E16080021008D17080021008E16D6
:10212A00080021000E16080021008D17080070080B
:10213A00003A03198A28013A03198D28033A031928
:10214A009028013A03199328073A03199628013A65
:10215A0003199928FA3A03198528B3280800F000C8
:10216A00E72821008D1320008D13CF3021008E0522
:10217A0020008E05080005210E1220000E1208000C
:10218A0005218E1220008E120800E73021008E05EC
:10219A0020008E120E160800FF200E1220000E16C6
:1021AA000800FF208E1220008E160800E73021005A
:1021BA008E0520008E160E120800183021008E049B
:1021CA000E1608007008003A0319C028013A0319CC
:1021DA00C528033A0319CA28013A0319D128073A2C
:1021EA000319D628013A0319DB28FA3A0319B62843
:1021FA00E228080021008D1320008D132100080019
:10220A0021008D1320008D172100080017082000D7
:10221A00B6008B13612191311430FB01FB0AF901DD
:10222A00F90A2100970011108B1263008B16210006
:10223A001114200036082100970012279131CE3060
:10224A00970011108B17292933219131003A03196C
:10225A003229612191316321913169290030B50117
:10226A00B50A8B1B0130B3008B1361219131B40184
:10227A005629643034020318592921000E1020000F
:10228A000E10AE01AE0AAF01A723913121000E1440
:10229A00E2279131A723913100300E180130B500A1
:1022AA00B40A3508031D3E2912273308031D8B176C
:1022BA0003198B13350808008E318D2E8E319B261B
:1022CA00913180311C28080064000800F030840035
:1022DA00223085000130FE01FF008F31EB2791315A
:1022EA005130F801F901FA01FB0184000030850040
:1022FA001130FE00FF018F31EB279131C33084008A
:10230A00003085001830FE00FF018F31EB27913134
:10231A0021000130DB00DC01DD01DE01220060303A
:10232A00B9004730BA000030BB01BC01BD01BE0193
:10233A00BF01C001C101C2017E102000A4292100F1
:10234A00C2018F31A527913112279131FB21913199
:10235A000030DA219131292191310630F12791316A
:10236A00BB239131CD29FB2191310030F901FB01C9
:10237A00FB0ADA2191310330F1279131BB239131E4
:10238A002100C201CD29FB01872691312100C2001B
:10239A007908031DB8297B08031DC82921004208B2
:1023AA000319CD290B219131CD29AE00AF012F0898
:1023BA00513E8600870101082E060319F5290330CC
:1023CA00AF0A2F060319F529DC292F08513E86008A
:1023DA0087012F08503E8400850100088100AF0361
:1023EA002F08031DEA292E08D10008008B13E227C3
:1023FA009131A7239131812391312000BF00C0017F
:10240A00C00A3F08B8004008142291312000BF00DA
:10241A000430C00A4002031C062A8B170800BE00BB
:10242A008E31B2269131003A0319432A013A03192F
:10243A00392A033A03192F2A013A0319252A432A6A
:10244A00C4279131011C0314932791310110031DF4
:10245A0001147E2AC4279131811F031493279131D5
:10246A008113031D81177E2AC4279131011F03148A
:10247A00932791310113031D01177E2A3E08573E07
:10248A008600FF30870181063E08A123913181230E
:10249A0091312000BC007C279131803C031D572AD2
:1024AA0039083C02031C632A20007C279131803CB6
:1024BA00031D612A39083802031C7B2A200073276E
:1024CA009131BB0080303B02031D6D2A3C08390262
:1024DA00031C7E2A200073279131BB0080303B0207
:1024EA00031D792A3808390203187E2A20003E087B
:1024FA00E22A20003E08A123913181239131200054
:10250A00BC003D0803199E2A7C279131803C031D9B
:10251A00902A39083C02031CB52A20007C279131F5
:10252A00BB0080303B02031D9C2A38083902031C79
:10253A00B52A20003D08031DAB2A73279131803C40
:10254A00031DA92A39083C020318B52A200073275B
:10255A009131803C031DB32A390838020318DF2A57
:10256A00A927913144312000B9003E0ABD2AB93564
:10257A00890BBC2A3908FF3A8105A92791314531CF
:10258A00B9003E0AC92AB935890BC82A3908FF3A5F
:10259A008105A92791314331B9003E0AD52AB935B7
:1025AA00890BD42A3908FF3A81053E08543E860031
:1025BA008701810120003C080800B700573E8600C9
:1025CA00FF30870181003708A1239131812391319E
:1025DA002000B5003708573EF6279131A1239131E3
:1025EA00812391312000B600153EB2000030031855
:1025FA000130B300803A803C031D052B32083502B6
:10260A0003180A2B20003608080020003508360770
:10261A00B200B301B30D330DB30CB20C3208B400DF
:10262A003708573E86008030870181003708D8274F
:10263A00913103197A2B3708A123913181239131E2
:10264A0020003402031C5F2B702B3708543E86008F
:10265A00033087018100A92791314431B200370A3A
:10266A00372BB235890B362B5C2B3708543E860044
:10267A00F03087018101810A86002230870001300B
:10268A004331B200370A4A2BB235890B492B5C2BEE
:10269A003708543E8600023087018100A92791310C
:1026AA004531B200370A5A2BB235890B592B3208F9
:1026BA0081046C2B3708D8279131013A03192A2B48
:1026CA00413A03193A2BC03A03194D2B6C2B3708A0
:1026DA00DA2191317A2B3708573E8600870137086D
:1026EA00573E8400850100361A2B3708573EF627D5
:1026FA009131A1239131812B2400951220008E1350
:10270A00AE01AE0AAF01A723913121008E17230033
:10271A008E17603021009E0025309D00E2279131FE
:10272A00A723913121009D149D18992B23008E1304
:10273A0021008E131C080800B100AE003108D8270A
:10274A0091311B2F2E082F0403190800CA30B0003C
:10275A000130B100B0020030B13B30083104013021
:10276A00031DAF2BAE020030AF3BA72B050822009A
:10277A00A1000408A00021003E0885003D0884004D
:10278A00FF302000DB00200000082200AF00840A8E
:10279A000319850AF0302F052100BF00103A031DE6
:1027AA00F52D20000008292691312200B800840A5C
:1027BA000319850A20000008292691312200B70052
:1027CA0085279131B5000408013E2100BF00003081
:1027DA00053DC0003F082200B20021004008220047
:1027EA00B300532C3808B0003708B005602C3808FD
:1027FA0037044E2C380837074E2C370838024E2C2F
:10280A0037082000AE00220038088B31D0239131DE
:10281A00452C37082000AE0022003808A326913143
:10282A00452CA801380803191F2C370803191F2C37
:10283A00A801A80A28084E2C3808292C3808031D94
:10284A00282C0130292C003037064E2C3808803AC3
:10285A002100BF0022003708803A2100BF02031C72
:10286A00422C442C3708803A2100BF002200380845
:10287A00803A2100BF02031C442C0130452C003051
:10288A0022004E2C38083706031D4D2C01304E2CE1
:10289A000030B000602CCA30A90008002F08F03EB2
:1028AA00031C502C84000D3004020318502C903164
:1028BA000435003E82003008E727913131269131F4
:1028CA002200B22C023084070318850A0508442620
:1028DA009131040844269131023084020030853B4C
:1028EA00200000082200A40085279131A5002408B1
:1028FA0085002508B52CB32791310319850A2000D4
:10290A000008BC002200350831269131840A0319D7
:10291A00850AC82B200000082200A20085279131D1
:10292A00B600840A0319850AC92CDD279131AA0049
:10293A002B302000B9000130BA00220036082926BF
:10294A008A31732291312A302100BB000130BC0048
:10295A0054269131652CFB279131330885003208C2
:10296A008400C82BFB279131CE2691313A08BC004E
:10297A0022003608632C21088500200884003608C6
:10298A0029262200A90008002208003A0319C02CAF
:10299A00013A0319B02C033A03199A2C013A031984
:1029AA00B72CC82B200000082200A300840A0319B0
:1029BA00850A102DDD2791312000DB02F130C90094
:1029CA002230CA005B08C9070318CA0A08279131CE
:1029DA00033044269131652C0508B3000408B2007F
:1029EA002000F030DB0A2100BB002230BC002000AE
:1029FA005B082100BB070318BC0A542691315B0807
:102A0A008C279131DB07652C3F26913184003F26C4
:102A1A0091318500C82B2308013A0319F12C033A96
:102A2A000319DF2C063A0319092D282EB3279131F1
:102A3A000319850A3F269131BC0022003508312648
:102A4A009131C82BAE279131EC279131292691314A
:102A5A0044269131C82BB9279131840A0319850A72
:102A6A003F2691312200B1003408F03E2100BF0018
:102A7A002230C001C03D3F0886004008870022007E
:102A8A003108810031080319C82BB40A3F26913155
:102A9A002100BF0022003408F03E2100C00022308D
:102AAA00C101C13D40088600410887003F088100F6
:102ABA002200B103472DB9279131840A0319850AE7
:102ACA0034088C279131B10034083107AE0034083C
:102ADA002E02031CC82B2E088C27913144269131D3
:102AEA0022002E080319C82BAE036C2DAE27913194
:102AFA0085279131B500EC279131292691312200A1
:102B0A00B800B81F9B2D38082100BF00C001BF1BA9
:102B1A00C003BF09C009BF0A0319C00A3F0822003F
:102B2A00A600210040082200A700A02D3808A60010
:102B3A00A701A61BA7032608E72791313126913161
:102B4A00C82BB32791310319850AD1279131E72779
:102B5A00913131269131C82BAE279131EC27913131
:102B6A00292691312100BF00F130860022308700EA
:102B7A003F088100C82BD12791310319C82B033094
:102B8A0084070318850AC82BB92791318527913103
:102B9A00B60085279131B500840A0319850A513098
:102BAA002F06031DE52D350829269131BC00220088
:102BBA003608292691312200340731269131C82B53
:102BCA003608292691312200340729269131BC0082
:102BDA002200350831269131C82BC130A9000800DE
:102BEA0022002F08003A0319282E053A03198F2CC0
:102BFA00033A0319D72C0E3A0319802C023A031907
:102C0A00272D013A03191B2D073A03197B2D013A87
:102C1A000319302D033A0319602D3E3A0319A62DE4
:102C2A00013A0319B12D713A0319C02D103A03194B
:102C3A00C92D013A0319C92D313A0319752C013AE4
:102C4A000319672CF22DC82B2000AE002E08031999
:102C5A0000342E088C2708002000BF00F03EBD007B
:102C6A002230BE01BE3D3D0886003E0887003C0872
:102C7A00810008002000DB0A5B088C27080020007E
:102C8A00B0005B08F03EAE002230AF01AF3D2E0827
:102C9A0086002F08870030088100DB0308003B0804
:102CAA00BE2791317D3E03185C2E8A31562A3B0895
:102CBA00BE2791317A3E3B0803186D2E013E200053
:102CCA00CE00003021003C3D2000CF008A31D42ABA
:102CDA00BE279131683E3B0803187D2E013E200035
:102CEA00CE00003021003C3D2000CF008B316D2BFF
:102CFA00013E2000B300003021003C3D2000B4001A
:102D0A00903141282000AE01AE0AAF012F08C33E20
:102D1A0086008701010803199C2E2F08C33E8600EE
:102D2A002F08C33E8400850100368100AE011830A9
:102D3A00AF0A2F02031C8B2E2E0808002000B200B7
:102D4A00B001AE1FAC2EAE09AE0AB001B00AB21F76
:102D5A00B22E0130B209B20AB006B1012E08031927
:102D6A00C72EAF01AF0AAE1BBC2EAE35B72EB1359A
:102D7A002E083202031CC42E2E08B2023114AE36BB
:102D8A00AF0BBC2E30080319CC2EB109B10A310899
:102D9A00080041302000B100C630B0004E30AF000C
:102DAA006D30AE0021005E082000B50021005D08EC
:102DBA002000B40021005C082000B30021005B0859
:102DCA002000B2009031592031082100DE00200095
:102DDA0030082100DD0020002F082100DC0020003F
:102DEA002E082100DB003930DB073030DC3D0030B3
:102DFA00DD3DDE3D5E082000BB0021005D082000AD
:102E0A00BA00BB1308004B308E31E72691314A08CD
:102E1A00C7004908C6004B30672FFF302000AE00BC
:102E2A0000301B279131CA278E31A02EAF009C2774
:102E3A0091312F08240091002000B001562F031071
:102E4A008C1E0314031C2C2F20008C16512F2000DB
:102E5A008C12512F03108E1D0314031C372F2000D0
:102E6A008E15512F20008E11512F03100E1D0314A1
:102E7A00031C422F20000E15512F20000E11512F36
:102E8A0003108C1E0314031C4D2F20008C164F2F89
:102E9A0020008C120C308E060230B00A3002031861
:102EAA00652F2E08013A0319242F033A03192F2FED
:102EBA00013A03193A2FFC3A0319452F512F512F82
:102ECA008E130800C8004708BA004608B900F73050
:102EDA00BB008F30BC0048088B31182B3808EB3EFA
:102EEA00B900FF3003180030BA00803A08003808E9
:102EFA00153EB900003003180130BA00803A0800C4
:102F0A00840A0319850A2000000822000800F03EFE
:102F1A00860022308701873D010808000030031827
:102F2A000130BD003E08573E86003D0808002100DA
:102F3A008C120D1373308E053030240095009417CF
:102F4A001413200091110800F03086002230870007
:102F5A000134200000082200B60008002000000802
:102F6A002200B500840A0800200000082200B400EC
:102F7A00080086003C0887000108803A08003E08DD
:102F8A00573E86008701031008008C168E150E1511
:102F9A000E17240095160800F030860022308700AC
:102FAA00413101080800573E8600870101080800E0
:102FBA000508B3000408B20003342000AE01AE0ACB
:102FCA00AF0108002000BC00220035080800840A6E
:102FDA000319850A360808002100BD009830BE0092
:102FEA000800860087018101370808000508B30038
:062FFA000408B20008000B
:020000040001F9
:04000E00FCCFCFDB79
:00000001FF
