:041208008A31932A6A
:101210007E1489312000111C1829CE3097009601C8
:101220008E3161268931FA01FA0A20001110912AC3
:101230000B1D912A613095005E08AB000330AB05B1
:101240005E08AA00FC30AA0503302B020630031802
:10125000792AF0002B0890314D208931A900CC3E2D
:10126000860087010108F700F801F71BF8037808EA
:10127000803A803C031D3E2977082A020318422940
:101280000130432900302000A6002908CD3E860009
:1012900087010108F700F801F71BF8037808803A86
:1012A000803C031D552977082A020318592901306B
:1012B0005A2900302000A7002908CE3E8600870169
:1012C0000108F700F801F71BF8037808803A803C22
:1012D000031D6C2977082A0203187029013071292F
:1012E00000302000A8002908CF3E860087010108B1
:1012F000F700F801F71BF8037808803A803C031DDB
:10130000832977082A0203188729013088290030A9
:101310002000A3002908D03E860087010108F700BD
:10132000F801F71BF8037808803A803C031D9A29DE
:1013300077082A0203189E2901309F2900302000D7
:10134000A4002908D13E860087010108F700F801B2
:10135000F71BF8037808803A803C031DB129770811
:101360002A020318B5290130B62900302000A50053
:101370002B08573E86008701010BCD292B085A3ECA
:10138000860023080112031D01162B085A3E860011
:1013900026080110031D0114E3292B08573E86007F
:1013A000033087010106031D002A2B085A3E8600E0
:1013B00023080112031D01162B085A3E8600260839
:1013C0000113031D01172B085A3E860027088110C0
:1013D000031D81142B085A3E860024088111031D29
:1013E00081152B085A3E860025080111031D0115A1
:1013F0002B085A3E860028088112031D81163F2AB9
:101400002B08573E8600023087010106031D3F2A44
:10141000A001A00A2608031D112A2308031D112A72
:10142000A0012008A600A101A10A2708031D1C2A6B
:101430002408031D1C2AA1012108A700A201A20A59
:101440002808031D272A2508031D272AA201220890
:10145000A8002B085A3E8600870126080110031DAC
:1014600001142B085A3E860027088110031D8114A1
:101470002B085A3E860028080111031D01152B0870
:10148000013E8E31BF268931882A04306202031C56
:101490005C2A5F0890318A20893104302000E20202
:1014A0006302031C5A2A61089031C020893104303C
:1014B0002000E302E00A7C2AFF309031C02089310D
:1014C00020000630DF0AF0005F08013E8F31E72779
:1014D0008931E1006308E2000630F0005F08013E58
:1014E0008F31E7278931C63E860087010108E30076
:1014F00006305F02031C452A06305F06031D882A5A
:101500003F306002031C872AE001DF01882AE00ADD
:10151000FE3020005E06031D8F2AFC01FC0ADE0A55
:101520000B117E1009009231AE2A00308B1B013066
:10153000B300210017082000B6008B139C248A31C9
:10154000FC01FC0AFA01FA0A210017081438D539FF
:10155000970000300B1901302000B4000B1100304F
:1015600011180130B5001110630020003608210069
:1015700097002000331CBE2A8B17BF2A8B13200034
:10158000341CC42A0B15C52A0B112000351CCB2A8C
:1015900020001114CD2A20001110CE3097009601A2
:1015A0009E248A31D32A66248A31003A0319DC2A20
:1015B0009C248A31A2248A31F22CBC004A258A312B
:1015C000003A03190B2B013A0319012B033A0319B3
:1015D000F72A013A0319ED2A0B2B32258A31011C17
:1015E000031417258A310110031D0114462B3225DF
:1015F0008A31811F031417258A318113031D811736
:10160000462B32258A31011F031417258A31011315
:10161000031D0117462B3C08593E8600FF30870109
:1016200081063C0860248A3149248A312000BA00AE
:1016300005258A31803C031D1F2B37083A02031C05
:101640002B2B200005258A31803C031D292B3708D0
:101650003602031C432B20000E258A31B90080304E
:101660003902031D352B3A083702031C462B200094
:101670000E258A31B90080303902031D412B36080E
:1016800037020318462B20003C08AA2B20003C08F8
:1016900060248A3149248A312000BA003B080319AA
:1016A000662B05258A31803C031D582B37083A02EA
:1016B000031C7D2B200005258A31B90080303902BA
:1016C000031D642B36083702031C7D2B20003B08CA
:1016D000031D732B0E258A31803C031D712B3708A7
:1016E0003A0203187D2B20000E258A31803C031D11
:1016F0007B2B370836020318A72B2D258A3144315E
:101700002000B7003C0A852BB735890B842B37089E
:10171000FF3A81052D258A314531B7003C0A912BCE
:10172000B735890B902B3708FF3A81052D258A3173
:101730004331B7003C0A9D2BB735890B9C2B3708EA
:10174000FF3A81053C08563E860087018101200052
:101750003A080800B500593E8600FF308701810035
:10176000350860248A3149248A312000B3003508C5
:10177000593E860087018101350860248A31492459
:101780008A312000B400153EB0000030031801304B
:10179000B100803A803C031DCF2B30083302031880
:1017A000D42B200034080800200033083407B00090
:1017B000B101B10D310DB10CB00C3008B2004425AF
:1017C0008A31810A35083F258A310319432C3508AF
:1017D00060248A3149248A3120003202031C262CDD
:1017E000382C3508563E86000330870181002D25B0
:1017F0008A314431B000350AFE2BB035890BFD2B00
:10180000232C3508563E8600F03087018101810A7D
:1018100086002230870001304331B000350A112C98
:10182000B035890B102C232C3508563E860002302B
:10183000870181002D258A314531B000350A212CE0
:10184000B035890B202C30088104332C35083F2516
:101850008A31013A0319F12B413A0319012CC03A9C
:101860000319142C332C3508953188258A31432CE3
:101870003508593E860087013508593E84008501A8
:1018800000358100E22B44258A31350860248A31F5
:10189000492C21008E1723008E17603021009E00F6
:1018A00025309D004F258A3188248A3121009D14DE
:1018B0009D18582C8E1323008E1321001C0808003D
:1018C000AF00AC002F083F258A31A82C00308B1BBD
:1018D0000130B2008F3125278A319C248A3114309F
:1018E000AC00AD0188248A3121000E144F258A31C5
:1018F00088248A3100300E180130B1009E248A31CC
:10190000321C842C8B17852C8B1320003108080087
:101910002C082D0403190800CA30AE000130AF00B6
:10192000AE020030AF3B2E082F040130031D902C77
:10193000AC020030AD3B882C8F31152F20003825AC
:101940008A31F42C8F312B278A3180311C280800F2
:10195000AD0020258A312D08240091002000AE0121
:10196000E32C03108C1E0314031CB92C20008C16CE
:10197000DE2C20008C12DE2C03108E1D0314031CA1
:10198000C42C20008E15DE2C20008E11DE2C0310BE
:101990000E1D0314031CCF2C20000E15DE2C20007E
:1019A0000E11DE2C03108C1E0314031CDA2C2000F5
:1019B0008C16DC2C20008C120C308E060230AE0A05
:1019C0002E02031808002C08013A0319B12C033A1F
:1019D0000319BC2C013A0319C72CFC3A0319D22C69
:1019E000DE2CDE2C640008002000B001B00A3008B4
:1019F0004A258A310319FF2C300860248A310430CB
:101A0000B00A300203180800F72C3608153EB7005C
:101A1000003003180130B800803A08003608EB3E69
:101A2000B700FF3003180030B800803A08000030DB
:101A300003180130BB003C08593E86003B080800F3
:101A400021008C120D1373308E0530302400950068
:101A500094171413200091110800F03086002230F2
:101A6000870001343C08593E8600870103100800B6
:101A70008C168E150E150E17240095160800593E6B
:101A800086008701010808003508593E8600870155
:101A900081010800563E86008701010808002000E9
:101AA000AC01AC0AAD01080049308E258D31200013
:101AB0004808C5004708C4004930482EB8003830EF
:101AC0008600013087002E308400003085000A3007
:101AD000AD0016001A00AD0B692D3808593E86007E
:101AE00087010108B7002400951620003808E12579
:101AF0008D31911D792DB901911139082E3E5B264A
:101B00008D312000911D812D0A30B90A3902031C44
:101B10007C2D38081426240095120800BD000030E2
:101B20008B1B0130BC0002268D31BE003E0803191C
:101B300008008B13FC2506302000AC00AD018C3171
:101B400088248D313E08AD002930C5258D31200017
:101B5000BB003D0854268D312B30C5258D3120002A
:101B6000BB003D0A54268D312D30C5258D31200016
:101B7000BB003D08023E860087013B0881003C1CFB
:101B8000C32D8B1708008B130800AE002400951698
:101B900020002D08E1258D3191112E088038240078
:101BA00091002000911DD12D91112D08593E5B26E9
:101BB0008D312000911DD92D2D08142624001108E7
:101BC0000800AC00ED2D8C1208008E1108000E11DB
:101BD00008008C12F3308E0508002C08013A031916
:101BE000E32D033A0319E52D013A0319E72DFC3AD9
:101BF0000319E92DFB2D0800BA002F268D31200096
:101C00003A085E2DAC01AC0A2C08563E8600023024
:101C100087010106031D0E2E2C0808000430AC0AB3
:101C20002C0203180034042EAC00202E8C16080061
:101C30008E1508000E1508008C160C308E04080056
:101C40002C08013A0319162E033A0319182E013AEB
:101C500003191A2EFC3A03191C2E2E2E0800B00070
:101C600021000D1620003008593E8600870101131F
:101C70003008593E8600811530088C3160248D3142
:101C800030081426240094171413303095000800EF
:101C9000C6004508B8004408B7001A30B9009030B3
:101CA000BA0046089231442A860087013B08810029
:101CB0003E08AD000800860087010108240091005D
:101CC00008006C268E31003A03196A2EA2268E3146
:101CD000A8268E31AC26080000308B1B0130F600A0
:101CE00025278E31A2268E311430F000F1018E2688
:101CF0008E3121000E14F001F00AF1018E268E3192
:101D0000003020000E180130F500A3268E31761C1D
:101D10008B2E8B178C2E8B1375080800700871049E
:101D200003190800CA30F2000130F300F20200305B
:101D3000F33B720873040130031D962EF00200304D
:101D4000F13B8E2E152F8D3138258E31AE260800B1
:101D50002B2780311C28080064000800F401F40AD5
:101D600074088D314A258E310319B92E7408BF26A7
:101D70008E310430F40A740203180800B02EF30008
:101D8000F00073088D313F258E31C7260800F10021
:101D90008D3120258E31710824009100F201062F2B
:101DA000031020008C1E0314031CD92E20008C1657
:101DB000012F20008C12012F031020008E1D031410
:101DC000031CE52E20008E15012F20008E11012FFF
:101DD000031020000E1D0314031CF12E20000E150D
:101DE000012F20000E11012F031020008C1E031460
:101DF000031CFD2E20008C16FF2E20008C120C30B0
:101E00008E060230F20A7202031808007008013AC6
:101E10000319D02E033A0319DC2E013A0319E82ED8
:101E2000FC3A0319F42E012F012F21000D138E13FC
:101E30000E1320000D138E138E110E110E138C1223
:101E40002400951220000D1308008B1321000E10A2
:101E500020000E1008008B130E1721000E1308002F
:101E60009631E6268F3138080339E22795318825E7
:101E70008F319631E6268F3138082100A000A2303C
:101E80002000B7000030B8002100200896316B26F2
:101E90008F31A230CD000030CE004E2F612F4E0882
:101EA000BF004D08BE00C630C00091318B218F317C
:101EB000912FCF016F2FCF01CF0A6F2F0230CF00AC
:101EC0006F2F5308003A03194F2F013A0319592F66
:101ED000033A03195B2F013A03195E2F6F2F9127E5
:101EE0008F314F08DC278F31031D832F4E08B00040
:101EF0004D08AF000630AC004F089531AA258F3150
:101F0000CC3EB100B92F4E08BF004D08BE000630D0
:101F1000AC004F089531AA258F31CC3EC0009131DD
:101F20008B2920005308AC00AD012D08E2278F312A
:101F30000319A22F2D08533E8600CE278F31AD0AFC
:101F4000952FAD0A2D08533E86008701CE278F318D
:101F50002D08533E860001080319B22F03302D02CD
:101F6000031CA12F2D08533E860087012C088100F9
:101F700008003108D5278F3100088100310A86001A
:101F80002F088400300885000131000881003108E5
:101F9000023ED52702310008810008002D08543E7A
:101FA00084008501000881000800860087012F0851
:101FB0008400300885000800573E86000230870103
:101FC00001060800533E8600870101080800F20060
:101FD0000830F300F4017208F1000730F136890B84
:101FE000EE2F74357104F400F23570087402031C8E
:0E1FF000FB2F7008F402F30BEB2F74080800AF
:1020000093315F2B9331642B9331672B93316A2B80
:1020100093316D2B9331752B9331C72B93317D2BDE
:102020009331882B93318A2B9331922B93319E2BB2
:102030009331AE2B00346A34963485343D343D34CC
:06204000573457345734F9
:10209A00F200F10170087218F107F035F236720891
:1020AA00031D4F28710808006400013080010131C6
:1020BA00FE020030FF3B7F087E04031900345A28D1
:1020CA00B401B501B601B7012C1C73283008B40756
:1020DA003108B53D3208B63D3308B73DB035B10DCC
:1020EA00B20DB30DAF36AE0CAD0CAC0C2F082E04EE
:1020FA002D042C04031D69283708AF003608AE00EA
:10210A003508AD003408AC000800F1008F2090318A
:10211A007108C028F000A82821008D1718308E04F5
:10212A00080021008E16080021000E160800210062
:10213A008D17080021008E16080021000E160800CF
:10214A0021008D1708007008003A03199628013AF1
:10215A0003199928033A03199C28013A03199F285D
:10216A00073A0319A228013A0319A528FA3A0319CA
:10217A009128BF280800F000F32821008D132000C1
:10218A008D13CF3021008E0520008E050800112105
:10219A000E1220000E12080011218E1220008E123B
:1021AA000800E73021008E0520008E120E16080066
:1021BA000B210E1220000E1608000B218E12200091
:1021CA008E160800E73021008E0520008E160E12AA
:1021DA000800183021008E040E1608007008003A14
:1021EA000319CC28013A0319D128033A0319D6282E
:1021FA00013A0319DD28073A0319E228013A0319BB
:10220A00E728FA3A0319C228EE28080021008D139C
:10221A0020008D132100080021008D1320008D1746
:10222A00210008004E08BF004D08BE00A730C000BC
:10223A008B212100C00140088F31DC279131031D19
:10224A005829BF0106302000AC0021004008AA2509
:10225A009131A73E21003F07A000063E8600870174
:10226A003F08A100A20183279131992291313108B7
:10227A004D072100A300200032084E3D2100A40092
:10228A0021082307A5002208243DA600250884006A
:10229A00260885000331000881000330BF0A3F0287
:1022AA0003187F29272920004E08BF004D08BE00C9
:1022BA002100832791319922913131082100A00010
:1022CA00200032082100A10020082000BE072100BA
:1022DA0021082000BF3D0330BE070318BF0A06309D
:1022EA00AC0021004008AA259131063EA73EC00055
:1022FA008B21913121000330C00A4002031C20299E
:10230A00A7302000AC000030AD00202F00308B1B1E
:10231A000130CB008B13CC01BB2791312C22913198
:10232A0072279131031DA129B62791312C229131AF
:10233A00722791310319ED294C084007C100860024
:10234A0003308701AC004C08013E2C2291317B27D7
:10235A0091310008C400B62791312C229131C50071
:10236A00C6013E07840046083F3D85004408000731
:10237A00B700B8010318B80AC41BB803801BB80316
:10238A0020004C08C700C8013E07840048083F3DAA
:10239A0085000008B100B201B11BB203BB2791311D
:1023AA002C229131C900CA013E0784004A083F3DE8
:1023BA0085000008B300B401B31BB403992291311C
:1023CA003208BA003108B900462691313708F62991
:1023DA004C084007C100860087014C087B279131D1
:1023EA00003781004C084007C100033E8600870180
:1023FA004C084007C200840085010008C3004C084D
:10240A00C400C5013E07840045083F3D8500000819
:10241A00C6004308460281000330CC0A4C02031C62
:10242A00912940088600443FCC004008043E8600BB
:10243A00400A8400850100088100400A86004C0891
:10244A0081004B1C2A2A8B1708008B130800AE0048
:10245A000830AF00B0012E08AD000730AD36890B49
:10246A00332A30352D04B000AE352C083002031C57
:10247A00402A2C08B002AF0B302A30080800C200EC
:10248A00C3014208860087010108B100B201B11BED
:10249A00B2033A08BC003908BB0043083B07840072
:1024AA003C0803183C0A85000008B300B401B31BBA
:1024BA00B403992291313208C1003108C000420A9E
:1024CA0086003C279131033061279131B31BB40355
:1024DA00992291313108C0073208C13D4208023EB3
:1024EA0086003C279131063061279131B31BB40332
:1024FA00992291313108C0073208C13D4108BB0019
:10250A004308BC00BD013707BE003D08383DBF0087
:10251A003E0886003F0887003B0881000330C30A53
:10252A00430203180800462AB501B601311CA12A44
:10253A003308B5073408B63DB335B40DB236B10C1D
:10254A0031083204031D9B2A3608B2003508B1004F
:10255A000800F0308400223085000130FE01FF00BF
:10256A009031592091315330F901FA01FB01FC01F4
:10257A008400003085001130FE00FF01903159209F
:10258A009131C6308400003085001830FE00FF010A
:10259A0090315920913121000130DE00DF01E00144
:1025AA00E10122006030B8004730B9000030BA01BA
:1025BA00BB01BC01BD01BE01BF01C001C1017E104A
:1025CA002000E72AD201C0278C319E249131B725F9
:1025DA0091310030882591310630AC27913123237F
:1025EA009131122BFB0121009830C101C200232333
:1025FA009131122BB72591310030FA01FC0188255F
:10260A0091310330AC279131232391312000D2013B
:10261A00122BFC01FF259131D2007B08031DF72AFA
:10262A007A08031DFF2A7C08031D0E2B200052087E
:10263A000319122B8A3195229131122B0508220097
:10264A00A1000408A0002100420885004108840076
:10265A00FF302000DD00200000082200AF00840ABD
:10266A000319850AF0302F052100C300103A031D13
:10267A002C2D200000085D2591312200B700840A24
:10268A000319850A200000085D2591312200B60051
:10269A0035279131B4000408013E2100C3000030FF
:1026AA00053DC40043082200B2002100440822006C
:1026BA00B300BA2B3708B0003608B005C72B370865
:1026CA003604B52B37083607B52B36083702B52B33
:1026DA0036082000AC0022003708AA259131AC2B1D
:1026EA0036082000AC00220037081B269131AC2B9B
:1026FA00A80137080319862B36080319862BA80167
:10270A00A80A2808B52B3708902B3708031D8F2BEA
:10271A000130902B00303606B52B3708803A21005D
:10272A00C30022003608803A2100C302031CA92BE9
:10273A00AB2B3608803A2100C30022003708803AC2
:10274A002100C302031CAB2B0130AC2B003022004A
:10275A00B52B37083606031DB42B0130B52B0030D4
:10276A00B000C72BCA30AD0008002F08F03E031C8A
:10277A00B72B84000D3004020318B72B90310435AF
:10278A00003E82003008A22791316525913122004E
:10279A00102C050873259131040873259131200006
:1027AA0000082200A40035279131A50024088500DD
:1027BA002508132C5B2791310319850A200000088C
:1027CA00BA002200340865259131840A0319850A62
:1027DA00302B200000082200A20035279131B500D5
:1027EA00840A0319850A272C9D279131A9002A30CA
:1027FA002000B7000130B800220035085D2591316C
:10280A006B2691312930D0000130D100D725913182
:10281A00CC2BB12791313308850032088400302B44
:10282A00B1279131E62691313808BA0022003508DD
:10283A00CA2B210885002008840035085D2522005E
:10284A00AD0008002208003A03191E2C013A0319A8
:10285A000E2C033A0319F92B013A0319152C302BC4
:10286A00200000082200A300840A0319850A652CA7
:10287A009D272000DD02F130C7002230C8005D0824
:10288A00C7070318C80A8D315425913103307325BF
:10289A009131CC2B0508B3000408B2002000F030B7
:1028AA00DD0AD0002230D1005D08D0070318D10A12
:1028BA00D725913120005D086B279131DD07CC2B9C
:1028CA002308013A03194F2C033A03193D2C5C2DB6
:1028DA005B2791310319850A83259131BA002200B9
:1028EA00340865259131302B56279131A72791312C
:1028FA005D25913173259131302B98279131840AC6
:10290A000319850A832591312200AE003108F03E71
:10291A002100C3002230C401C43D43088600440894
:10292A00870022002E0881002E080319302BB10AD5
:10293A00832591312100C30022003108F03E210095
:10294A00C4002230C501C53D4408860045088700F9
:10295A00430881002200AE03992C5627913135276E
:10296A009131B400A72791315D2591312200B7003A
:10297A00B71FD22C37082100C300C401C31BC403EC
:10298A00C309C409C30A0319C40A43082200A600DA
:10299A00210044082200A700D72C3708A600A70167
:1029AA00A61BA7032608A227913165259131302B52
:1029BA005B2791310319850A91279131A227913119
:1029CA0065259131302B56279131A72791315D2505
:1029DA0091312100C300F13086002230870043087C
:1029EA008100302B912791310319302B0330840752
:1029FA000318850A302B9827913135279131B50074
:102A0A0035279131B400840A0319850A51302F06FB
:102A1A00031D1C2D34085D259131BA0022003508AA
:102A2A005D2591312200310765259131302B35081A
:102A3A005D259131220031075D259131BA002200CE
:102A4A00340865259131302BC130AD0008002200D1
:102A5A002F08003A03195C2D053A0319EE2B033AA5
:102A6A000319352C0E3A0319DF2B023A0319792C74
:102A7A00013A03196D2C073A0319B22C013A0319CA
:102A8A00822C3D3A0319DD2C013A0319E82C713ADC
:102A9A000319F72C103A0319002D013A0319002DD6
:102AAA00313A0319D42B013A0319CE2B292D302B95
:102ABA002000AC002C08031900342C086B270800EE
:102ACA002000BD00F03EBB002230BC01BC3D3B08EB
:102ADA0086003C0887003A08810008002000AE0002
:102AEA005D08F03EAC002230AD01AD3D2C088600F9
:102AFA002D0887002E088100DD0308002000DD0A6A
:102B0A005D086B2708002000AC00AD012D08533E7C
:102B1A008600870101082C060319A42D0330AD0A8B
:102B2A002D060319A42D8B2D2D08533E86008701EF
:102B3A002D08523E8400850100088100AD032D084E
:102B4A00031D992D2C08D30008002000AE00AD010A
:102B5A002C082E18AD07AC35AE362E08031DAD2D48
:102B6A002D08080000308B1B01302000BD008B139C
:102B7A008C31492491312000BE00BF01BF0A3E08B2
:102B8A00B6003F088A31DD2291312000BE000430B0
:102B9A00BF0A3F02031CC42D3D1CD52D8B1708000C
:102BAA008B13080050088B2791317D3E0318DF2DC7
:102BBA008F31302F50088B2791317A3E50080318F5
:102BCA00ED2D013ECD000030513DCE008F314E2F0C
:102BDA008B279131683E50080318F92D013ECD002C
:102BEA000030513DCE001729013EAC000030513D66
:102BFA00AD00202F2000AC01AC0AAD012D08C63E65
:102C0A008600870101080319142E2D08C63E860086
:102C1A002D08C63E8400850100368100AC011830BB
:102C2A00AD0A2D02031C032E2C0808002000B00058
:102C3A00AE01AC1F242EAC09AC0AAE01AE0AB01F1D
:102C4A002A2E0130B009B00AAE06AF012C080319CA
:102C5A003F2EAD01AD0AAC1B342EAC352F2EAF354D
:102C6A002C083002031C3C2E2C08B0022F14AC3660
:102C7A00AD0B342E2E080319442EAF09AF0A2F08C4
:102C8A000800BC01BD01370838040319662EBB01D0
:102C9A00BB0AB81B532EB735B80D4D2EBC35BD0D2A
:102CAA0038083A02031D5B2E37083902031C622ECC
:102CBA003708B9023808BA3B3C14B836B70CBB0B14
:102CCA00532E3D08B8003C08B70008002000BD009C
:102CDA005530AC003D082C229131D63ECC2691319C
:102CEA00BC00B100FA30B201B300FF30B40099223F
:102CFA0091313108FF3EB9000030323DBA003A0D39
:102D0A00BA0CB90C3908BE002B303D020318932EB9
:102D1A007F30BF003E08C000C101BA2E55303D02C7
:102D2A0003189B2E3E08BF007F30902E80303D0254
:102D3A000318A42E7F30BF01C0003E08AC2EAB3072
:102D4A003D020318AE2EBF013E08C0007F30C1000D
:102D5A00BA2ED5303D020318B62E3E08BF00C00178
:102D6A00AB2E7F30BF00C001A22E3708860038087C
:102D7A0087003F0881004008B9003708013E4B2709
:102D8A0091314108B9003708023E4B270800B000CC
:102D9A00803A7F3E30080318E02EAC00AD01AC1B30
:102DAA00AD03AC09AD09AC0A0319AD0A2C08AE0093
:102DBA002D08AF00E42EAE00AF01AE1BAF032E0804
:102DCA00080041302000AF00C630AE004E30AD00E2
:102DDA006D30AC00210061082000B30021006008BA
:102DEA002000B20021005F082000B10021005E0827
:102DFA002000B000903165202F082100E10020005A
:102E0A002E082100E00020002D082100DF0020000C
:102E1A002C082100DE003930DE073030DF3D00307B
:102E2A00E03DE13D61082000B90021006008200072
:102E3A00B800B9130800B0013008C63E8600870101
:102E4A003008AE00AF012C0784002F082D3D850005
:102E5A00000881001830B00A300203180800212F38
:102E6A00840A0319850A2000000822000800870145
:102E7A000108B100B201B11BB2034308BB00BC0197
:102E8A003907BD003C083A3DBE000800BA000030D0
:102E9A00383DBB003A0886003B08870039088100A4
:102EAA000800200000082200B500080020000008E1
:102EBA002200B400840A08003D0784003E08031873
:102ECA003E0A85000008B300B4010800F03E8600FF
:102EDA0022308701873D01080800C100C2013E0770
:102EEA00860042083F3D870001080800C200C3016E
:102EFA003E07840043083F3D850008004008200043
:102F0A00B1000330B201B300B401080086005108D1
:102F1A0087000108803A0800F030860022308700D6
:102F2A00413101080800200000082200B100080011
:102F3A000508B3000408B20003342000BA002200D6
:102F4A0034080800840A0319850A35080800210094
:102F5A00C1009830C20008000508B3000408B20096
:102F6A0008000330AC004C08023E08000330AC00F5
:102F7A004C08013E0800E427913123008C018D01A1
:102F8A008E01DC279131ED27F03086002230870050
:102F9A00F03044318101860022308700F03043311D
:102FAA008101860022308700453181010800210015
:102FBA008D160E1320000E1724008C1108003C30C9
:102FCA00210099041908FC3902389900991308005C
:102FDA00C030210095055A3020009500C130990073
:102FEA0001309800CE309700210011140B08E03808
:062FFA00EF398B00080016
:020000040001F9
:04000E00FCCFCFDB79
:00000001FF
