:041208008A31532AAA
:101210007E1489312000111C1729CE3097008E31A1
:10122000A42689312000D101D10A1110512A0B1DA9
:10123000512A613095005C08AD000330AD055C08B3
:10124000AC00FC30AC0503302D02063003183A2AFE
:10125000F0002D0890312E208931AB00C93E860068
:10126000870101082C020318372901303829003082
:10127000A8002B08CA3E8600870101082C0203182B
:101280004329013044290030A9002B08CB3E8600B9
:10129000870101082C0203184F2901305029003022
:1012A000AA002B08CC3E8600870101082C020318F7
:1012B0005B2901305C290030A5002B08CD3E86005B
:1012C000870101082C0203186729013068290030C2
:1012D000A6002B08CE3E8600870101082C020318C9
:1012E0007329013074290030A7002D08543E860070
:1012F0008701010B8A292D08573E86002508011217
:10130000031D01162D08573E860028080110031DF5
:101310000114A0292D08543E8600033087010106E0
:10132000031DBD292D08573E860025080112031D07
:1013300001162D08573E860028080113031D0117CA
:101340002D08573E860029088110031D81142D08A1
:10135000573E860026088111031D81152D08573E32
:10136000860027080111031D01152D08573E860030
:101370002A088112031D8116FC292D08543E86007F
:10138000023087010106031DFC29A201A20A2808D8
:10139000031DCE292508031DCE29A2012208A8007D
:1013A000A301A30A2908031DD9292608031DD92949
:1013B000A3012308A900A401A40A2A08031DE42903
:1013C0002708031DE429A4012408AA002D08573E7C
:1013D0008600870128080110031D01142D08573EBF
:1013E000860029088110031D81142D08573E8600B0
:1013F0002A080111031D01152D08013E8F316627B2
:101400008931492A60080319232A5D0890317F2019
:1014100089312000E00361080319142A5F08903124
:10142000B52089312000E1035E0F1A2AFF30A000A9
:10143000A101202A5E08A000A101A00A0319A10AA7
:101440002008DE003D2AFF309031B5208931200090
:101450000630DD0AF0005D08013E90314C208931F4
:10146000DF006108E0005F08C33E860087010108D5
:10147000E10006305D02031C022A06305D06031DF2
:10148000492A3F305E02031C482ADE01DD01492A59
:10149000DE0AFE305C06031D4F2AD301D30ADC0AA4
:1014A0000B117E10090091316D29963194268A31F5
:1014B0003A082100A100A3302000B9000030BA0092
:1014C0002100210869228A31A330CE000030CF00EC
:1014D000CA2A2000BF005530AE003F08BC248A3124
:1014E000D63ED4248A31BE00B300FA30B401B50030
:1014F000FF30B600DC238A313308FF3EBB000030EA
:10150000343DBC003C0DBC0CBB0C3B08C0002B3078
:101510003F020318912A7F30C1004008C200C30176
:10152000B82A55303F020318992A4008C1007F307D
:101530008E2A80303F020318A22A7F30C101C200E8
:101540004008AA2AAB303F020318AC2AC101400868
:10155000C2007F30C300B82AD5303F020318B42A36
:101560004008C100C201A92A7F30C100C201A02ADF
:10157000390886003A088700410881004208BB000C
:101580003908013E5B258A314308BB003908023E19
:101590005B250800DF2A4F08C1004E08C000C33099
:1015A000C20019249631BC2E2100A001ED2A210091
:1015B000A001A00AED2A02302100A000ED2A5B085C
:1015C000003A0319CB2A013A0319D42A033A031922
:1015D000D72A013A0319DB2AED2A9631BC268A3133
:1015E000210020089B258A31031D082B20007B2524
:1015F0008A3178238A31C93EBB00BC01F1238A318C
:101600007B258A3178238A31CC3EBB00BC01F12B8B
:1016100020004F08C1004E08C0000630AE00210077
:10162000200878238A31C93EC200192C4F08C10016
:101630004E08C000A230C20019248A312100BA012C
:101640003A089B258A31031D4B2B20004B258A31FC
:1016500042258A31DC238A313A258A312A258A318A
:1016600078238A31063EA23EBB00BC01F1238A31B9
:101670004B258A3142258A31DC238A313A258A3149
:101680002A258A3178238A31093EA23EBB00BC015B
:10169000F1238A316C2B20004F08C1004E08C00096
:1016A00042258A31DC238A313A258A3120082000FC
:1016B000C007210021082000C13D0330C0070318E6
:1016C000C10A0630AE0021003A0878238A31063E6E
:1016D000A23EC20019248A3121000330BA0A3A021C
:1016E000031C202BA2302000B3000030B400132DC7
:1016F0002000B000AF012E083018AF07AE35B0366D
:101700003008031D7B2B2F080800C800023E8425EB
:101710008A31B31BB4035730B500B601DC238A31DC
:101720003408C7003308C600480A84258A31B31B31
:10173000B4033D30B500B601DC238A313408C30060
:101740003308C200480884258A31B31BB4036A30C9
:10175000B500B601DC238A313408C5003308C40063
:10176000480A84258A31B31BB4038530B500FF30A5
:10177000B600DC238A3146083307BB004708343DF6
:10178000BC00BD00390886003A0887003D0881008A
:1017900042084407BB004308453D71258A31013E9C
:1017A00050258A3144084202BB004508433B71255D
:1017B0008A31023E50250800B701B801331CE42BE2
:1017C0003508B7073608B83DB535B60DB436B30C95
:1017D00033083404031DDE2B3808B4003708B30087
:1017E0000800390886003A0887000108D4248A31A5
:1017F000BD003B0886003C0887003D088100390891
:1018000086003A08870041310108D4248A31BD009E
:101810003B08013E66258A31390886003A08870070
:1018200042310108D4248A31BD003B08023E6625BE
:1018300008004108BA004008B9004108BC0040084F
:10184000BB00F1238A318B13CD01A6258A31BC243C
:101850008A318A258A31031D352CA1258A31BC2481
:101860008A318A258A310319812C4D084207C30029
:10187000860003308701AE004D08013EBC248A314A
:1018800093258A310008C600A1258A31BC248A31FB
:10189000C700C801400784004808413D850046084C
:1018A0000007B900BA010318BA0AC61BBA03801BA5
:1018B000BA0320004D08C900CA01400784004A0845
:1018C000413D85000008B300B401B31BB403A62555
:1018D0008A31BC248A31CB00CC01400784004C08FB
:1018E000413D85000008B500B601B51BB603DC23F9
:1018F0008A313408BC003308BB00EE248A31390831
:101900008A2C4D084207C300860087014D089325A5
:101910008A31003781004D084207C300033E86002C
:1019200087014D084207C400840085010008C500F6
:101930004D08C600C701400784004708413D8500A7
:101940000008C8004508480281000330CD0A4D0256
:10195000031C252C42088600443FCD004208043E6B
:101960008600420A8400850100088100420A860040
:101970004D0881008B170800B0000830B100B2019B
:101980003008AF000730AF36890BC32C32352F0437
:10199000B200B0352E083202031CD02C2E08B20241
:1019A000B10BC02C32080800B200803A7F3E3208EA
:1019B0000318E82CAE00AF01AE1BAF03AE09AF09B0
:1019C000AE0A0319AF0A2E08B0002F08B100EC2CA4
:1019D000B000B101B01BB10330080800BE01BF0167
:1019E00039083A0403190E2DBD01BD0ABA1BFB2CA0
:1019F000B935BA0DF52CBE35BF0D3A083C02031DB2
:101A0000032D39083B02031C0A2D3908BB023A0892
:101A1000BC3B3E14BA36B90CBD0BFB2C3F08BA00D8
:101A20003E08B9000800B7013708C33E86008701A9
:101A30003708B500B601330784003608343D850009
:101A40000008D4248A3181001830B70A37020318FD
:101A50000800142D20082000B907210021082000CB
:101A6000BA3D0330B9070318BA0A0630AE002100A8
:101A70003A08080033082100A000200034082100A3
:101A8000A100080021003A082000B3000330B4018F
:101A9000B500B60108004F08BA004E08B9000800AA
:101AA000C00000303A3DC100400886004108870070
:101AB0003F0881000800BC0000303A3DBD003C08F2
:101AC00086003D0887003B0881000800BE0000300A
:101AD0003C3DBF003E0886003F0887003D0881006E
:101AE0000800BC0046083B07BD0047083C3DBE005F
:101AF000BF00390808004F08BA004E08B900063088
:101B0000AE00210020080800860087010108B3000C
:101B1000B4010800C300C401400786004408413DE9
:101B2000870001080800C400C5014007840045087B
:101B3000413D85000800543E8600023087010106C1
:101B400008000330AE004D08023E08000330AE002E
:101B50004D08013E08004B30E4254A08BA00490808
:101B6000B9004B308B31852BBA00393086000130FB
:101B7000870030308400003085000A30AF00160046
:101B80001A00AF0BBF2D3A08563E860087010108A8
:101B9000B9002400951620003A0830268D31911D99
:101BA000CF2DBB0191113B08303E9E268D31200088
:101BB000911DD72D0A30BB0A3B02031CD22D3A08D7
:101BC0006326240095120800BE0051268D31BF0007
:101BD0003F08031908008B134B2606302000AE0087
:101BE000AF01933197238D313F08AF002930142680
:101BF0008D312000BD003E0897268D312B301426F4
:101C00008D312000BD003E0A97268D312D301426DF
:101C10002000BD003E08023E860087013D0881008D
:101C20008B173F08DB000800B00024009516200049
:101C30002F0830268D319111300880382400910012
:101C40002000911D202E91112F08563E9E268D3189
:101C50002000911D282E2F0863262400110808005B
:101C6000AE003C2E8C1208008E1108000E110800E8
:101C70008C12F3308E0508002E08013A0319322E1B
:101C8000033A0319342E013A0319362EFC3A03198C
:101C9000382E4A2E0800BC007E268D3120003C08DC
:101CA000B42DAE01AE0A2E08533E860002308701E5
:101CB0000106031D5D2E2E0808000430AE0A2E0218
:101CC00003180034532EAE006F2E8C1608008E15AC
:101CD00008000E1508008C160C308E0408002E0823
:101CE000013A0319652E033A0319672E013A0319C5
:101CF000692EFC3A03196B2E7D2E0800B2002100DC
:101D00000D1620003208563E860087010113320866
:101D1000563E860081153208933190238D3132086A
:101D200063262400941714133030950008008600B1
:101D300087013D0881003F08AF0008008600870149
:101D40000108240091000800AF268E31003A0319E3
:101D5000AD2EF3268E31F4268E31F82608000030A1
:101D6000F701F70A8B1B0130F5008B13F3268E3138
:101D7000F601D42E643076020318D72E21000E10FF
:101D800020000E10F001F00AF101DF268E31210053
:101D90000E14F001F00AF101DF268E310030200030
:101DA0000E180130F700F60A7708031DBA2EFA263E
:101DB0007508031D8B1703198B137708080070082B
:101DC000710403190800CA30F2000130F300F20276
:101DD0000030F33B720873040130031DE72EF0025C
:101DE0000030F13BDF2E6E2F7C2780311C2808004D
:101DF00064000800FF30F000003004278E318C169C
:101E00004C308E0455270800F100973195278E310C
:101E1000710824009100F201432F031020008C1E52
:101E20000314031C162F20008C163E2F20008C124A
:101E30003E2F031020008E1D0314031C222F2000B0
:101E40008E153E2F20008E113E2F031020000E1DF8
:101E50000314031C2E2F20000E153E2F20000E1100
:101E60003E2F031020008C1E0314031C3A2F200069
:101E70008C163C2F20008C120C308E060230F20A99
:101E800072020318522F7008013A03190D2F033AFA
:101E90000319192F013A0319252FFC3A0319312F81
:101EA0003E2F3E2F20008E130800F401F40A740820
:101EB0009731CA278E310319602F740866278E3137
:101EC0000430F40A740203180800572FF300F000DE
:101ED00073089731D4278E310427080021000D1391
:101EE0008E130E1320000D138C1224009512333024
:101EF00020008E050D1308008B130E1721000E1302
:101F000008002000B200B001AE1F8A2FAE09AE0A51
:101F1000B001B00AB21F902F0130B209B20AB00668
:101F2000B1012E080319A52FAF01AF0AAE1B9A2FDE
:101F3000AE35952FB1352E083202031CA22F2E0884
:101F4000B2023114AE36AF0B9A2F30080319AA2F04
:101F5000B109B10A31080800B601B701B801B901E9
:101F60002E1CBA2F3208B6073308B73D3408B83DE7
:101F70003508B93DB235B30DB40DB50DB136B00C61
:101F8000AF0CAE0C310830042F042E04031DB02F0B
:101F90003908B1003808B0003708AF003608AE0085
:101FA00008002000C4001508BE00BF014408C0009E
:101FB000C101963194268F3140083A07C20041088A
:101FC0003B3DC3003E084207BC003F08433DBD0007
:101FD000E92F3C08F8003D08F900FA01FB01080070
:101FE0006400013080010131FE020030FF3B7F08B8
:081FF0007E0403190034F12FF7
:102000009331EA2B9331EF2B9331F22B9331F52B54
:102010009331F82B9431012C9431542C94310A2CA7
:102020009431152C9431172C94311F2C94312B2C76
:0420300094313B2C80
:10205C00F200F10170087218F107F035F2367208CF
:10206C00031D302871080800B201B20A32089731FA
:10207C00CA279031031946283208933190239031A6
:10208C000430B20A3202031808003C28F20008306F
:10209C00F300F4017208F1000730F136890B532874
:1020AC0074357104F400F23570087402031C602856
:1020BC007008F402F30B502874080800AE01AE0A45
:1020CC00AF012F08C33E8600870101080319782849
:1020DC002F08C33E86002F08C33E840085010036BE
:1020EC008100AE011830AF0A2F02031C67282E089E
:1020FC000800F100842090317108B528F0009D286B
:10210C0021008D1718308E04080021008E1608004F
:10211C0021000E16080021008D17080021008E16D4
:10212C00080021000E16080021008D170800700809
:10213C00003A03198B28013A03198E28033A031924
:10214C009128013A03199428073A03199728013A60
:10215C0003199A28FA3A03198628B4280800F000C3
:10216C00E82821008D1320008D13CF3021008E051F
:10217C0020008E05080000210E1220000E1208000F
:10218C0000218E1220008E120800E73021008E05EF
:10219C0020008E120E16080006210E1220000E16BC
:1021AC00080006218E1220008E160800E730210050
:1021BC008E0520008E160E120800183021008E0499
:1021CC000E1608007008003A0319C128013A0319C9
:1021DC00C628033A0319CB28013A0319D228073A27
:1021EC000319D728013A0319DC28FA3A0319B7283E
:1021FC00E328080021008D1320008D172100080012
:10220C0021008D1320008D132100080017082000D9
:10221C00B6008B13632191311430D301D30AD10151
:10222C00D10A2100970011108B1263008B1621002C
:10223C0011142000360821009700CA269131CE30A7
:10224C00970011108B172A2934219131003A031968
:10225C00332963219131652191316B2920000030A4
:10226C00B501B50A8B1B0130B3008B13632191317F
:10227C00B40158296430340203185B2921000E1074
:10228C0020000E10AE01AE0AAF0197239131210050
:10229C000E14ED2791319723913100300E18013037
:1022AC00B500B40A3508031D4029CA263308031D9E
:1022BC008B1703198B13350808008F316E2F8F3154
:1022CC007C27913180311C28080064000800F03014
:1022DC008400213085000230FE01FF008F31F02791
:1022EC0091315030FC018400003085001230FE002A
:1022FC000030FF008F31F0279131C3308400003063
:10230C0085001830FE000030FF008F31F02791312E
:10231C000130F8000030F900FA00FB0022006030B8
:10232C00B9004730BA000030BB00BC00BD00BE0095
:10233C00BF00C000C100C2007E102000A5292027CC
:10234C009131CA269131D62191312A219131063011
:10235C00E8279131AE239131C829D6219131200043
:10236C000030D101AB2391310330E8279131AE23FA
:10237C0091312100C201C829D301903164209131DF
:10238C002100C20020005108031DB3295308031D6E
:10239C00C229210042080319C8290C219131C829EE
:1023AC008B13AE01AE0AAF01972391316B239131A0
:1023BC00A300A401A40A23082000CB0021002408B8
:1023CC00F12191312100A3000430A40A2402031C42
:1023DC00E1298B170800A200CA279131003A031992
:1023EC001F2A013A0319152A033A03190B2A013A39
:1023FC000319012A1F2AB2279131011C03148C27BF
:10240C0091310110031D0114592AB2279131811FFA
:10241C0003148C2791318113031D8117592AB2277C
:10242C009131011F03148C2791310113031D0117E6
:10243C00592A2208563E8600FF3087018106220861
:10244C00902391316B239131A0006A279131803C0C
:10245C00031D332A4C0821002002031C3E2A6A2744
:10246C009131803C031D3C2A4C084B02031C562A1C
:10247C0074279131CE0080304E02031D492A210071
:10248C00200820004C02031C592A74279131CE00DD
:10249C0080304E02031D542A4B084C020318592A53
:1024AC0021002208CB2A21002208902391316B2392
:1024BC009131A00021080319782A6A279131803CB8
:1024CC00031D6B2A4C0821002002031C8F2A6A274B
:1024DC009131CE0080304E02031D762A4B084C02FF
:1024EC00031C8F2A21002108031D862A7427913191
:1024FC00803C031D842A4C082100200203188F2ADB
:10250C0074279131803C031D8D2A4C084B02031813
:10251C00C82A20005B0821002206031D972ABC262E
:10252C009131AD27913144312000CC002100220A99
:10253C002000A12ACC35890BA02A4C08FF3A810532
:10254C00AD2791314531CC002100220A2000AF2A61
:10255C00CC35890BAE2A4C08FF3A8105AD27913159
:10256C004331CC002100220A2000BD2ACC35890B36
:10257C00BC2A4C08FF3A810521002208533E8600F4
:10258C00870181012100200808002000CA00563E66
:10259C008600FF30870181004A08902391316B231C
:1025AC0091312000C8004A08563EF2279131902301
:1025BC0091316B2391312000C900153EC5000030CC
:1025CC0003180130C600803A803C031DEF2A4508F1
:1025DC0048020318F42A2000490808002000480883
:1025EC004907C500C601C60D460DC60CC50C4508ED
:1025FC00C7004A08563E86008030870181004A0891
:10260C00D42791310319642B4A08902391316B2301
:10261C00913120004702031C492B5A2B4A08533E88
:10262C008600033087018100AD2791314431C5000C
:10263C004A0A212BC535890B202B462B4A08533EC1
:10264C008600F03087018101810A860021308700E5
:10265C0001304331C5004A0A342BC535890B332B65
:10266C00462B4A08533E8600023087018100AD2775
:10267C0091314531C5004A0A442BC535890B432B92
:10268C0045088104562B4A08D4279131013A031985
:10269C00142B413A0319242BC03A0319372B562B10
:1026AC004A08AB239131642B4A08563E86008701B9
:1026BC004A08563E840085010036042B4A08563ED3
:1026CC00F2279131902391316B2B2400951220002D
:1026DC008E13AE01AE0AAF019723913121008E17F4
:1026EC0023008E17603021009E0025309D00ED27C1
:1026FC0091319723913121009D149D18832B230038
:10270C008E1321008E131B081C078F31D12721003B
:10271C001C0808002000B100AE003108D42791310C
:10272C00D42E2E082F0403190800CA30B000013033
:10273C00B100B0020030B13B300831040130031D50
:10274C009F2BAE020030AF3B972BAE00DB00080096
:10275C0005082200A1000408A00021003E08850005
:10276C003D088400FF302000DA0020000008220021
:10277C00AF00840A0319850AF0302F052100BF0031
:10278C00103A031DE92D200000081D26913122006E
:10279C00B800840A0319850A200000081D2691310F
:1027AC002200B7007E279131B5000408013E2100BC
:1027BC00BF000030053DC0003F082200B2002100E0
:1027CC0040082200B300472C3808B0003708B00589
:1027DC00542C38083704422C38083707422C370859
:1027EC003802422C37082000AE00220038088B310A
:1027FC0078239131392C37082000AE00220038089C
:10280C008F3181279131392CA80138080319132CE9
:10281C0037080319132CA801A80A2808422C3808D9
:10282C001D2C3808031D1C2C01301D2C00303706C4
:10283C00422C3808803A2100BF0022003708803A29
:10284C002100BF02031C362C382C3708803A21009B
:10285C00BF0022003808803A2100BF02031C382C2C
:10286C000130392C00302200422C38083706031D69
:10287C00412C0130422C0030B000542CCA30A9003D
:10288C0008002F08F03E031C442C84000D30040279
:10289C000318442C90310435003E82003008D927AF
:1028AC009131252691312200A62C02308407031881
:1028BC00850A05088426913104088426913102305A
:1028CC0084020030853B200000082200A4007E27F3
:1028DC009131A500240885002508A92CA727913142
:1028EC000319850A20000008BC00220035082526A3
:1028FC009131840A0319850ABB2B200000082200A1
:10290C00A2007E279131B600840A0319850ABD2CDA
:10291C00CF279131AA002B302000B9000130BA002A
:10292C00220036081D268A31692291312A30210075
:10293C00BB000130BC0048269131592CE327913162
:10294C003308850032088400BB2BE3279131942691
:10295C0091313A08BC0022003608572C210885001A
:10296C002008840036081D262200A9000800220831
:10297C00003A0319B42C013A0319A42C033A031995
:10298C008E2C013A0319AB2CBB2B20000008220023
:10299C00A300840A0319850A042DCF272000DA022C
:1029AC00F130C9002130CA005A08C9070318CA0AF5
:1029BC008D31AB259131033038269131592C0508D6
:1029CC00B3000408B2002000F030DA0A2100BB008A
:1029DC002130BC0020005A082100BB070318BC0A98
:1029EC00482691315A0885279131DA07592C7B26D4
:1029FC00913184007B2691318500BB2B2308013A51
:102A0C000319E52C033A0319D32C063A0319FD2CB0
:102A1C001C2EA72791310319850A33269131BC004E
:102A2C002200350825269131BB2BA2279131DE27B8
:102A3C0091311D26913138269131BB2BB82791311C
:102A4C00840A0319850A332691312200B100340817
:102A5C00F03E2100BF002130C001C03D3F08860080
:102A6C004008870022003108810031080319BB2B74
:102A7C00B40A332691312100BF0022003408F03E05
:102A8C002100C0002130C101C13D40088600410831
:102A9C0087003F0881002200B1033B2DB8279131FC
:102AAC00840A0319850A340885279131B10034084A
:102ABC003107AE0034082E02031CBB2B2E088527D1
:102ACC0091313826913122002E080319BB2BAE030D
:102ADC00602DA22791317E279131B500DE279131EF
:102AEC001D2691312200B800B81F8F2D3808210007
:102AFC00BF00C001BF1BC003BF09C009BF0A031937
:102B0C00C00A3F082200A600210040082200A700AE
:102B1C00942D3808A600A701A61BA7032608D927C1
:102B2C00913125269131BB2BA72791310319850AA9
:102B3C00C3279131D927913125269131BB2BA2275F
:102B4C009131DE2791311D2691312100BF00F130EA
:102B5C008600213087003F088100BB2BC3279131B1
:102B6C000319BB2B033084070318850ABB2BB8272A
:102B7C0091317E279131B6007E279131B500840AC0
:102B8C000319850A51302F06031DD92D35081D2632
:102B9C009131BC00220036081D26913122003407E9
:102BAC0025269131BB2B36081D2691312200340786
:102BBC001D269131BC002200350825269131BB2BF6
:102BCC00C130A900080022002F08003A03191C2E5E
:102BDC00053A0319832C033A0319CB2C0E3A03192B
:102BEC00742C023A03191B2D013A03190F2D073AC5
:102BFC0003196F2D013A0319242D033A0319542D8F
:102C0C003E3A03199A2D013A0319A52D713A03196D
:102C1C00B42D103A0319BD2D013A0319BD2D313ACB
:102C2C000319692C013A03195B2CE62DBB2B2000F0
:102C3C00AE002E08031900342E088527080020004A
:102C4C00BF00F03EBD002130BE01BE3D3D088600F8
:102C5C003E0887003C08810008002000DA0A5A0868
:102C6C00852708002000B0005A08F03EAE00213045
:102C7C00AF01AF3D2E0886002F0887003008810079
:102C8C00DA0308003B08BD2791317D3E0318502E16
:102C9C008A31552A3B08BD2791317A3E3B080318EF
:102CAC00612E013E2000CE00003021003C3D200072
:102CBC00CF008A31CA2ABD279131683E3B080318E0
:102CCC00712E013E2000CE00003021003C3D200042
:102CDC00CF008B31162B013E2000B30000302100B9
:102CEC003C3D2000B4008D31132DFC0A7C08F03ED5
:102CFC00860022308701873D010808002000B000C3
:102D0C007C08F03EAE002230AF01AF3D2E088600AD
:102D1C002F08870030088100FC0308004130200098
:102D2C00B100C630B0004E30AF006D30AE007B0845
:102D3C00B5007A08B4007908B3007808B2008F3176
:102D4C00AC273108FB003008FA002F08F9002E08D8
:102D5C00F8003930F8073030F93D0030FA3DFB3DD2
:102D6C007B08BB007A08BA00BB130800942691318B
:102D7C003A08DB000330DB055B0803190800CA279F
:102D8C009131031D0800BC2EFF302000AE00003036
:102D9C00D4268C164C308E0490313A28AF009527EF
:102DAC0091312F08240091002000B0010F2F031047
:102DBC008C1E0314031CE52E20008C160A2F2000F9
:102DCC008C120A2F03108E1D0314031CF02E2000EE
:102DDC008E150A2F20008E110A2F03100E1D0314BE
:102DEC00031CFB2E20000E150A2F20000E110A2F9B
:102DFC0003108C1E0314031C062F20008C16082FA6
:102E0C0020008C120C308E060230B00A30020318EF
:102E1C001E2F2E08013A0319DD2E033A0319E82E52
:102E2C00013A0319F32EFC3A0319FE2E0A2F0A2F2E
:102E3C008E130800F727913123008C018D018E0130
:102E4C004F27913157279131F03086002130870080
:102E5C00F03044318101860021308700F03043315D
:102E6C0081018600213087004531810120001C3012
:102E7C00D401D501D60121009700CA269131CF018A
:102E8C00CF0AD62191312000CF0A4F080319080030
:102E9C00472F21008D160E1320000E1724008C11C5
:102EAC000800C030210095055A3020009500C13033
:102EBC00990001309800CE309700210011140B08B6
:102ECC00E038EF398B00080020004B08153ECC0091
:102EDC00003003180130CD00803A080020004B0868
:102EEC00EB3ECC00FF3003180030CD00803A0800D8
:102EFC00840A0319850A2000000822000800F03E0D
:102F0C00860021308701873D010808000030031836
:102F1C000130A1002208563E86002108080021003D
:102F2C008C120D1373308E053030240095009417DD
:102F3C001413200091110800200000082200B60094
:102F4C000800200000082200B500840A0800F030B8
:102F5C0086002130870001342208563E8600870106
:102F6C0003100800200000082200B40008008600AE
:102F7C003C0887000108803A0800F03086002130B8
:102F8C008700413101080800533E86008701010883
:102F9C0008000508B3000408B2000334563E86004E
:102FAC008701010808002000BC0022003508080039
:102FBC00840A0319850A360808000508B3000408BA
:102FCC00B20008002100BD009830BE0008002000AF
:102FDC00AE01AE0AAF0108008600870181014A08E4
:102FEC0008003C30210099041908FC39023899007A
:042FFC00991308001D
:020000040001F9
:04000E00FCCFCFDB79
:00000001FF
