:041208008A31932A6A
:101210007E1489312000111C1829CE3097009601C8
:101220008E31002689312000CC01CC0A1110912A80
:101230000B1D912A613095005A08AB000330AB05B5
:101240005A08AA00FC30AA0503302B020630031806
:10125000792AF0002B089031E0208931A900CE3E98
:10126000860087010108F700F801F71BF8037808EA
:10127000803A803C031D3E2977082A020318422940
:101280000130432900302000A6002908CF3E860007
:1012900087010108F700F801F71BF8037808803A86
:1012A000803C031D552977082A020318592901306B
:1012B0005A2900302000A7002908D03E8600870167
:1012C0000108F700F801F71BF8037808803A803C22
:1012D000031D6C2977082A0203187029013071292F
:1012E00000302000A8002908D13E860087010108AF
:1012F000F700F801F71BF8037808803A803C031DDB
:10130000832977082A0203188729013088290030A9
:101310002000A3002908D23E860087010108F700BB
:10132000F801F71BF8037808803A803C031D9A29DE
:1013300077082A0203189E2901309F2900302000D7
:10134000A4002908D33E860087010108F700F801B0
:10135000F71BF8037808803A803C031DB129770811
:101360002A020318B5290130B62900302000A50053
:101370002B08533E86008701010BCD292B08563ED2
:10138000860023080112031D01162B08563E860015
:1013900026080110031D0114E3292B08533E860083
:1013A000033087010106031D002A2B08563E8600E4
:1013B00023080112031D01162B08563E860026083D
:1013C0000113031D01172B08563E860027088110C4
:1013D000031D81142B08563E860024088111031D2D
:1013E00081152B08563E860025080111031D0115A5
:1013F0002B08563E860028088112031D81163F2ABD
:101400002B08533E8600023087010106031D3F2A48
:10141000A001A00A2608031D112A2308031D112A72
:10142000A0012008A600A101A10A2708031D1C2A6B
:101430002408031D1C2AA1012108A700A201A20A59
:101440002808031D272A2508031D272AA201220890
:10145000A8002B08563E8600870126080110031DB0
:1014600001142B08563E860027088110031D8114A5
:101470002B08563E860028080111031D01152B0874
:10148000013E8E3162268931882A04305E02031CB7
:101490005C2A5B088F316B27893104302000DE0223
:1014A0005F02031C5A2A5D088F31A127893104305D
:1014B0002000DF02DC0A7C2AFF308F31A12789312E
:1014C00020000630DB0AF0005B08013E9031F82076
:1014D0008931DD005F08DE000630F0005B08013E68
:1014E0009031F8208931C83E860087010108DF006D
:1014F00006305B02031C452A06305B06031D882A62
:101500003F305C02031C872ADC01DB01882ADC0AED
:10151000FE3020005A06031D8F2ACE01CE0ADA0AB9
:101520000B117E1009009231B12A60238A31003AF2
:1015300003199C2AF9258A31892DBD0000308B1BA7
:101540000130BC0011238A31BE003E080319080097
:101550008B130B238A3106302000AC00AD01B3247D
:101560008A313E08AD002930D4228A312000BB00E8
:101570003D08CA258A312B30D4228A312000BB0095
:101580003D0ACA258A312D30D4228A312000BB0081
:101590003D08023E860087013B0881003C1CD22AA0
:1015A0008B1708008B130800AE002400951620004E
:1015B0002D08F0228A3191112E08803824009100E4
:1015C0002000911DE02A91112D08553EDD258A311C
:1015D0002000911DE82A2D08262524001108080066
:1015E000AC00FC2A8C1208008E1108000E110800B5
:1015F0008C12F3308E0508002C08013A0319F22AE8
:10160000033A0319F42A013A0319F62AFC3A03199A
:10161000F82A0A2B0800BA0041258A3120003A082E
:10162000592DAC01AC0A2C08523E860002308701CD
:101630000106031D1D2B2C0808000430AC0A2C02E7
:1016400003180034132B00308B1B01302000B10035
:10165000210017082000B4008B1311258A31CE0118
:10166000CE0ACC01CC0A210017081438D5399700CE
:1016700000300B1901302000B2000B11003011189E
:101680000130B300111063002000340821009700DE
:101690002000311C4D2B8B174E2B8B132000321C3E
:1016A000532B0B15542B0B112000331C5A2B2000ED
:1016B00011145C2B20001110CE3097009601122DD2
:1016C00000308B1B01302000B200E9258A31112542
:1016D0008A310A30AC00AD01B3248A3121000E14E6
:1016E000F4258A31B3248A3100300E180130B1005C
:1016F00012258A31321C7E2B8B177F2B8B132000F7
:1017000031080800BC00EF258A31003A0319C42BC8
:10171000013A0319BA2B033A0319B02B013A031902
:10172000922BC42BC4258A31011C0314AE258A31A7
:101730000110031D011420003C08AD248A319A24B5
:101740008A312000BB003A080319FA2BA5258A31FB
:10175000803C031DAD2B37083B02031C022C082CD8
:10176000C4258A31811F0314AE258A318113031DDC
:1017700081179B2BC4258A31011F0314AE258A31A2
:101780000113031D01179B2B3C08553E8600FF30BB
:10179000870181069A248A312000BB00A5258A3161
:1017A000B90080303902031DD72B3B0837020318DC
:1017B000E52B2000A5258A31B90080303902031DB0
:1017C000E32B3608370203189B2B20009B258A3118
:1017D000031DEC2B37083B020318F72B20009B2539
:1017E0008A31031DF52B3708360203189B2B200086
:1017F0003C080B2C9B258A31031D002C37083B022B
:10180000031C082C20003C08523E86008701810101
:1018100020003B080800B500553E8600FF308701D8
:1018200081003508AD248A319A248A312000B30022
:101830003508553E8600870181013508AD248A317F
:101840009A248A312000B400153EB00000300318FD
:101850000130B100803A803C031D302C3008330247
:101860000318352C20003408080020003308340702
:10187000B000B101B10D310DB10CB00C3008B200A7
:10188000E3258A31810A3508D8258A310319942C39
:101890003508AD248A319A248A3120003202031C93
:1018A000762C892C3508523E860003308701810052
:1018B0002100C501C50A20003508FF3E9531582595
:1018C0008A31832C3508523E860087018101810AC6
:1018D0002100C401C40A832C3508523E8600023020
:1018E000870181002100C701C70A832C3508D8254C
:1018F0008A31013A0319522C413A0319622CC03A39
:1019000003196C2C832C20003508953158258A3119
:10191000942C3508553E860087013508553E8400D5
:10192000850100358100432CE3258A313508AD243B
:101930008A319A2C21008E1723008E1760302100E7
:101940009E0025309D00F4258A31B3248A31210080
:101950009D149D18A92C1C080800AF00AC002F088E
:10196000D8258A31C72C2C082D0403190800CA3049
:10197000AE000130AF00AE020030AF3B2E082F04A6
:101980000130031DBB2CAC020030AD3BB32CAD00CD
:10199000B7258A312D08240091002000AE01022DC8
:1019A00003108C1E0314031CD82C20008C16FD2C55
:1019B00020008C12FD2C03108E1D0314031CE32C3D
:1019C00020008E15FD2C20008E11FD2C03100E1D05
:1019D0000314031CEE2C20000E15FD2C20000E110C
:1019E000FD2C03108C1E0314031CF92C20008C16F4
:1019F000FB2C20008C120C308E060230AE0A2E0218
:101A0000031808002C08013A0319D02C033A0319D3
:101A1000DB2C013A0319E62CFC3A0319F12CFD2CBE
:101A2000FD2C8B2DD1258A31152D2000B001B00A57
:101A30003008EF258A310319202D3008AD248A3172
:101A40000430B00A300203180800182DAC00322D03
:101A50008C1608008E1508000E1508008C160C3028
:101A60008E0408002C08013A0319282D033A0319A3
:101A70002A2D013A03192C2DFC3A03192E2D402D45
:101A80000800B00021000D1620003008553E8600E9
:101A9000870101133008553E860081153008AD24BA
:101AA0008A3130082625240094171413303095000D
:101AB0000800B80038308600013087002E308400DE
:101AC000003085000A30AD0016001A00AD0B642D01
:101AD0003808553E860087010108B7002400951696
:101AE00020003808F0228A31911D742DB90191111E
:101AF00039082E3EDD258A312000911D7C2D0A30CB
:101B0000B90A3902031C772D3808262524009512BE
:101B100008006400080021000D138E130E1320002E
:101B20000D138E138E110E110E138C1224009512AC
:101B300020000D1308003608EB3EB700FF300318F5
:101B40000030B800803A803C08003608153EB700E7
:101B5000003003180130B800803A08000030031844
:101B60000130BA003C08553E86003A0808002100C2
:101B70008C120D1373308E053030240095009417AD
:101B800014132000911108003C08553E860087017F
:101B900003100800860087013B0881003E08AD0065
:101BA00008008C168E150E150E17240095160800C9
:101BB000553E86008701010808008600870101085C
:101BC0002400910008003508553E860087018101F8
:101BD00008008B1321000E1020000E100800523E4A
:101BE00086008701010808002000AC01AC0AAD01A5
:101BF00008008B130E1721000E1380311C280800DB
:101C000009268E31003A0319072E47268E314F26BA
:101C1000080000308B1B0130F6008D31E9258E3134
:101C200040268E310A30F000F1012C268E31210041
:101C30000E14F001F00AF1012C268E310030200044
:101C40000E180130F50042268E31761C292E8B1796
:101C50002A2E8B13750808007008710403190800F8
:101C6000CA30F2000130F300F2020030F33B720898
:101C700073040130031D342EF0020030F13B2C2E92
:101C80008D318B2D8D31D1258E31512608008B134E
:101C900020000E1721000E1380311C28080064005C
:101CA0000800F401F40A74088D31EF258E31031910
:101CB0005C2E740862268E310430F40A7402031814
:101CC0000800532EF300F00073088D31D8258E31B3
:101CD0006A260800F1008D31B7258E317108240085
:101CE0009100F201A92E031020008C1E0314031C86
:101CF0007C2E20008C16A42E20008C12A42E031003
:101D000020008E1D0314031C882E20008E15A42E87
:101D100020008E11A42E031020000E1D0314031C9E
:101D2000942E20000E15A42E20000E11A42E0310B8
:101D300020008C1E0314031CA02E20008C16A22E43
:101D400020008C120C308E060230F20A7202031848
:101D500008007008013A0319732E033A03197F2E05
:101D6000013A03198B2EFC3A0319972EA42EA42EA8
:101D70009631BB268E3138080339662795315825B0
:101D80008E319631BB268E313808C5004730B200FF
:101D90000030B3004508963129268E314730C20005
:101DA0000030C300D32EE62E4308BA004208B90023
:101DB000C830BB009131D3218E31162FC401F42ECF
:101DC000C401C40AF42E0230C400F42E4F08003AB5
:101DD0000319D42E013A0319DE2E033A0319E02E1B
:101DE000013A0319E32EF42E16278E31440860279A
:101DF0008E31031D082F4308B0004208AF000630A3
:101E0000AC0044089531B5258E31CE3EB1003D2F52
:101E10004308BA004208B9000630AC0044089531C6
:101E2000B5258E31CE3EBB009131D3294F08AC0091
:101E3000AD012D0866278E310319262F2D084F3E40
:101E4000860052278E31AD0A192FAD0A2D084F3E5C
:101E50008600870152278E312D084F3E86000108EB
:101E60000319362F03302D02031C252F2D084F3E5A
:101E7000860087012C0881000800310859278E311F
:101E800000088100310A86002F0884003008850090
:101E90000131000881003108023E59270231000853
:101EA000810008002D08503E840085010008810053
:101EB0000800860087012F0884003008850008008C
:101EC000533E860002308701010608004F3E86001F
:101ED000870101080800F10070278F317108A12FD8
:101EE000F000892F21008D1718308E040800210082
:101EF0008E16080021000E16080021008D1708001C
:101F000021008E16080021000E16080021008D17F2
:101F100008007008003A0319772F013A03197A2F45
:101F2000033A03197D2F013A0319802F073A031949
:101F3000832F013A0319862FFA3A0319722FA02F23
:101F40000800F000D42F21008D1320008D13CF3016
:101F500021008E0520008E050800F2270E122000B9
:101F60000E120800F2278E1220008E120800E730B1
:101F700021008E0520008E120E160800EC270E128E
:101F800020000E160800EC278E1220008E16080086
:101F9000E73021008E0520008E160E120800183042
:101FA00021008E040E1608007008003A0319AD2FA8
:101FB000013A0319B22F033A0319B72F013A031953
:101FC000BE2F073A0319C32F013A0319C82FFA3A53
:101FD0000319A32FCF2F080021008D1320008D138C
:101FE0002100080021008D1320008D17210008001A
:1020000093315F2B9331642B9331672B93316A2B80
:1020100093316D2B9331752B9331C42B93317D2BE1
:102020009331882B93318A2B9331922B93319E2BB2
:102030009331AE2B00346A34963485343D343D34CC
:06204000573457345734F9
:1021C000F200F10170087218F107F035F23672086A
:1021D000031DE2287108080064000130800101310C
:1021E000FE020030FF3B7F087E0403190034ED2817
:1021F000F2000830F300F4017208F1000730F13604
:10220000890BFF2874357104F400F23570087402EC
:10221000031C0C297008F402F30BFC287408080056
:10222000BD00BE013D08860087010108AC00AD017C
:10223000AC1BAD033508B7003408B6003E083607BE
:10224000840037080318370A85000008AE00AF0184
:10225000AE1BAF039C2291312D08BC002C08BB00A3
:102260003D0A860011279131033037279131AE1B8B
:10227000AF039C2291312C08BB072D08BC3D3D08C3
:10228000023E860011279131063037279131AE1B6F
:10229000AF039C2291312C08BB072D08BC3D3C08A4
:1022A000B6003E08B700B8013207B9003808333D20
:1022B000BA00390886003A088700360881000330E2
:1022C000BE0A3E020318080012294308BA00420859
:1022D000B900A030BB00D3212100B90139088F31EA
:1022E00060279131031DA729B80106302000AC00FA
:1022F00021003908B5259131A03E21003807200082
:10230000C400063E86008701210038082000C50071
:10231000C601592791319C2291312C084207C700F0
:102320002D08433DC80045084707C9004608483DF9
:10233000CA00490884004A0885000331000881006A
:1023400021000330B80A38020318C7297529200074
:102350004308BA004208B900592791319C229131B3
:102360002C08C4002D08C5004408B9074508BA3D2B
:102370000330B9070318BA0A0630AC002100390847
:10238000B5259131063EA03EBB00D32191312100FD
:102390000330B90A3902031C6E29A0302000AC00BA
:1023A0000030AD00982F202791310108031DDD2951
:1023B0003908532791310319F929390886003A0859
:1023C00087004231390884003A0885000131F2263D
:1023D00091310727913141310108AE00AF01AE1BA9
:1023E000AF039C22913184279131772291313208B9
:1023F000FE29390886003A0887000137BF003908EE
:1024000086003A0887003F080102BC0039085327BC
:102410009131031D0F2A4D2791310319292A3908BB
:1024200086003A088700423102279131F226913125
:1024300041310727913142310108AE00AF01AE1B97
:10244000AF039C2291318427913177229131320858
:102450002C2A202791310137C000202791314008D4
:102460000102BD004D279131031D3B2A20279131E8
:1024700001080319512A2027913102279131F226B0
:1024800091314231072791310108AE00AF01AE1BF7
:10249000AF039C2291318427913177229131320808
:1024A000542A622791310137C10062274108010295
:1024B000BE003B08860087013F0881003B0A86007A
:1024C0003D0881003B08023E8600410881003B0830
:1024D000033E86003C0881003B08043E860040081D
:1024E00081003B08053E86003E0881000800B701D8
:1024F000B801320833040319972AB601B60AB31B90
:10250000842AB235B30D7E2AB735B80D33083502AB
:10251000031D8C2A32083402031C932A3208B402A9
:102520003308B53B3714B336B20CB60B842A3808DF
:10253000B3003708B2000800B001B1012C1CA42A76
:102540002E08B0072F08B13DAE35AF0DAD36AC0C3F
:102550002C082D04031D9E2A3108AD003008AC0064
:102560000800F0308400223085000130FE01FF00B9
:102570009031EC2091314B308400003085001530D3
:10258000FE00FF019031EC209131C2308400003018
:1025900085001E30FE00FF019031EC2091310130AA
:1025A000E000E101E201E30122006030B8004730C1
:1025B000B9000030BA01BB01BC01BD01BE01BF01C1
:1025C000C001C1017E102000E52A2100C101E226E0
:1025D00091317A25913100305825913106308E277E
:1025E000913125239131132BCD0121009830BC016D
:1025F000BD0025239131132B7A258A319522913103
:1026000020000030CC01CE015825913103308E27B7
:102610009131252391312100C101132BCE019A253F
:1026200091312100C10020004D08031DF42A4C08FF
:10263000031DFC2A4E08031D0E2B2100410803191F
:10264000132B8B3123239131132B05082200A1007A
:102650000408A00021003D0885003C088400FF30EC
:102660002000D900200000082200AF00840A0319CE
:10267000850AF0302F052100BE00103A031D022DFF
:10268000200000082D2591312200B7002627913126
:102690002D2591312200B600262791312200B2006B
:1026A0000408013E2100BE000030053DBF003E0889
:1026B0002200B40021003F082200B500B72B3708E4
:1026C000B1003608B105C42B37083604B52B3708DE
:1026D0003607B52B36083702B52B36082000AC007C
:1026E00022003708B5259131AC2B36082000AC000C
:1026F00022003708FE259131AC2BA80137080319B9
:10270000862B36080319862BA801A80A2808B52BA2
:102710003708902B3708031D8F2B0130902B00308A
:102720003606B52B3708803A2100BE002200360855
:10273000803A2100BE02031CA92BAB2B3608803A3D
:102740002100BE0022003708803A2100BE02031C8F
:10275000AB2B0130AC2B00302200B52B37083606EE
:10276000031DB42B0130B52B0030B100C42B2F0852
:10277000F03E031C080084000D300402031808001A
:1027800090310435003E820031088927913135258A
:10279000913122001B2C0508432591310408432563
:1027A0009131200000082200A40026279131220048
:1027B000A5002408850025081E2C482791312627CE
:1027C0009131BA002200320835259131840A03196B
:1027D000850A322B200000082200A2002627913112
:1027E0002200B300840A0319850A2208003A03195B
:1027F000292C013A0319192C033A0319032C013A25
:102800000319202C322B7A279131AB002C30200079
:10281000B2000130B300220033082D259131292662
:1028200091312B302100BA000130BB00CD25913110
:10283000C92B932791313508850034088400322B49
:1028400093279131BB2691313808BA002200330812
:10285000C72B210885002008840033082D2D200077
:1028600000082200A300840A0319850A612C7A2734
:1028700091312000D902F130C2002230C300590842
:10288000C2070318C30AC225913103304325913191
:10289000C92B0508B5000408B4002000F030D90A9F
:1028A0002100BA002230BB00200059082100BA07DD
:1028B0000318BB0ACD259131590841279131D90719
:1028C000C92B2308013A0319492C033A0319372C61
:1028D0002C2D48279131840A0319850A53259131FB
:1028E000BA002200320835259131322B6827913108
:1028F0007F2791312D25913143259131322B2000B5
:1029000000082200AA00840A0319850A5325913180
:102910002200B0002A08F03E2100BE002230BF0194
:10292000BF3D3E0886003F08870022003008810036
:1029300030080319322BAA0A532591312100BE0019
:1029400022002A08F03E2100BF002230C001C03D15
:102950003F088600400887003E0881002200B0033F
:10296000982C68279131262791312200B2007F27C9
:1029700091312D2591312200B700B71FD22C370895
:102980002100BE00BF01BE1BBF03BE09BF09BE0AB6
:102990000319BF0A3E082200A60021003F082200BA
:1029A000A700D72C3708A600A701A61BA703260857
:1029B0008927913135259131322B48279131840A6D
:1029C0000319850A73279131892791313525913172
:1029D000322B682791317F2791312D2591312100AC
:1029E000BE00F1308600223087003E088100322B85
:1029F000732791310319322B033084070318850A9A
:102A0000322B080022002F08003A03192C2D053A1A
:102A10000319EA2B033A03192F2C0E3A0319DD2B65
:102A2000023A0319762C013A0319692C073A031963
:102A3000B12C013A03197F2C3D3A0319DD2C013AE0
:102A40000319E92C713A0319F82C203A0319D12BF8
:102A5000013A0319CB2B012D322B2000AC002C089E
:102A6000031900342C08412708002000BD00F03E67
:102A7000BB002230BC01BC3D3B0886003C088700FF
:102A80003A08810008002000AE005908F03EAC0072
:102A90002230AD01AD3D2C0886002D0887002E08A0
:102AA0008100D90308002000D90A590841270800ED
:102AB0002000AC00AD012D084F3E860087010108C3
:102AC0002C060319742D0330AD0A2D060319742D3D
:102AD0005B2D2D084F3E860087012D084E3E840059
:102AE000850100088100AD032D08031D692D2C0808
:102AF000CF00080000308B1B01302000BD008B137D
:102B00008C319A2491312000BE00BF01BF0A3E08DB
:102B1000B6003F088B31822391312000BE00043083
:102B2000BF0A3F02031C872D3D1C982D8B17080000
:102B30008B130800AC01AC0AAD012D08C83E86001D
:102B4000870101080319AE2D2D08C83E86002D0807
:102B5000C83E8400850100368100AC011830AD0A02
:102B60002D02031C9D2D2C0808002000AE00AD0195
:102B70002C082E18AD07AC35AE362E08031DB82D27
:102B80002D08080044308A319D22913120004308ED
:102B9000C0004208BF004430E22F3A086D2791314F
:102BA0007D3E0318D52D8E31B82E3A086D27913110
:102BB0007A3E3A080318E62D013E2000C20000309C
:102BC00021003B3D2000C3008E31D32E6D27913173
:102BD000683E3A080318F52D013E2000C20000307F
:102BE00021003B3D2000C3006529013E2000AC00D0
:102BF000003021003B3D2000AD00982F2000B000A8
:102C0000AE01AC1F072EAC09AC0AAE01AE0AB01F74
:102C10000D2E0130B009B00AAE06AF012C08031921
:102C2000222EAD01AD0AAC1B172EAC35122EAF35DE
:102C30002C083002031C1F2E2C08B0022F14AC36B7
:102C4000AD0B172E2E080319272EAF09AF0A2F0838
:102C50000800B8005530AC00380889269131D63EBE
:102C6000A1269131B700AC00FA30AD01AE00FF30C3
:102C7000AF009C2291312C08FF3EB40000302D3D66
:102C8000B500350DB50CB40C3408B9002B30380242
:102C90000318502E7F30BA003908BB00BC01772ED4
:102CA000553038020318582E3908BA007F304D2E9F
:102CB000803038020318612E7F30BA01BB0039081A
:102CC000692EAB30380203186B2EBA013908BB00ED
:102CD0007F30BC00772ED53038020318732E3908A8
:102CE000BA00BB01682E7F30BA00BB015F2E3208EC
:102CF0008600330887003A0881003B08B400320898
:102D0000013E2C2791313C08B4003208023E2C27AA
:102D10000800AE000830AF00B0012E08AD0007304B
:102D2000AD36890B902E30352D04B000AE352C0811
:102D30003002031C9D2E2C08B002AF0B8D2E3008E4
:102D40000800B000803A7F3E30080318B52EAC0072
:102D5000AD01AC1BAD03AC09AD09AC0A0319AD0A5A
:102D60002C08AE002D08AF00B92EAE00AF01AE1B8F
:102D7000AF032E08080041302000AF00C630AE007F
:102D80004E30AD006D30AC006308B3006208B20095
:102D90006108B1006008B000BD272F08E3002E08CD
:102DA000E2002D08E1002C08E0003930E007303067
:102DB000E13D0030E23DE33D6308B9006208B80040
:102DC000B9130800B527913123008C018D018E01C4
:102DD000AD279131ED27C401C501C201C701C6016C
:102DE000C301080000080107B200B3010318B30AC9
:102DF000801BB303811BB3032000390886003A0807
:102E000087000800390884003A0885000800010896
:102E1000AC00AD01AC1BAD03390886003A08870051
:102E2000080087010108AC00AD01AC1BAD033E08F2
:102E3000B600B7013407B8003708353DB9000800BF
:102E4000390886003A08870041310800840A0319CE
:102E5000850A200000080800B5000030333DB600A8
:102E600035088600360887003408810008003807D6
:102E7000840039080318390A85000008AE00AF0144
:102E80000800F03E860022308701873D01080800D7
:102E9000200000082200B2000800390886003A0825
:102EA00087000108080086003A08870042310108BF
:102EB0000800210039082000AC000330AD01AE004D
:102EC000AF010800390886003A088700423108003F
:102ED000200000082200B300080086003B0887009D
:102EE0000108803A0800F030860022308700413126
:102EF000010808000508B5000408B4000334840A7A
:102F00000319850A330808002D08B5002C08B40001
:102F100008002000BA002200320808002100BC008E
:102F20009830BD0008000508B5000408B40008008A
:102F3000B0013008C83E860087013008AE00AF01FE
:102F40002C0784002F082D3D8500000881001830D3
:102F5000B00A300203180800992F21008D160E13B5
:102F600020000E1724008C1108003C309904190829
:102F7000FC390238990099130800B401B501B60173
:102F8000B7012C1CCB2F3008B4073108B53D3208EF
:102F9000B63D3308B73DB035B10DB20DB30DAF3608
:102FA000AE0CAD0CAC0C2F082E042D042C04031D0C
:102FB000C12F3708AF003608AE003508AD00340821
:102FC000AC000800C1004008B3003F08B2001A304E
:102FD000B4009030B50041081029C030210095059B
:102FE0005A3020009500C130990001309800CE3051
:102FF0009700210011140B08E038EF398B0008000E
:020000040001F9
:04000E00FCCFCFDB79
:00000001FF
