:041208008A31532AAA
:101210007E1489312000111C1729CE3097008E31A1
:10122000A42689312000D101D10A1110512A0B1DA9
:10123000512A613095005C08AD000330AD055C08B3
:10124000AC00FC30AC0503302D02063003183A2AFE
:10125000F0002D08903124208931AB00C93E860072
:10126000870101082C020318372901303829003082
:10127000A8002B08CA3E8600870101082C0203182B
:101280004329013044290030A9002B08CB3E8600B9
:10129000870101082C0203184F2901305029003022
:1012A000AA002B08CC3E8600870101082C020318F7
:1012B0005B2901305C290030A5002B08CD3E86005B
:1012C000870101082C0203186729013068290030C2
:1012D000A6002B08CE3E8600870101082C020318C9
:1012E0007329013074290030A7002D08543E860070
:1012F0008701010B8A292D08573E86002508011217
:10130000031D01162D08573E860028080110031DF5
:101310000114A0292D08543E8600033087010106E0
:10132000031DBD292D08573E860025080112031D07
:1013300001162D08573E860028080113031D0117CA
:101340002D08573E860029088110031D81142D08A1
:10135000573E860026088111031D81152D08573E32
:10136000860027080111031D01152D08573E860030
:101370002A088112031D8116FC292D08543E86007F
:10138000023087010106031DFC29A201A20A2808D8
:10139000031DCE292508031DCE29A2012208A8007D
:1013A000A301A30A2908031DD9292608031DD92949
:1013B000A3012308A900A401A40A2A08031DE42903
:1013C0002708031DE429A4012408AA002D08573E7C
:1013D0008600870128080110031D01142D08573EBF
:1013E000860029088110031D81142D08573E8600B0
:1013F0002A080111031D01152D08013E8F316627B2
:101400008931492A60080319232A5D08903179201F
:1014100089312000E00361080319142A5F08903124
:10142000AF2089312000E1035E0F1A2AFF30A000AF
:10143000A101202A5E08A000A101A00A0319A10AA7
:101440002008DE003D2AFF309031AF208931200096
:101450000630DD0AF0005D08013E903142208931FE
:10146000DF006108E0005F08C33E860087010108D5
:10147000E10006305D02031C022A06305D06031DF2
:10148000492A3F305E02031C482ADE01DD01492A59
:10149000DE0AFE305C06031D4F2AD301D30ADC0AA4
:1014A0000B117E10090091316729963197268A31F8
:1014B0003A082100A100A3302000B9000030BA0092
:1014C0002100210869228A31A330CE000030CF00EC
:1014D000CA2A2000BF005530AE003F08BC248A3124
:1014E000D63ED4248A31BE00B300FA30B401B50030
:1014F000FF30B600DC238A313308FF3EBB000030EA
:10150000343DBC003C0DBC0CBB0C3B08C0002B3078
:101510003F020318912A7F30C1004008C200C30176
:10152000B82A55303F020318992A4008C1007F307D
:101530008E2A80303F020318A22A7F30C101C200E8
:101540004008AA2AAB303F020318AC2AC101400868
:10155000C2007F30C300B82AD5303F020318B42A36
:101560004008C100C201A92A7F30C100C201A02ADF
:10157000390886003A088700410881004208BB000C
:101580003908013E5B258A314308BB003908023E19
:101590005B250800DF2A4F08C1004E08C000C33099
:1015A000C20019249631BF2E2100A001ED2A21008E
:1015B000A001A00AED2A02302100A000ED2A5B085C
:1015C000003A0319CB2A013A0319D42A033A031922
:1015D000D72A013A0319DB2AED2A9631BF268A3130
:1015E000210020089B258A31031D082B20007B2524
:1015F0008A3178238A31C93EBB00BC01F1238A318C
:101600007B258A3178238A31CC3EBB00BC01F12B8B
:1016100020004F08C1004E08C0000630AE00210077
:10162000200878238A31C93EC200192C4F08C10016
:101630004E08C000A230C20019248A312100BA012C
:101640003A089B258A31031D4B2B20004B258A31FC
:1016500042258A31DC238A313A258A312A258A318A
:1016600078238A31063EA23EBB00BC01F1238A31B9
:101670004B258A3142258A31DC238A313A258A3149
:101680002A258A3178238A31093EA23EBB00BC015B
:10169000F1238A316C2B20004F08C1004E08C00096
:1016A00042258A31DC238A313A258A3120082000FC
:1016B000C007210021082000C13D0330C0070318E6
:1016C000C10A0630AE0021003A0878238A31063E6E
:1016D000A23EC20019248A3121000330BA0A3A021C
:1016E000031C202BA2302000B3000030B400132DC7
:1016F0002000B000AF012E083018AF07AE35B0366D
:101700003008031D7B2B2F080800C800023E8425EB
:101710008A31B31BB4035730B500B601DC238A31DC
:101720003408C7003308C600480A84258A31B31B31
:10173000B4033D30B500B601DC238A313408C30060
:101740003308C200480884258A31B31BB4036A30C9
:10175000B500B601DC238A313408C5003308C40063
:10176000480A84258A31B31BB4038530B500FF30A5
:10177000B600DC238A3146083307BB004708343DF6
:10178000BC00BD00390886003A0887003D0881008A
:1017900042084407BB004308453D71258A31013E9C
:1017A00050258A3144084202BB004508433B71255D
:1017B0008A31023E50250800B701B801331CE42BE2
:1017C0003508B7073608B83DB535B60DB436B30C95
:1017D00033083404031DDE2B3808B4003708B30087
:1017E0000800390886003A0887000108D4248A31A5
:1017F000BD003B0886003C0887003D088100390891
:1018000086003A08870041310108D4248A31BD009E
:101810003B08013E66258A31390886003A08870070
:1018200042310108D4248A31BD003B08023E6625BE
:1018300008004108BA004008B9004108BC0040084F
:10184000BB00F1238A318B13CD01A6258A31BC243C
:101850008A318A258A31031D352CA1258A31BC2481
:101860008A318A258A310319812C4D084207C30029
:10187000860003308701AE004D08013EBC248A314A
:1018800093258A310008C600A1258A31BC248A31FB
:10189000C700C801400784004808413D850046084C
:1018A0000007B900BA010318BA0AC61BBA03801BA5
:1018B000BA0320004D08C900CA01400784004A0845
:1018C000413D85000008B300B401B31BB403A62555
:1018D0008A31BC248A31CB00CC01400784004C08FB
:1018E000413D85000008B500B601B51BB603DC23F9
:1018F0008A313408BC003308BB00EE248A31390831
:101900008A2C4D084207C300860087014D089325A5
:101910008A31003781004D084207C300033E86002C
:1019200087014D084207C400840085010008C500F6
:101930004D08C600C701400784004708413D8500A7
:101940000008C8004508480281000330CD0A4D0256
:10195000031C252C42088600443FCD004208043E6B
:101960008600420A8400850100088100420A860040
:101970004D0881008B170800B0000830B100B2019B
:101980003008AF000730AF36890BC32C32352F0437
:10199000B200B0352E083202031CD02C2E08B20241
:1019A000B10BC02C32080800B200803A7F3E3208EA
:1019B0000318E82CAE00AF01AE1BAF03AE09AF09B0
:1019C000AE0A0319AF0A2E08B0002F08B100EC2CA4
:1019D000B000B101B01BB10330080800BE01BF0167
:1019E00039083A0403190E2DBD01BD0ABA1BFB2CA0
:1019F000B935BA0DF52CBE35BF0D3A083C02031DB2
:101A0000032D39083B02031C0A2D3908BB023A0892
:101A1000BC3B3E14BA36B90CBD0BFB2C3F08BA00D8
:101A20003E08B9000800B7013708C33E86008701A9
:101A30003708B500B601330784003608343D850009
:101A40000008D4248A3181001830B70A37020318FD
:101A50000800142D20082000B907210021082000CB
:101A6000BA3D0330B9070318BA0A0630AE002100A8
:101A70003A08080033082100A000200034082100A3
:101A8000A100080021003A082000B3000330B4018F
:101A9000B500B60108004F08BA004E08B9000800AA
:101AA000C00000303A3DC100400886004108870070
:101AB0003F0881000800BC0000303A3DBD003C08F2
:101AC00086003D0887003B0881000800BE0000300A
:101AD0003C3DBF003E0886003F0887003D0881006E
:101AE0000800BC0046083B07BD0047083C3DBE005F
:101AF000BF00390808004F08BA004E08B900063088
:101B0000AE00210020080800860087010108B3000C
:101B1000B4010800C300C401400786004408413DE9
:101B2000870001080800C400C5014007840045087B
:101B3000413D85000800543E8600023087010106C1
:101B400008000330AE004D08023E08000330AE002E
:101B50004D08013E08004B30E4254A08BA00490808
:101B6000B9004B308B31852BBA00393086000130FB
:101B7000870030308400003085000A30AF00160046
:101B80001A00AF0BBF2D3A08563E860087010108A8
:101B9000B9002400951620003A0830268D31911D99
:101BA000CF2DBB0191113B08303E9E268D31200088
:101BB000911DD72D0A30BB0A3B02031CD22D3A08D7
:101BC0006326240095120800BE0051268D31BF0007
:101BD0003F08031908008B134B2606302000AE0087
:101BE000AF01933191238D313F08AF002930142686
:101BF0008D312000BD003E0897268D312B301426F4
:101C00008D312000BD003E0A97268D312D301426DF
:101C10002000BD003E08023E860087013D0881008D
:101C20008B173F08DB000800B00024009516200049
:101C30002F0830268D319111300880382400910012
:101C40002000911D202E91112F08563E9E268D3189
:101C50002000911D282E2F0863262400110808005B
:101C6000AE003C2E8C1208008E1108000E110800E8
:101C70008C12F3308E0508002E08013A0319322E1B
:101C8000033A0319342E013A0319362EFC3A03198C
:101C9000382E4A2E0800BC007E268D3120003C08DC
:101CA000B42DAE01AE0A2E08533E860002308701E5
:101CB0000106031D5D2E2E0808000430AE0A2E0218
:101CC00003180034532EAE006F2E8C1608008E15AC
:101CD00008000E1508008C160C308E0408002E0823
:101CE000013A0319652E033A0319672E013A0319C5
:101CF000692EFC3A03196B2E7D2E0800B2002100DC
:101D00000D1620003208563E860087010113320866
:101D1000563E86008115320893318A238D31320870
:101D200063262400941714133030950008008600B1
:101D300087013D0881003F08AF0008008600870149
:101D40000108240091000800AF268E31003A0319E3
:101D5000AD2EF3268E31F4268E31F82608000030A1
:101D6000F701F70A8B1B0130F5008B13F3268E3138
:101D7000F601D42E643076020318D72E21000E10FF
:101D800020000E10F001F00AF101DF268E31210053
:101D90000E14F001F00AF101DF268E310030200030
:101DA0000E180130F700F60A7708031DBA2EFA263E
:101DB0007508031D8B1703198B137708080070082B
:101DC000710403190800CA30F2000130F300F20276
:101DD0000030F33B720873040130031DE72EF0025C
:101DE0000030F13BDF2E6E2F7C2780311C2808004D
:101DF00064000800FF30F000003004278E318C169C
:101E00004C308E0455270800F10097319A278E3107
:101E1000710824009100F201432F031020008C1E52
:101E20000314031C162F20008C163E2F20008C124A
:101E30003E2F031020008E1D0314031C222F2000B0
:101E40008E153E2F20008E113E2F031020000E1DF8
:101E50000314031C2E2F20000E153E2F20000E1100
:101E60003E2F031020008C1E0314031C3A2F200069
:101E70008C163C2F20008C120C308E060230F20A99
:101E800072020318522F7008013A03190D2F033AFA
:101E90000319192F013A0319252FFC3A0319312F81
:101EA0003E2F3E2F20008E130800F401F40A740820
:101EB0009731CF278E310319602F740866278E3132
:101EC0000430F40A740203180800572FF300F000DE
:101ED00073089731D9278E310427080021000D138C
:101EE0008E130E1320000D138C1224009512333024
:101EF00020008E050D1308008B130E1721000E1302
:101F000008002000B200B001AE1F8A2FAE09AE0A51
:101F1000B001B00AB21F902F0130B209B20AB00668
:101F2000B1012E080319A52FAF01AF0AAE1B9A2FDE
:101F3000AE35952FB1352E083202031CA22F2E0884
:101F4000B2023114AE36AF0B9A2F30080319AA2F04
:101F5000B109B10A31080800B601B701B801B901E9
:101F60002E1CBA2F3208B6073308B73D3408B83DE7
:101F70003508B93DB235B30DB40DB50DB136B00C61
:101F8000AF0CAE0C310830042F042E04031DB02F0B
:101F90003908B1003808B0003708AF003608AE0085
:101FA0000800AF01AF0AB0013008C33E86008701C8
:101FB00001080319ED2F3008C33E86003008C33EE8
:101FC000840085010008AE00AE36AE363008C33E50
:101FD000840000362E078100AF011830B00A3002AD
:101FE000031CD42F2F080800640001308001013148
:101FF000FE020030FF3B7F087E0403190034F52FFA
:102000009331E42B9331E92B9331EC2B9331EF2B6C
:102010009331F22B9331FB2B94314E2C9431042CC1
:1020200094310F2C9431112C9431192C9431252C8E
:042030009431352C86
:10204200AE00FC000800F200F10170087218F107FE
:10205200F035F2367208031D262871080800B20115
:10206200B20A32089731CF27903103193C2832083F
:1020720093318A2390310430B20A320203180800E5
:102082003228F2000830F300F4017208F100073040
:10209200F136890B492874357104F400F235700861
:1020A2007402031C56287008F402F30B46287408C5
:1020B20008002000C4001508BE00BF014408C0008B
:1020C200C10196319726903140083A07C200410873
:1020D2003B3DC3003E084207BC003F08433DBD00F4
:1020E20072283C08F8003D08F900FA01FB010800DB
:1020F200F1007E2090317108AF28F000972821006E
:102102008D1718308E04080021008E160800210059
:102112000E16080021008D17080021008E160800F7
:1021220021000E16080021008D1708007008003AE1
:1021320003198528013A03198828033A03198B28C1
:10214200013A03198E28073A03199128013A031913
:102152009428FA3A03198028AE280800F000E228F1
:1021620021008D1320008D13CF3021008E05200019
:102172008E050800FA200E1220000E120800FA2026
:102182008E1220008E120800E73021008E052000FA
:102192008E120E16080000210E1220000E160800E4
:1021A20000218E1220008E160800E73021008E05D5
:1021B20020008E160E120800183021008E040E1612
:1021C20008007008003A0319BB28013A0319C02815
:1021D200033A0319C528013A0319CC28073A03190F
:1021E200D128013A0319D628FA3A0319B128DD2871
:1021F200080021008D1320008D1721000800210006
:102202008D1320008D132100080017082000B6004E
:102212008B135D219131D301D30AD101D10A7C08FC
:102222002100970011108B1263008B1621001114EC
:102232002000360821009700CD269131CE3097003C
:1022420011108B1724292E219131003A03192D29BF
:102252005D2191315F219131652920000030B50166
:10226200B50A8B1B0130B3008B135D219131B40190
:102272005229643034020318552921000E1020001F
:102282000E10AE01AE0AAF019123913121000E145E
:10229200ED2791319123913100300E180130B500B4
:1022A200B40A3508031D3A29CD263308031D8B17BE
:1022B20003198B13350808008F316E2F8F317C275D
:1022C200913180311C28080064000800F03084003D
:1022D200213085000230FE01FF008F31F427913159
:1022E2005030FD018400003085001230FE000030C5
:1022F200FF008F31F4279131C33084000030850014
:102302001830FE000030FF008F31F4279131013088
:10231200F8000030F900FA00FB0022006030B9003A
:102322004730BA000030BB00BC00BD00BE00BF0099
:10233200C000C100C2007E1020009F2923279131D6
:10234200CD269131D0219131242191310630E827D7
:102352009131A8239131C229D0219131200000303E
:10236200D101A52391310330E8279131A82391317E
:102372002100C201C229D3018F31D127913121001D
:10238200C20020005108031DAD295308031DBC29BA
:10239200210042080319C22906219131C2298B1357
:1023A200AE01AE0AAF019123913165239131A300B1
:1023B200A401A40A23082000CB0021002408EB2159
:1023C20091312100A3000430A40A2402031CDB295A
:1023D2008B170800A200CF279131003A0319192A5E
:1023E200013A03190F2A033A0319052A013A03197C
:1023F200FB29192AB7279131011C03149127913126
:102402000110031D0114532AB7279131811F0314B0
:10241200912791318113031D8117532AB7279131D7
:10242200011F0314912791310113031D0117532A30
:102432002208563E8600FF308701810622088A2341
:10244200913165239131A0006F279131803C031DAA
:102452002D2A4C0821002002031C382A6F279131B3
:10246200803C031D362A4C084B02031C502A792754
:102472009131CE0080304E02031D432A21002008F4
:1024820020004C02031C532A79279131CE00803060
:102492004E02031D4E2A4B084C020318532A2100F8
:1024A2002208C52A210022088A239131652391310D
:1024B200A00021080319722A6F279131803C031D65
:1024C200652A4C0821002002031C892A6F279131BA
:1024D200CE0080304E02031D702A4B084C02031CB2
:1024E200892A21002108031D802A79279131803C05
:1024F200031D7E2A4C08210020020318892A79270D
:102502009131803C031D872A4C084B020318C22AD2
:1025120020005B0821002206031D912ABF2691316B
:10252200B227913144312000CC002100220A200040
:102532009B2ACC35890B9A2A4C08FF3A8105B2278F
:1025420091314531CC002100220A2000A92ACC3544
:10255200890BA82A4C08FF3A8105B22791314331F1
:10256200CC002100220A2000B72ACC35890BB62ADA
:102572004C08FF3A810521002208533E860087015C
:1025820081012100200808002000CA00563E860072
:10259200FF30870181004A088A23913165239131F6
:1025A2002000C8004A08563EF22791318A23913111
:1025B200652391312000C900153EC5000030031883
:1025C2000130C600803A803C031DE92A45084802D2
:1025D2000318EE2A2000490808002000480849078D
:1025E200C500C601C60D460DC60CC50C4508C70080
:1025F2004A08563E86008030870181004A08D92762
:10260200913103195E2B4A088A2391316523913156
:1026120020004702031C432B542B4A08533E8600DA
:10262200033087018100B22791314431C5004A0A43
:102632001B2BC535890B1A2B402B4A08533E8600AB
:10264200F03087018101810A860021308700013044
:102652004331C5004A0A2E2BC535890B2D2B402B41
:102662004A08533E8600023087018100B227913129
:102672004531C5004A0A3E2BC535890B3D2B45081D
:102682008104502B4A08D9279131013A03190E2BA4
:10269200413A03191E2BC03A0319312B502B4A0819
:1026A200A52391315E2B4A08563E860087014A08CF
:1026B200563E840085010036FE2A4A08563EF2271D
:1026C20091318A239131652B2400951220008E13BB
:1026D200AE01AE0AAF019123913121008E17230082
:1026E2008E17603021009E0025309D00ED2791312C
:1026F2009123913121009D149D187D2B23008E136F
:1027020021008E131B081C0790315A2021001C083F
:1027120008002000B100AE003108D9279131D72E30
:102722002E082F0403190800CA30B0000130B1008E
:10273200B0020030B13B300831040130031D992B47
:10274200AE020030AF3B912BAE00DB000800050863
:102752002200A1000408A00021003E0885003D08D7
:102762008400FF302000DA00200000082200AF00C1
:10277200840A0319850AF0302F052100BF00103AA0
:10278200031DEC2D20000008202691312200B80004
:10279200840A0319850A20000008202691312200AC
:1027A200B70083279131B5000408013E2100BF0024
:1027B2000030053DC0003F082200B2002100400861
:1027C2002200B300412C3808B0003708B0054E2C67
:1027D200380837043C2C380837073C2C37083802B5
:1027E2003C2C37082000AE00220038088B317823B9
:1027F2009131332C37082000AE00220038088F3187
:1028020081279131332CA801380803190D2C370880
:1028120003190D2CA801A80A28083C2C3808172CEB
:102822003808031D162C0130172C003037063C2CBB
:102832003808803A2100BF0022003708803A210080
:10284200BF02031C302C322C3708803A2100BF0013
:1028520022003808803A2100BF02031C322C0130CA
:10286200332C003022003C2C38083706031D3B2C49
:1028720001303C2C0030B0004E2CCA30A9000800B8
:102882002F08F03E031C3E2C84000D300402031876
:102892003E2C90310435003E82003008DE27913113
:1028A200282691312200330885003208702C02302C
:1028B20084070318850A05088726913104088726AC
:1028C2009131023084020030853B20000008220052
:1028D200A40083279131A5002408850025088400DF
:1028E200B52BAC2791310319850A20000008BC00E2
:1028F2002200350828269131840A0319850AB52B4E
:10290200200000082200A20083279131B600840A29
:102912000319850AC02CD4279131AA002B3020003C
:10292200B9000130BA002200360820268A31692215
:1029320091312A302100BB000130BC004B2691317D
:10294200532C0508B3000408B20036082026903143
:1029520021209131532C0508B3000408B2009726B8
:1029620091313A08BC0022003608512C210885001A
:1029720020088400360820262200A9000800220828
:10298200003A0319B72C013A0319A22C033A03198E
:102992008C2C013A0319AC2CB52B20000008220024
:1029A200A300840A0319850A072DD4272000DA021E
:1029B200F130C9002130CA005A08C9070318CA0AEF
:1029C2008D31AB25913103303B269131532C0508D3
:1029D200B3000408B2002000F030DA0A2100BB0084
:1029E2002130BC0020005A082100BB070318BC0A92
:1029F2004B2691315A088A279131DA07532C7E26C9
:102A0200913184007E2691318500B52B2308013A4D
:102A12000319E82C033A0319D62C063A0319002DA0
:102A22001F2EAC2791310319850A36269131BC003D
:102A32002200350828269131B52BA7279131E327AB
:102A42009131202691313B269131B52BBD27913111
:102A5200840A0319850A362691312200B10034080E
:102A6200F03E2100BF002130C001C03D3F0886007A
:102A72004008870022003108810031080319B52B74
:102A8200B40A362691312100BF0022003408F03EFC
:102A92002100C0002130C101C13D4008860041082B
:102AA20087003F0881002200B1033E2DBD279131EE
:102AB200840A0319850A34088A279131B10034083F
:102AC2003107AE0034082E02031CB52B2E088A27CC
:102AD20091313B26913122002E080319B52BAE030A
:102AE200632DA727913183279131B500E3279131D7
:102AF200202691312200B800B81F922D38082100FB
:102B0200BF00C001BF1BC003BF09C009BF0A031930
:102B1200C00A3F082200A600210040082200A700A8
:102B2200972D3808A600A701A61BA7032608DE27B3
:102B3200913128269131B52BAC2791310319850AA1
:102B4200C8279131DE27913128269131B52BA7274D
:102B52009131E3279131202691312100BF00F130DC
:102B62008600213087003F088100B52BC8279131AC
:102B72000319B52B033084070318850AB52BBD272B
:102B8200913183279131B60083279131B500840AB0
:102B92000319850A51302F06031DDC2D3508202626
:102BA2009131BC00220036082026913122003407E0
:102BB20028269131B52B3608202691312200340780
:102BC20020269131BC002200350828269131B52BF0
:102BD200C130A900080022002F08003A03191F2E55
:102BE200053A0319812C033A0319CE2C0E3A031924
:102BF200722C023A03191E2D013A0319122D073ABB
:102C02000319722D013A0319272D033A0319572D7F
:102C12003E3A03199D2D013A0319A82D713A031961
:102C2200B72D103A0319C02D013A0319C02D313ABC
:102C32000319662C013A0319582CE92DB52B2000F3
:102C4200AE002E08031900342E088A27080020003F
:102C5200BF00F03EBD002130BE01BE3D3D088600F2
:102C62003E0887003C08810008002000DA0A5A0862
:102C72008A2708002000B0005A08F03EAE0021303A
:102C8200AF01AF3D2E0886002F0887003008810073
:102C9200DA0308003B08C22791317D3E0318532E08
:102CA2008A31552A3B08C22791317A3E3B080318E4
:102CB200642E013E2000CE00003021003C3D200069
:102CC200CF008A31CA2AC2279131683E3B080318D5
:102CD200742E013E2000CE00003021003C3D200039
:102CE200CF008B31162B013E2000B30000302100B3
:102CF2003C3D2000B4008D31132DFD0A7D08F03ECD
:102D0200860022308701873D010808002000B000BC
:102D12007D08F03EAE002230AF01AF3D2E088600A6
:102D22002F08870030088100FD0308004130200091
:102D3200B100C630B0004E30AF006D30AE007B083F
:102D4200B5007A08B4007908B3007808B2008F3170
:102D5200AC273108FB003008FA002F08F9002E08D2
:102D6200F8003930F8073030F93D0030FA3DFB3DCC
:102D72007B08BB007A08BA00BB1308009726913182
:102D82003A08DB000330DB055B0803190800CF2794
:102D92009131031D0800BF2EFF302000AE0000302D
:102DA200D7268C164C308E0490313028AF009A27EB
:102DB20091312F08240091002000B001122F03103E
:102DC2008C1E0314031CE82E20008C160D2F2000ED
:102DD2008C120D2F03108E1D0314031CF32E2000E2
:102DE2008E150D2F20008E110D2F03100E1D0314B2
:102DF200031CFE2E20000E150D2F20000E110D2F8C
:102E020003108C1E0314031C092F20008C160B2F99
:102E120020008C120C308E060230B00A30020318E9
:102E2200212F2E08013A0319E02E033A0319EB2E43
:102E3200013A0319F62EFC3A0319012F0D2F0D2F1B
:102E42008E130800F727913123008C018D018E012A
:102E5200542791315C279131F03086002130870070
:102E6200F03044318101860021308700F030433157
:102E720081018600213087004531810120001C300C
:102E8200D401D501D601210097001430FC00CD26D3
:102E92009131CF01CF0AD02191312000CF0A4F08C2
:102EA200031908004C2F21008D160E1320000E1757
:102EB20024008C110800C030210095055A302000F2
:102EC2009500C130990001309800CE309700210062
:102ED20011140B08E038EF398B00080020004B0872
:102EE200153ECC00003003180130CD00803A0800B6
:102EF20020004B08EB3ECC00FF3003180030CD0021
:102F0200803A0800840A0319850A2000000822007A
:102F12000800F03E860021308701873D0108080045
:102F2200003003180130A1002208563E8600210815
:102F3200080021008C120D1373308E0530302400EE
:102F42009500941714132000911108002000000826
:102F52002200B6000800200000082200B500840A02
:102F62000800F03086002130870001342208563EE6
:102F72008600870103100800200000082200B40028
:102F8200080086003C0887000108803A0800F030FB
:102F9200860021308700413101080800533E860037
:102FA2008701010808000508B3000408B2000334D1
:102FB200563E86008701010808002000BC0022005E
:102FC20035080800840A0319850A3608080021001A
:102FD200BD009830BE0008002000AE01AE0AAF016D
:102FE20008008600870181014A0808003C30210060
:0E2FF20099041908FC39023899009913080057
:020000040001F9
:04000E00FCCFCFDB79
:00000001FF
