:041208008A31552AA8
:101210007E1489312000111C1829CE3097009601C8
:101220008E3140268931F801F80A20001110532A26
:101230000B1D532A613095005C08AD000330AD05ED
:101240005C08AC00FC30AC0503302D0206300318FE
:101250003B2AF0002D0890315E208931AB00C93E59
:101260008600870101082C0203183829013039292A
:101270000030A8002B08CA3E8600870101082C0216
:1012800003184429013045290030A9002B08CB3E22
:101290008600870101082C020318502901305129CA
:1012A0000030AA002B08CC3E8600870101082C02E2
:1012B00003185C2901305D290030A5002B08CD3EC4
:1012C0008600870101082C0203186829013069296A
:1012D0000030A6002B08CE3E8600870101082C02B4
:1012E00003187429013075290030A7002D08553ED8
:1012F00086008701010B8B292D08583E86002508A2
:101300000112031D01162D08583E86002808011001
:10131000031D0114A1292D08553E860003308701C5
:101320000106031DBE292D08583E8600250801121E
:10133000031D01162D08583E860028080113031DC1
:1013400001172D08583E860029088110031D8114BD
:101350002D08583E860026088111031D81152D0891
:10136000583E860027080111031D01152D08583E1F
:1013700086002A088112031D8116FD292D08553E7D
:101380008600023087010106031DFD29A201A20A81
:101390002808031DCF292508031DCF29A2012208F3
:1013A000A800A301A30A2908031DDA292608031DA2
:1013B000DA29A3012308A900A401A40A2A08031D0D
:1013C000E5292708031DE529A4012408AA002D0802
:1013D000583E8600870128080110031D01142D08BE
:1013E000583E860029088110031D81142D08583E9F
:1013F00086002A080111031D01152D08013E8E31BA
:10140000F52689314A2A60080319242A5D0890319B
:101410008E2089312000E00361080319152A5F0836
:101420009031C42089312000E1035E0F1B2AFF3078
:10143000A000A101212A5E08A000A101A00A0319B1
:10144000A10A2008DE003E2AFF309031C4208931F5
:1014500020000630DD0AF0005D08013E9031762064
:101460008931DF006108E0005F08C33E8600870124
:101470000108E10006305D02031C032A06305D0608
:10148000031D4A2A3F305E02031C492ADE01DD01AA
:101490004A2ADE0AFE3020005C06031D512AFA01AA
:1014A000FA0ADC0A0B117E10090091311B29C800D1
:1014B0004708BA004608B9001A30BB009030BC009B
:1014C0004808822C4F08C1004E08C000A230C2005C
:1014D00019238A312100BA013A0852258A31031DA5
:1014E000902A20004F08BA004E08B90031258A31F1
:1014F000D7248A3127258A31B90721002108200005
:10150000BA3D0330B9070318BA0A5D2596315F2644
:101510008A31063EA23EBB00BC01D4238A31AD2AEB
:1015200020004F08C1004E08C00031258A31D72461
:101530008A3127258A31C007210021082000C13DBA
:101540000330C0070318C10A5D2596315F268A3132
:10155000063EA23EC20019238A3121000330BA0A96
:101560003A02031C6C2AA2302000B3000030B40001
:10157000EC2C9631D0268A313A0803396225913114
:1015800088218A319631D0268A313A082100A0007C
:10159000A2302000B9000030BA00210020089631A6
:1015A0006C268A31A230CE000030CF00D72AE92A3B
:1015B0004F08C1004E08C000C330C20019238A3151
:1015C000362CD001F72AD001D00AF72A0230D000F9
:1015D000F72A5108003A0319D82A013A0319E12AD7
:1015E000033A0319E32A013A0319E62AF72A3624B3
:1015F0008A31500852258A31031D0C2B4F08BA003E
:101600004E08B9000630AE00500896315F268A3188
:10161000C93EBB00BC01D42B4F08C1004E08C0001E
:101620000630AE00500896315F268A31C93EC200AE
:10163000192B4108BA004008B9004108BC00400815
:10164000BB00D4238A318B13CD0158258A31BC23AA
:101650008A313A258A31031D352B67258A31BC230F
:101660008A313A258A310319812B4D084207C3007C
:10167000860003308701AE004D08013EBC238A314D
:1016800043258A310008C60067258A31BC238A3188
:10169000C700C801400784004808413D850046084E
:1016A0000007B900BA010318BA0AC61BBA03801BA7
:1016B000BA0320004D08C900CA01400784004A0847
:1016C000413D85000008B300B401B31BB4035825A5
:1016D0008A31BC238A31CB00CC01400784004C08FE
:1016E000413D85000008B500B601B51BB603D724FF
:1016F0008A313408BC003308BB005D248A313908C4
:101700008A2B4D084207C300860087014D084325F8
:101710008A31003781004D084207C300033E86002E
:1017200087014D084207C400840085010008C500F8
:101730004D08C600C701400784004708413D8500A9
:101740000008C8004508480281000330CD0A4D0258
:10175000031C252B42088600443FCD004208043E6E
:101760008600420A8400850100088100420A860042
:101770004D0881008B170800B0000830B100B2019D
:101780003008AF000730AF36890BC32B32352F043A
:10179000B200B0352E083202031CD02B2E08B20244
:1017A000B10BC02B32080800390886003A088700C0
:1017B00001081C248A31BD003B0886003C088700D4
:1017C0003D088100390886003A0887004131010848
:1017D0001C248A31BD003B08013E03258A313908AB
:1017E00086003A088700423101081C248A31BD0076
:1017F0003B08023E03258A313B0886003C088700EF
:101800000108BD003B08033E03258A313B088600E2
:101810003C08870041310108BD003B08043E032518
:101820008A313B0886003C08870042310108BD0030
:101830003B08053E03250800B200803A7F3E32088F
:101840000318302CAE00AF01AE1BAF03AE09AF09D9
:10185000AE0A0319AF0A2E08B0002F08B100342CCD
:10186000B000B101B01BB103300808005108AE0050
:10187000AF012F0862258A310319462C2F08513EEB
:1018800086004B258A31AF0A392CAF0A2F08513E0A
:10189000860087014B258A312F08513E86000108BA
:1018A0000319562C03302F02031C452C2F08513EE0
:1018B000860087012E0881000800BE01BF0139089B
:1018C0003A0403197D2CBD01BD0ABA1B6A2CB93537
:1018D000BA0D642CBE35BF0D3A083C02031D722CB4
:1018E00039083B02031C792C3908BB023A08BC3B7F
:1018F0003E14BA36B90CBD0B6A2C3F08BA003E083C
:10190000B9000800C400C501440886008701010829
:10191000B300B401B31BB4033C08BE003B08BD00D8
:1019200045083D0784003E0803183E0A850000086C
:10193000B500B601B51BB603D7248A313408C300FD
:101940003308C200440A86000E258A3103301D2563
:101950008A31B51BB603D7248A313308C20734084D
:10196000C33D4408023E86000E258A3106301D25FF
:101970008A31B51BB603D7248A313308C20734082D
:10198000C33D4308BD004508BE00BF013907C00084
:101990003F083A3DC10040088600410887003D08E5
:1019A00081000330C50A450203180800842CB701E2
:1019B000B801331CDF2C3508B7073608B83DB535FC
:1019C000B60DB436B30C33083404031DD92C3808D3
:1019D000B4003708B3000800B7013708C33E8600DB
:1019E00087013708B500B601330784003608343D57
:1019F000850000081C248A3181001830B70A37029C
:101A000003180800ED2CBE0000303C3DBF003E082E
:101A100086003F0887003D08810008008701010813
:101A2000B300B401B31BB4034508BD00BE013B07BE
:101A3000BF003E083C3DC00008003F07840040084E
:101A40000318400A85000008B500B60108003308F5
:101A50002100A000200034082100A100200820005F
:101A6000080021003A082000B3000330B401B5009B
:101A7000B6010800C300C401400786004408413D88
:101A8000870001080800C400C5014007840045081C
:101A9000413D850008002F08523E84008501000862
:101AA00081000800553E86000230870101060800CB
:101AB0000330AE004D08013E08000630AE002100A4
:101AC0003A080800513E86008701010808000330EB
:101AD000AE004D08023E080017082000B5008B1329
:101AE000BB258D311430FA01FA0AF801F80A2100F9
:101AF00097000B1120001110630020003508210011
:101B00009700BC258D318B17CE3097009601882D1C
:101B100092258D31003A0319912DBB258D31212657
:101B20008D31252EB401B40A8B13BB258D31B30141
:101B3000B42D643033020318B72D21000E1020009D
:101B40000E10AE01AE0AAF0193314B238D3121004F
:101B50000E14973184278D3193314B238D31003012
:101B60000E180130B400B30A3408031D992DBC25AA
:101B70008B1734080800FD2EFF302000AE00003027
:101B8000C5258D3134268D310F2EAF0027268D319E
:101B90002F08240091002000B001002E03108C1E9D
:101BA0000314031CD62D20008C16FB2D20008C1254
:101BB000FB2D03108E1D0314031CE12D20008E1538
:101BC000FB2D20008E11FB2D03100E1D0314031C92
:101BD000EC2D20000E15FB2D20000E11FB2D031007
:101BE0008C1E0314031CF72D20008C16F92D2000E9
:101BF0008C120C308E060230B00A30020318080036
:101C00002E08013A0319CE2D033A0319D92D013AB2
:101C10000319E42DFC3A0319EF2DFB2DFB2D2000B9
:101C2000B201B20A32083B268D3103191B2E32084D
:101C3000933145238D310430B20A32020318080073
:101C4000122E0B2780311C28080064000800210098
:101C50008C120D1373308E053030240095009417CC
:101C600014132000911108008C168E150E150E17F6
:101C7000240095160800543E8600870101080800DC
:101C80004B268D31003A0319492E87268D3188263F
:101C90008D318C260800F601F60A8B1387268D31CC
:101CA000F5016C2E6430750203186F2E21000E10A2
:101CB00020000E10F001F00AF10173268D31210091
:101CC0000E14F001F00AF10173268D31003020006E
:101CD0000E180130F600F50A7608031D522E8E26E6
:101CE0008B17760808007008710403190800CA30C1
:101CF000F2000130F300F2020030F33B720873048B
:101D00000130031D7B2EF0020030F13B732EFD2EBF
:101D10000B2780311C28080064000800FF30F00009
:101D2000003098268D31200034268D31E5260800BC
:101D3000F10027268D31710824009100F201D62E82
:101D4000031020008C1E0314031CA92E20008C16E7
:101D5000D12E20008C12D12E031020008E1D0314D2
:101D6000031CB52E20008E15D12E20008E11D12EF1
:101D7000031020000E1D0314031CC12E20000E159D
:101D8000D12E20000E11D12E031020008C1E031422
:101D9000031CCD2E20008C16CF2E20008C120C3070
:101DA0008E060230F20A7202031808007008013A27
:101DB0000319A02E033A0319AC2E013A0319B82EC9
:101DC000FC3A0319C42ED12ED12EF401F40A740862
:101DD0003B268D310319EF2E7408F5268D31043022
:101DE000F40A740203180800E72EF300F0007308E9
:101DF000973174278D319826080021000D138E131A
:101E00000E1320000D138C12240095123330200085
:101E10008E050D1308008B130E1721000E130800FA
:101E2000BA0039308600013087003030840000303D
:101E300085000A30AF0016001A00AF0B1B2F3A08BE
:101E4000573E860087010108B9002400951620003E
:101E50003A088A278F31911D2B2FBB0191113B0826
:101E6000303EF8278F312000911D332F0A30BB0AF6
:101E70003B02031C2E2F3A08BD27240095120800B0
:101E8000BE00AB278F31BF003F08031908008B133A
:101E9000A52706302000AE00AF0193314B238F31D0
:101EA0003F08AF0029306E278F312000BD003E086B
:101EB000F1278F312B306E278F312000BD003E0A75
:101EC000F1278F312D306E272000BD003E08023EE5
:101ED000860087013D0881008B170800B0002400B0
:101EE000951620002F088A278F31911130088038ED
:101EF000240091002000911D7A2F91112F08573E48
:101F0000F8278F312000911D822F2F08BD27240034
:101F100011080800AE00962F8C1208008E110800E0
:101F20000E1108008C12F3308E0508002E08013ABD
:101F300003198C2F033A03198E2F013A0319902F9E
:101F4000FC3A0319922FA42F0800BC00D8278F3128
:101F500020003C08102FAE01AE0A2E08543E860029
:101F6000023087010106031DB72F2E080800043038
:101F7000AE0A2E0203180034AD2FAE00C92F8C1606
:101F800008008E1508000E1508008C160C308E0403
:101F900008002E08013A0319BF2F033A0319C12F75
:101FA000013A0319C32FFC3A0319C52FD72F080094
:101FB000B20021000D1620003208573E860087012E
:101FC00001133208573E86008115320893314523AC
:101FD0008F313208BD272400941714133030950038
:101FE0000800860087013D0881003F08AF00080017
:0C1FF00086008701010824009100080011
:1020000093319B2B9331A02B9331A32B9331A62B90
:102010009331A92B9331B12B9431032C9331B92BEC
:102020009331C42B9331C62B9331CE2B9331DA2BC2
:102030009331EA2B00346A34963485343D343D3490
:06204000573457345734F9
:1020BC00F200F10170087218F107F035F23672086F
:1020CC00031D602871080800640001308001013193
:1020DC00FE020030FF3B7F087E04031900346B289E
:1020EC00F2000830F300F4017208F1000730F13609
:1020FC00890B7D2874357104F400F2357008740274
:10210C00031C8A287008F402F30B7A287408080060
:10211C00F100932090317108C428F000AC28210004
:10212C008D1718308E04080021008E16080021002F
:10213C000E16080021008D17080021008E160800CD
:10214C0021000E16080021008D1708007008003AB7
:10215C0003199A28013A03199D28033A0319A02858
:10216C00013A0319A328073A0319A628013A0319BF
:10217C00A928FA3A03199528C3280800F000F72873
:10218C0021008D1320008D13CF3021008E052000EF
:10219C008E05080015210E1220000E1208001521C4
:1021AC008E1220008E120800E73021008E052000D0
:1021BC008E120E1608000F210E1220000E160800AB
:1021CC000F218E1220008E160800E73021008E059C
:1021DC0020008E160E120800183021008E040E16E8
:1021EC0008007008003A0319D028013A0319D528C1
:1021FC00033A0319DA28013A0319E128073A0319BB
:10220C00E628013A0319EB28FA3A0319C628F228F2
:10221C00080021008D1320008D13210008002100DF
:10222C008D1320008D1721000800F030840022301F
:10223C0085000130FE01FF0090316A209131513050
:10224C00F701F801F901FA01840000308500113022
:10225C00FE00FF0190316A209131C33084000030C0
:10226C0085001830FE00FF0190316A209131210069
:10227C000130DB00DC01DD01DE0122006030B90041
:10228C004730BA000030BB01BC01BD01BE01BF012B
:10229C00C001C101C2017E10200054292100C201DD
:1022AC0098278D31BC259131A9219131003088219D
:1022BC00913106308E2791315F2391317A29A921F2
:1022CC0091310030F801FA01FA0A8821913103307A
:1022DC008E2791315F2391312100C2017A29FA01B5
:1022EC00182691312100C2007808031D65297A084F
:1022FC00031D75292100420803197A298D316C259B
:10230C0091317A29AE00AF012F08513E860087012A
:10231C0001082E060319A3290330AF0A2F0603194F
:10232C00A3298A292F08513E860087012F08503E89
:10233C008400850100088100AF032F08031D982934
:10234C002E08D10008008B13842791314B23913137
:10235C002E2391312000BF00C001C00A3F08B800F5
:10236C004008C22191312000BF000430C00A400255
:10237C00031CB4298B170800BE008E313B2691310B
:10238C00003A0319F129013A0319E729033A031911
:10239C00DD29013A0319D329F12962279131011C56
:1023AC000314332791310110031D01142C2A6227C9
:1023BC009131811F0314332791318113031D811730
:1023CC002C2A62279131011F0314332791310113F9
:1023DC00031D01172C2A3E08573E8600FF3087014B
:1023EC0081063E08452391312E2391312000BC00FB
:1023FC001C279131803C031D052A39083C02031C23
:10240C00112A20001C279131803C031D0F2A39080A
:10241C003802031C292A200013279131BB0080307D
:10242C003B02031D1B2A3C083902031C2C2A2000EA
:10243C0013279131BB0080303B02031D272A38083B
:10244C00390203182C2A20003E08902A20003E084E
:10245C00452391312E2391312000BC003D080319F6
:10246C004C2A1C279131803C031D3E2A39083C0222
:10247C00031C632A20001C279131BB0080303B02D7
:10248C00031D4A2A38083902031C632A20003D0820
:10249C00031D592A13279131803C031D572A3908F3
:1024AC003C020318632A200013279131803C031D42
:1024BC00612A3908380203188D2A4D27913144318D
:1024CC002000B9003E0A6B2AB935890B6A2A3908F3
:1024DC00FF3A81054D2791314531B9003E0A772AE3
:1024EC00B935890B762A3908FF3A81054D27913188
:1024FC004331B9003E0A832AB935890B822A39083F
:10250C00FF3A81053E08543E860087018101200078
:10251C003C080800B700573E8600FF308701810059
:10252C003708452391312E2391312000B50037080F
:10253C00573E8600870181013708452391312E23B0
:10254C0091312000B600153EB20000300318013066
:10255C00B300803A803C031DB52A320835020318BB
:10256C00BA2A200036080800200035083607B200C9
:10257C00B301B30D330DB30CB20C3208B400792790
:10258C009131810A3708742791310319282B3708A8
:10259C00452391312E23913120003402031C0C2B46
:1025AC001D2B3708543E86000330870181004D27D0
:1025BC0091314431B200370AE42AB235890BE32A4F
:1025CC00092B3708543E8600F03087018101810ABF
:1025DC0086002230870001304331B200370AF72AD7
:1025EC00B235890BF62A092B3708543E8600023087
:1025FC00870181004D2791314531B200370A072BF5
:10260C00B235890B062B32088104192B3708742735
:10261C009131013A0319D72A413A0319E72AC03AF2
:10262C000319FA2A192B370888219131282B3708DE
:10263C00573E860087013708573E840085010035D8
:10264C008100C82A792791313708452391312E2BE7
:10265C0021008E1723008E17603021009E0025303C
:10266C009D00842791314B23913121009D149D189D
:10267C003D2B23008E1321008E131C080800B10083
:10268C00AE00310874278D31C52D2E082F04031987
:10269C000800CA30B0000130B100B0020030B13BCC
:1026AC00300831040130031D532BAE020030AF3B18
:1026BC004B2B05082200A1000408A00021003E08B5
:1026CC0085003D088400FF302000DB00200000085E
:1026DC002200AF00840A0319850AF0302F0521006F
:1026EC00BF00103A031D862D20000008BA25913139
:1026FC002200B800840A0319850A20000008BA25B4
:10270C0091312200B70025279131B5000408013E14
:10271C002100BF000030053DC0003F082200B20080
:10272C00210040082200B300F62B3808B00037080F
:10273C00B005032C38083704F12B38083707F12B78
:10274C0037083802F12B37082000AE002200380879
:10275C005F269131E82B37082000AE0022003808A4
:10276C0034269131E82BA80138080319C22B3708FD
:10277C000319C22BA801A80A2808F12B3808CC2B66
:10278C003808031DCB2B0130CC2B00303706F12B36
:10279C003808803A2100BF0022003708803A210017
:1027AC00BF02031CE52BE72B3708803A2100BF0042
:1027BC0022003808803A2100BF02031CE72B0130AD
:1027CC00E82B00302200F12B38083706031DF02BC4
:1027DC000130F12B0030B000032CCA30A9000800E6
:1027EC002F08F03E031CF32B84000D300402031859
:1027FC00F32B90310435003E82003008892791314B
:10280C00C225913122004D2C0508D02591310408A8
:10281C00D0259131200000082200A40025279131F9
:10282C00A500240885002508502C47279131031951
:10283C00850A20000008BC0022003508C225913111
:10284C00840A0319850A6C2B200000082200A200C0
:10285C0025279131B600840A0319850A642C6F2749
:10286C009131AA002B302000B9000130BA002200AF
:10287C003608BA2591316C2691312A302100BB00E3
:10288C000130BC00E5259131082C93279131330898
:10289C008500320884006C2B93279131D02691311E
:1028AC003A08BC0022003608062C210885002008B6
:1028BC0084003608BA252200A90008002208003A34
:1028CC0003195B2C013A03194B2C033A0319352CD1
:1028DC00013A0319522C6C2B200000082200A30093
:1028EC00840A0319850AA42C6F2791312000DB027E
:1028FC00F130C9002230CA005B08C9070318CA0AA4
:10290C00092791310330D0259131082C0508B300EB
:10291C000408B2002000F030DB0A2100BB0022309A
:10292C00BC0020005B082100BB070318BC0AE5258E
:10293C0091315B082C279131DB07082C2308013AD5
:10294C0003198C2C033A03197A2CB92D4727913192
:10295C000319850AE0259131BC0022003508C225F7
:10296C0091316C2B522791317F279131BA259131BE
:10297C00D02591316C2B57279131840A0319850A84
:10298C00E02591312200B1003408F03E2100BF0057
:10299C002230C001C03D3F0886004008870022005D
:1029AC0031088100310803196C2BB40AE0259131F0
:1029BC002100BF0022003408F03E2100C00022306C
:1029CC00C101C13D40088600410887003F088100D5
:1029DC002200B103D82C57279131840A0319850A98
:1029EC0034082C279131B10034083107AE0034087B
:1029FC002E02031C6C2B2E082C279131D0259131E3
:102A0C0022002E0803196C2BAE03FD2C522791319A
:102A1C0025279131B5007F279131BA2591312200BC
:102A2C00B800B81F2C2D38082100BF00C001BF1BF7
:102A3C00C003BF09C009BF0A0319C00A3F0822001E
:102A4C00A600210040082200A700312D3808A6005E
:102A5C00A701A61BA703260889279131C22591310E
:102A6C006C2B472791310319850A682791318927E7
:102A7C009131C22591316C2B522791317F279131A5
:102A8C00BA2591312100BF00F13086002230870039
:102A9C003F0881006C2B6827913103196C2B033094
:102AAC0084070318850A6C2B572791312527913100
:102ABC00B60025279131B500840A0319850A5130D7
:102ACC002F06031D762D3508BA259131BC00220046
:102ADC003608BA25913122003407C22591316C2B6E
:102AEC003608BA25913122003407BA259131BC0041
:102AFC0022003508C22591316C2BC130A900080089
:102B0C0022002F08003A0319B92D053A03192A2C73
:102B1C00033A0319722C0E3A03191B2C023A0319AF
:102B2C00B82C013A0319AC2C073A03190C2D013AB5
:102B3C000319C12C033A0319F12C3E3A0319372D12
:102B4C00013A0319422D713A0319512D103A031908
:102B5C005A2D013A03195A2D313A0319102C013A06
:102B6C0003190A2C832D6C2B2000AE002E080319A0
:102B7C0000342E082C2708002000BF00F03EBD00BA
:102B8C002230BE01BE3D3D0886003E0887003C0851
:102B9C00810008002000B0005B08F03EAE0022303F
:102BAC00AF01AF3D2E0886002F088700300881004A
:102BBC00DB0308002000DB0A5B082C2708003B081D
:102BCC005C2791317D3E0318ED2D8A31B92A3B08E3
:102BDC005C2791317A3E3B080318FE2D013E200004
:102BEC00CE00003021003C3D2000CF008A31D72A96
:102BFC005C279131683E3B0803180E2E013E2000E5
:102C0C00CE00003021003C3D2000CF008A31622AEA
:102C1C00013E2000B300003021003C3D2000B400F8
:102C2C008C31EC2C2000AE01AE0AAF012F08C33E54
:102C3C0086008701010803192D2E2F08C33E86003C
:102C4C002F08C33E8400850100368100AE01183088
:102C5C00AF0A2F02031C1C2E2E0808002000B20005
:102C6C00B001AE1F3D2EAE09AE0AB001B00AB21FC4
:102C7C00432E0130B209B20AB006B1012E08031975
:102C8C00582EAF01AF0AAE1B4D2EAE35482EB135C6
:102C9C002E083202031C552E2E08B2023114AE3609
:102CAC00AF0B4D2E300803195D2EB109B10A310856
:102CBC0008002000B000AF012E083018AF07AE3569
:102CCC00B0363008031D622E2F0808002000BF000C
:102CDC005530AE003F088B31BC239131D63E8C3140
:102CEC001C249131BE00B300FA30B401B500FF30A2
:102CFC00B6008C31D72491313308FF3EBB00003035
:102D0C00343DBC003C0DBC0CBB0C3B08C0002B3054
:102D1C003F020318972E7F30C1004008C200C30148
:102D2C00BE2E55303F0203189F2E4008C1007F3045
:102D3C00942E80303F020318A82E7F30C101C200B0
:102D4C004008B02EAB303F020318B22EC101400830
:102D5C00C2007F30C300BE2ED5303F020318BA2EFE
:102D6C004008C100C201AF2E7F30C100C201A62EA7
:102D7C00390886003A088700410881004208BB00E8
:102D8C003908013E3C2791314308BB003908023E0B
:102D9C003C27080041302000B100C630B0004E3056
:102DAC00AF006D30AE0021005E082000B5002100A0
:102DBC005D082000B40021005C082000B300210055
:102DCC005B082000B200DB2731082100DE00200068
:102DDC0030082100DD0020002F082100DC0020003D
:102DEC002E082100DB003930DB073030DC3D0030B1
:102DFC00DD3DDE3D5E082000BB0021005D082000AB
:102E0C00BA00BB1308004B308F3140274A08C7006B
:102E1C004908C6004B308A31572A3808EB3EB900B6
:102E2C00FF3003180030BA00803A08003808153E0D
:102E3C00B900003003180130BA00803A0800840A47
:102E4C000319850A2000000822000800F03E8600C5
:102E5C0022308701873D010808000030031801303B
:102E6C00BD003E08573E86003D080800BC000030FF
:102E7C003A3DBD003C0886003D0887003B088100B8
:102E8C000800200000082200B500840A0800F03079
:102E9C008600223087000134200000082200B60092
:102EAC000800200000082200B400080086003C083E
:102EBC0087000108803A08003E08573E86008701CB
:102ECC0003100800F03086002230870041310108E1
:102EDC0008000508B3000408B2000334573E86000E
:102EEC008701010808003708573E860087018101D9
:102EFC000800840A0319850A360808002000AE0170
:102F0C00AE0AAF0108002000BC0022003508080002
:102F1C002100BD009830BE0008000508B30004086D
:102F2C00B2000800C027913123008C018D018E0165
:102F3C00B8279131C827F030860022308700F03056
:102F4C0044318101860022308700F0304331810109
:102F5C00860022308700453181012000D501D60141
:102F6C00D701080021008D160E1320000E17240027
:102F7C008C1108003C3099041908FC39023899006E
:102F8C0099130800C030210095055A302000950097
:102F9C00C130990001309800CE30970021001114F7
:102FAC000B08E038EF398B000800B601B701B80107
:102FBC00B9012E1CE92F3208B6073308B73D340887
:102FCC00B83D3508B93DB235B30DB40DB50DB136BC
:102FDC00B00CAF0CAE0C310830042F042E04031DC2
:102FEC00DF2F3908B1003808B0003708AF003608B9
:042FFC00AE0008001B
:020000040001F9
:04000E00FCCFCFDB79
:00000001FF
