:041208008A31542AA9
:101210007E1489312000111C1829CE3097009601C8
:101220008D31C5258931F901F90A20001110522AA2
:101230000B1D522A613095005C08AD000330AD05EE
:101240005C08AC00FC30AC0503302D0206300318FE
:101250003B2AF0002D0890311B208931AB00C93E9C
:101260008600870101082C0203183829013039292A
:101270000030A8002B08CA3E8600870101082C0216
:1012800003184429013045290030A9002B08CB3E22
:101290008600870101082C020318502901305129CA
:1012A0000030AA002B08CC3E8600870101082C02E2
:1012B00003185C2901305D290030A5002B08CD3EC4
:1012C0008600870101082C0203186829013069296A
:1012D0000030A6002B08CE3E8600870101082C02B4
:1012E00003187429013075290030A7002D08553ED8
:1012F00086008701010B8B292D08583E86002508A2
:101300000112031D01162D08583E86002808011001
:10131000031D0114A1292D08553E860003308701C5
:101320000106031DBE292D08583E8600250801121E
:10133000031D01162D08583E860028080113031DC1
:1013400001172D08583E860029088110031D8114BD
:101350002D08583E860026088111031D81152D0891
:10136000583E860027080111031D01152D08583E1F
:1013700086002A088112031D8116FD292D08553E7D
:101380008600023087010106031DFD29A201A20A81
:101390002808031DCF292508031DCF29A2012208F3
:1013A000A800A301A30A2908031DDA292608031DA2
:1013B000DA29A3012308A900A401A40A2A08031D0D
:1013C000E5292708031DE529A4012408AA002D0802
:1013D000583E8600870128080110031D01142D08BE
:1013E000583E860029088110031D81142D08583E9F
:1013F00086002A080111031D01152D08013E8E31BA
:10140000852689314A2A60080319242A5D0890310B
:101410007C2089312000E00361080319152A5F0848
:101420009031B22089312000E1035E0F1B2AFF308A
:10143000A000A101212A5E08A000A101A00A0319B1
:10144000A10A2008DE003E2AFF309031B220893107
:1014500020000630DD0AF0005D08013E90312720B3
:101460008931DF006108E0005F08C33E8600870124
:101470000108E10006305D02031C032A06305D0608
:10148000031D4A2A3F305E02031C492ADE01DD01AA
:101490004A2ADE0AFE305C06031D502AFB01FB0AC5
:1014A000DC0A0B117E100900913167299631C8269C
:1014B0008A313A080339C0259131D6218A319631D3
:1014C000C8268A313A082100A000A2302000B900C5
:1014D0000030BA002100200873228A31A230CE00E9
:1014E0000030CF00D42A2000BF005530AE003F08A6
:1014F000BD248A31D63ED5248A31BE00B300FA30ED
:10150000B401B500FF30B600DD238A313308FF3E59
:10151000BB000030343DBC003C0DBC0CBB0C3B0898
:10152000C0002B303F0203189B2A7F30C1004008C7
:10153000C200C301C22A55303F020318A32A400843
:10154000C1007F30982A80303F020318AC2A7F30D8
:10155000C101C2004008B42AAB303F020318B62ACA
:10156000C1014008C2007F30C300C22AD5303F020B
:101570000318BE2A4008C100C201B32A7F30C1004F
:10158000C201AA2A390886003A088700410881006A
:101590004208BB003908013E54258A314308BB008C
:1015A0003908023E54250800E62A4F08C1004E08BB
:1015B000C000C330C2001A248A31922DD001F42A0F
:1015C000D001D00AF42A0230D000F42A5108003A9F
:1015D0000319D52A013A0319DE2A033A0319E02A2E
:1015E000013A0319E32AF42A92258A315008822508
:1015F0008A31031D0C2B72258A31D0238A31C93ED2
:10160000BB00BC01F2238A3172258A31D0238A3192
:10161000CC3EBB00BC01F22B4F08C1004E08C000FD
:101620000630AE005008D0238A31C93EC2001A2CC1
:10163000C400C5014408860087010108B300B40155
:10164000B31BB4033C08BE003B08BD0045083D0782
:1016500084003E0803183E0A85000008B500B60164
:10166000B51BB603DD238A313408C3003308C2003A
:10167000440A86002C258A3103305F258A31B51B48
:10168000B603DD238A313308C2073408C33D44085A
:10169000023E86002C258A3106305F258A31B51B33
:1016A000B603DD238A313308C2073408C33D43083B
:1016B000BD004508BE00BF013907C0003F083A3DE4
:1016C000C10040088600410887003D0881000330C2
:1016D000C50A4502031808001A2B4F08C1004E081E
:1016E000C000A230C2001A248A312100BA013A088F
:1016F00082258A31031DA22B200044258A313B25F7
:101700008A31DD238A3124258A3114258A31D02378
:101710008A31063EA23EBB00BC01F2238A31442539
:101720008A313B258A31DD238A3124258A311425EB
:101730008A31D0238A31093EA23EBB00BC01F2238C
:101740008A31C32B20004F08C1004E08C0003B2542
:101750008A31DD238A3124258A3120082000C00700
:10176000210021082000C13D0330C0070318C10A31
:101770000630AE0021003A08D0238A31063EA23E50
:10178000C2001A248A3121000330BA0A3A02031C2B
:10179000772BA2302000B3000030B40090313F28F6
:1017A0002000B000AF012E083018AF07AE35B036BC
:1017B0003008031DD32B2F080800B701B801331CD4
:1017C000E52B3508B7073608B83DB535B60DB43644
:1017D000B30C33083404031DDF2B3808B40037087A
:1017E000B3000800390886003A0887000108D524AC
:1017F0008A31BD003B0886003C0887003D08810017
:10180000390886003A08870041310108D5248A3119
:10181000BD003B08013E49258A31390886003A0857
:10182000870042310108D5248A31BD003B08023EC1
:10183000492508004108BA004008B9004108BC0029
:101840004008BB00F2238A318B13CD018D258A31EC
:10185000BD248A3169258A31031D362C88258A31B9
:10186000BD248A3169258A310319822C4D0842072B
:10187000C300860003308701AE004D08013EBD2441
:101880008A317A258A310008C60088258A31BD242C
:101890008A31C700C801400784004808413D8500DF
:1018A00046080007B900BA010318BA0AC61BBA03F2
:1018B000801BBA0320004D08C900CA0140078400FC
:1018C0004A08413D85000008B300B401B31BB403CE
:1018D0008D258A31BD248A31CB00CC01400784009C
:1018E0004C08413D85000008B500B601B51BB603A4
:1018F000DD238A313408BC003308BB00EF248A3171
:1019000039088B2C4D084207C300860087014D081B
:101910007A258A31003781004D084207C300033E13
:10192000860087014D084207C40084008501000835
:10193000C5004D08C600C701400784004708413D67
:1019400085000008C8004508480281000330CD0A20
:101950004D02031C262C42088600443FCD0042085D
:10196000043E8600420A8400850100088100420A84
:1019700086004D0881008B170800B0000830B100C8
:10198000B2013008AF000730AF36890BC42C3235B6
:101990002F04B200B0352E083202031CD12C2E08C1
:1019A000B202B10BC12C32080800B200803A7F3E6F
:1019B00032080318E92CAE00AF01AE1BAF03AE092D
:1019C000AF09AE0A0319AF0A2E08B0002F08B10004
:1019D000ED2CB000B101B01BB10330080800BE010E
:1019E000BF0139083A0403190F2DBD01BD0ABA1B06
:1019F000FC2CB935BA0DF62CBE35BF0D3A083C02A9
:101A0000031D042D39083B02031C0B2D3908BB02B2
:101A10003A08BC3B3E14BA36B90CBD0BFC2C3F084F
:101A2000BA003E08B900080020082000B9072100CC
:101A300021082000BA3D0330B9070318BA0A06305E
:101A4000AE0021003A08080033082100A000200061
:101A500034082100A100080087010108B300B40187
:101A6000B31BB4034508BD00BE013B07BF003E08E1
:101A70003C3DC000080021003A082000B3000330BC
:101A8000B401B500B60108004F08BA004E08B9000D
:101A90000800BE0000303C3DBF003E0886003F0805
:101AA00087003D0881000800BC0000303A3DBD00C1
:101AB0003C0886003D0887003B08810008003F077E
:101AC000840040080318400A85000008B500B601EC
:101AD0000800C300C401400786004408413D870058
:101AE000010808004F08BA004E08B9000630AE00E1
:101AF00050080800C400C501400784004508413D66
:101B000085000800553E8600023087010106080066
:101B10000330AE004D08023E08000330AE004D0811
:101B2000013E08005108AE00AF012F08C0258A31E0
:101B30000319A22D2F08513E8600B9258A31AF0A1C
:101B4000952DAF0A2F08513E86008701B9258A31AD
:101B50002F08513E860001080319B22D03302F02D1
:101B6000031CA12D2F08513E860087012E088100FD
:101B700008002F08523E84008501000881000800FB
:101B8000513E8600870101080800D0258D31003ABA
:101B90000319CE2D14268D3115268D3119260800F6
:101BA0000030F701F70A8B1B0130F5008B13142668
:101BB0008D31F601F52D643076020318F82D2100E1
:101BC0000E1020000E10F001F00AF10100268D31F8
:101BD00021000E14F001F00AF10100268D310030D1
:101BE00020000E180130F700F60A7708031DDB2DE0
:101BF0001B267508031D8B1703198B137708080024
:101C00007008710403190800CA30F2000130F300B3
:101C1000F2020030F33B720873040130031D082EFA
:101C2000F0020030F13B002E8D2E9B2680311C28C7
:101C3000080064000800FF30F000003024269731CF
:101C4000C4278D3175260800F100973196278D3114
:101C5000710824009100F201632E031020008C1EF5
:101C60000314031C362E20008C165E2E20008C12CE
:101C70005E2E031020008E1D0314031C422E200034
:101C80008E155E2E20008E115E2E031020000E1D7C
:101C90000314031C4E2E20000E155E2E20000E1184
:101CA0005E2E031020008C1E0314031C5A2E2000ED
:101CB0008C165C2E20008C120C308E060230F20A3C
:101CC00072020318722E7008013A03192D2E033A7E
:101CD0000319392E013A0319452EFC3A0319512EE6
:101CE0005E2E5E2E20008E130800F401F40A7408A4
:101CF000B2268D3103197F2E740885268D3104306C
:101D0000F40A740203180800772EF300F000730839
:101D10009731DD278D312426080021000D138E1305
:101D20000E1320000D138C12240095123330200066
:101D30008E050D1308008B130E1721000E130800DB
:101D40002000B201B20A3208B2268D310319AC2E3E
:101D5000320893319B238D310430B20A32020318CA
:101D60000800A32E543E8600870101080800BA002F
:101D70003930860001308700303084000030850023
:101D80000A30AF0016001A00AF0BC22E3A08573EB9
:101D9000860087010108B9002400951620003A0842
:101DA00031278E31911DD22EBB0191113B08303E5F
:101DB0009F278E312000911DDA2E0A30BB0A3B028C
:101DC000031CD52E3A086427240095120800BE0093
:101DD00052278E31BF003F08031908008B134C2790
:101DE00006302000AE00AF019331A1238E313F08B1
:101DF000AF00293015278E312000BD003E089827FE
:101E00008E312B3015278E312000BD003E0A9827D9
:101E10008E312D3015272000BD003E08023E860081
:101E200087013D0881008B170800B000240095163B
:101E300020002F0831278E3191113008803824007E
:101E400091002000911D212F91112F08573E9F27AF
:101E50008E312000911D292F2F086427240011089E
:101E60000800AE003D2F8C1208008E1108000E11E4
:101E700008008C12F3308E0508002E08013A031971
:101E8000332F033A0319352F013A0319372FFC3A40
:101E90000319392F4B2F0800BC007F278E312000FB
:101EA0003C08B72EAE01AE0A2E08543E8600023022
:101EB00087010106031D5E2F2E0808000430AE0ABC
:101EC0002E0203180034542FAE00702F8C16080019
:101ED0008E1508000E1508008C160C308E040800B4
:101EE0002E08013A0319662F033A0319682F013AA5
:101EF00003196A2FFC3A03196C2F7E2F0800B200D9
:101F000021000D1620003208573E8600870101137C
:101F10003208573E86008115320893319B238E315B
:101F200032086427240094171413303095000800F9
:101F3000860087013D0881003F08AF000800860049
:101F400087010108240091000800D0278F31230069
:101F50008C018D018E01C8278F31D827F030860083
:101F600022308700F0304431810186002230870022
:101F7000F0304331810186002230870045318101F4
:101F800020001C30D501D601D701210097000800A0
:101F900021008D160E1320000E1724008C1108004E
:101FA0003C3099041908FC3902389900991308004B
:101FB000C030210095055A3020009500C1309900AD
:101FC00001309800CE309700210011140B08E03842
:101FD000EF398B0008006400013080010131FE02FE
:101FE0000030FF3B7F087E0403190034EC2F0034DF
:101FF0006A34963485343D343D345734573457343D
:102000009331F12B9331F62B9331F92B9331FC2B38
:102010009331FF2B9431082C94315A2C9431102C8D
:1020200094311B2C94311D2C9431252C9431312C5E
:042030009431412C7A
:10203600F200F10170087218F107F035F2367208F5
:10204600031D1D2871080800F2000830F300F40192
:102056007208F1000730F136890B2E2874357104A9
:10206600F400F23570087402031C3B287008F40271
:10207600F30B2B2874080800B7013708C33E860007
:1020860087013708B500B601330784003608343DAA
:10209600850000088C31D524903181001830B70AAC
:1020A6003702031808004028B601B701B801B90184
:1020B6002E1C65283208B6073308B73D3408B83DEC
:1020C6003508B93DB235B30DB40DB50DB136B00C0A
:1020D600AF0CAE0C310830042F042E04031D5B2810
:1020E6003908B1003808B0003708AF003608AE002E
:1020F6000800F100812090317108B228F0009A287A
:1021060021008D1718308E04080021008E16080055
:1021160021000E16080021008D17080021008E16DA
:10212600080021000E16080021008D17080070080F
:10213600003A03198828013A03198B28033A031930
:102146008E28013A03199128073A03199428013A6F
:1021560003199728FA3A03198328B1280800F000D2
:10216600E52821008D1320008D13CF3021008E0528
:1021760020008E05080003210E1220000E12080012
:1021860003218E1220008E120800E73021008E05F2
:1021960020008E120E160800FD200E1220000E16CC
:1021A6000800FD208E1220008E160800E730210060
:1021B6008E0520008E160E120800183021008E049F
:1021C6000E1608007008003A0319BE28013A0319D2
:1021D600C328033A0319C828013A0319CF28073A36
:1021E6000319D428013A0319D928FA3A0319B4284D
:1021F600E028080021008D1320008D13210008001F
:1022060021008D1320008D172100080017082000DB
:10221600B6008B135D2191311430FB01FB0AF901E5
:10222600F90A210097000B1120001110630020000D
:102236003608210097000C2791318B17CE30970076
:10224600960125292F219131003A03192E295D2166
:1022560091315F21913165290030B501B50A8B1B9B
:102266000130B3008B135D219131B40152296430E2
:1022760034020318552921000E1020000E10AE015D
:10228600AE0AAF01A123913121000E14E22791314C
:10229600A123913100300E180130B500B40A35087B
:1022A600031D3A290C273308031D8B1703198B13BB
:1022B600350808008E318D2E8E319B269131803166
:1022C6001C28080064000800F030840022308500D5
:1022D6000130FE01FF008F31EB2791315130F801BB
:1022E600F901FA01FB018400003085001130FE007F
:1022F600FF018F31EB279131C33084000030850018
:102306001830FE00FF018F31EB279131210001309B
:10231600DB00DC01DD01DE0122006030B900473060
:10232600BA000030BB01BC01BD01BE01BF01C00146
:10233600C101C2017E102000A0292100C2018F31F7
:10234600A52791310C279131F72191310030D62103
:102356009131252191310630FB279131B5239131F9
:10236600C929F72191310030F901FB01FB0AD62179
:1023760091310330FB279131B52391312100C20100
:10238600C929FB01812691312100C2007908031D6C
:10239600B4297B08031DC429210042080319C92951
:1023A60009219131C929AE00AF012F08513E86009F
:1023B600870101082E060319F1290330AF0A2F06FB
:1023C6000319F129D8292F08513E860087012F08C5
:1023D600503E8400850100088100AF032F08031DCD
:1023E600E6292E08D10008008B13E2279131A1239C
:1023F60091317B2391312000BF00C001C00A3F0804
:10240600B8004008102291312000BF000430C00AF5
:102416004002031C022A8B170800BE008E31B2262A
:102426009131003A03193F2A013A0319352A033A32
:1024360003192B2A013A0319212A3F2ABE27913173
:10244600011C03148D2791310110031D01147A2AF2
:10245600BE279131811F03148D2791318113031DEE
:1024660081177A2ABE279131011F03148D279131D6
:102476000113031D01177A2A3E08573E8600FF30D6
:10248600870181063E089B2391317B2391312000F1
:10249600BC006D279131803C031D532A39083C024C
:1024A600031C5F2A20006D279131803C031D5D2AA5
:1024B60039083802031C772A200076279131BB00A1
:1024C60080303B02031D692A3C083902031C7A2A24
:1024D600200076279131BB0080303B02031D752A10
:1024E6003808390203187A2A20003E08DE2A20001E
:1024F6003E089B2391317B2391312000BC003D088F
:1025060003199A2A6D279131803C031D8C2A3908BC
:102516003C02031CB12A20006D279131BB0080309C
:102526003B02031D982A38083902031CB12A2000F1
:102536003D08031DA72A76279131803C031DA52A55
:1025460039083C020318B12A200076279131803CD5
:10255600031DAF2A390838020318DB2AAE2791314A
:1025660044312000B9003E0AB92AB935890BB82A88
:102576003908FF3A8105AE2791314531B9003E0A47
:10258600C52AB935890BC42A3908FF3A8105AE2711
:1025960091314331B9003E0AD12AB935890BD02A87
:1025A6003908FF3A81053E08543E860087018101BD
:1025B60020003C080800B700573E8600FF30870120
:1025C600810037089B2391317B2391312000B50090
:1025D6003708573EF12791319B2391317B23913167
:1025E6002000B600153EB200003003180130B300DB
:1025F600803A803C031D012B320835020318062B56
:10260600200036080800200035083607B200B3015E
:10261600B30D330DB30CB20C3208B4003708573E75
:102626008600803087018100D22791310319742BEF
:1026360037089B2391317B23913120003402031C00
:102646005A2B6A2B3708543E8600033087018100D7
:10265600AE2791314431B200370A322BB235890B9D
:10266600312B572B3708543E8600F0308701810105
:10267600810A86002230870001304331B200370AD2
:10268600452BB235890B442B572B3708543E860011
:10269600023087018100AE2791314531B200370AF9
:1026A600552BB235890B542B32088104662BD22761
:1026B6009131013A0319252B413A0319352BC03ABA
:1026C6000319482B662B3708D6219131742B37080E
:1026D600573E860087013708573E8400850100363D
:1026E600162B3708573EF12791319B2391317B2BCF
:1026F6002400951220008E13AE01AE0AAF01A1236D
:10270600913121008E1723008E17603021009E0024
:1027160025309D00E2279131A123913121009D149E
:102726009D18932B23008E1321008E131C0808007E
:10273600B100AE003108DD279131152F2E082F0488
:1027460003190800CA30B0000130B100B0020030F1
:10275600B13B300831040130031DA92BAE02003015
:10276600AF3BA12B05082200A1000408A000210010
:102776003E0885003D088400FF302000DB00200075
:1027860000082200AF00840A0319850AF0302F05DD
:102796002100BF00103A031DEF2D2000000823265C
:1027A60091312200B800840A0319850A2000000826
:1027B600232691312200B7007F279131B500040806
:1027C600013E2100BF000030053DC0003F08220049
:1027D600B200210040082200B3004D2C3808B0009A
:1027E6003708B0055A2C38083704482C38083707FC
:1027F600482C37083802482C37082000AE00220043
:1028060038088B31D02391313F2C37082000AE0099
:10281600220038089D2691313F2CA801380803195B
:10282600192C37080319192CA801A80A2808482CBE
:102836003808232C3808031D222C0130232C0030A5
:102846003706482C3808803A2100BF002200370896
:10285600803A2100BF02031C3C2C3E2C3708803AEC
:102866002100BF0022003808803A2100BF02031C65
:102876003E2C01303F2C00302200482C3808370609
:10288600031D472C0130482C0030B0005A2CCA30AA
:10289600A90008002F08F03E031C4A2C84000D30C6
:1028A600040203184A2C90310435003E8200300899
:1028B600E72791312B2691312200AC2C0330840777
:1028C6000318850A05083E26913104083E269131F3
:1028D600033084020030853B200000082200A4005B
:1028E6007F279131A500240885002508AF2CA8274D
:1028F60091310319850A20000008BC002200350822
:102906002B269131840A0319850AC22B2000000860
:102916002200A2007F279131B600840A0319850A96
:10292600C32CD8279131AA002B302000B9000130E2
:10293600BA002200360823268A31732291312A30C2
:102946002100BB000130BC004E2691315F2CF627DA
:1029560091313308850032088400C22BF627913165
:10296600C82691313A08BC00220036085D2C2108A1
:10297600850020088400360823262200A9000800C6
:102986002208003A0319BA2C013A0319AA2C033A71
:102996000319942C013A0319B12CC22B200000080C
:1029A6002200A300840A0319850A0A2DD82791312B
:1029B6002000DB02F130C9002230CA005B08C907DB
:1029C6000318CA0A0227913103303E2691315F2C43
:1029D6000508B3000408B2002000F030DB0A21002D
:1029E600BB002230BC0020005B082100BB07031897
:1029F600BC0A4E2691315B0886279131DB075F2C96
:102A0600392691318400392691318500C22B23085D
:102A1600013A0319EB2C033A0319D92C063A031988
:102A2600032D222EA82791310319850A39269131C3
:102A3600BC00220035082B269131C22BA3279131E9
:102A4600EC279131232691313E269131C22BB327B3
:102A56009131840A0319850A392691312200B10081
:102A66003408F03E2100BF002230C001C03D3F08BF
:102A760086004008870022003108810031080319CA
:102A8600C22BB40A392691312100BF002200340836
:102A9600F03E2100C0002230C101C13D4008860041
:102AA600410887003F0881002200B103412DB3276A
:102AB6009131840A0319850A340886279131B100B9
:102AC60034083107AE0034082E02031CC22B2E0830
:102AD600862791313E26913122002E080319C22BFA
:102AE600AE03662DA32791317F279131B500EC27E0
:102AF6009131232691312200B800B81F952D380850
:102B06002100BF00C001BF1BC003BF09C009BF0A27
:102B16000319C00A3F082200A6002100400822002F
:102B2600A7009A2D3808A600A701A61BA70326080A
:102B3600E72791312B269131C22BA8279131031912
:102B4600850ACB279131E72791312B269131C22B6C
:102B5600A3279131EC279131232691312100BF0023
:102B6600F1308600223087003F088100C22BCB2738
:102B760091310319C22B033084070318850AC22B2F
:102B8600B32791317F279131B6007F279131B50068
:102B9600840A0319850A51302F06031DDF2D3508D7
:102BA60023269131BC0022003608232691312200CB
:102BB60034072B269131C22B360823269131220069
:102BC600340723269131BC00220035082B2691318B
:102BD600C22BC130A900080022002F08003A0319B1
:102BE600222E053A0319892C033A0319D12C0E3AE1
:102BF60003197A2C023A0319212D013A0319152DCE
:102C0600073A0319752D013A03192A2D033A0319B8
:102C16005A2D3E3A0319A02D013A0319AB2D713AEC
:102C26000319BA2D103A0319C32D013A0319C32DFE
:102C3600313A03196F2C013A0319612CEC2DC22B82
:102C46002000AE002E08031900342E08862708003F
:102C56002000BF00F03EBD002230BE01BE3D3D0853
:102C660086003E0887003C08810008002000DB0A39
:102C76005B08862708002000B0005B08F03EAE0027
:102C86002230AF01AF3D2E0886002F08870030089E
:102C96008100DB0308003B08B82791317D3E03180D
:102CA600562E8A31562A3B08B82791317A3E3B0880
:102CB6000318672E013E2000CE00003021003C3D67
:102CC6002000CF008A31D42AB8279131683E3B08CC
:102CD6000318772E013E2000CE00003021003C3D37
:102CE6002000CF008B316D2B013E2000B300003059
:102CF60021003C3D2000B40090313F282000AE0169
:102D0600AE0AAF012F08C33E8600870101080319EA
:102D1600962E2F08C33E86002F08C33E84008501E9
:102D260000368100AE011830AF0A2F02031C852E33
:102D36002E0808002000B200B001AE1FA62EAE0974
:102D4600AE0AB001B00AB21FAC2E0130B209B20A07
:102D5600B006B1012E080319C12EAF01AF0AAE1B92
:102D6600B62EAE35B12EB1352E083202031CBE2E5C
:102D76002E08B2023114AE36AF0BB62E3008031948
:102D8600C62EB109B10A3108080041302000B10051
:102D9600C630B0004E30AF006D30AE0021005E0888
:102DA6002000B50021005D082000B40021005C0869
:102DB6002000B30021005B082000B20090315720AC
:102DC60031082100DE00200030082100DD0020004F
:102DD6002F082100DC0020002E082100DB003930FE
:102DE600DB073030DC3D0030DD3DDE3D5E08200097
:102DF600BB0021005D082000BA00BB1308004B3061
:102E06008E31E72691314A08C7004908C6004B3083
:102E1600612FFF302000AE00003015279131C42706
:102E26008E31A02EAF00962791312F0824009100F5
:102E36002000B001502F03108C1E0314031C262FF4
:102E460020008C164B2F20008C124B2F03108E1D4A
:102E56000314031C312F20008E154B2F20008E11DA
:102E66004B2F03100E1D0314031C3C2F20000E15C0
:102E76004B2F20000E114B2F03108C1E0314031C26
:102E8600472F20008C16492F20008C120C308E06FE
:102E96000230B00A300203185F2F2E08013A0319D8
:102EA6001E2F033A0319292F013A0319342FFC3A2E
:102EB60003193F2F4B2F4B2F8E130800C8004708CE
:102EC600BA004608B900F730BB008F30BC0048088E
:102ED6008B31182B3808153EB90000300318013025
:102EE600BA00803A08003808EB3EB900FF300318F4
:102EF6000030BA00803A0800840A0319850A2000C7
:102F0600000822000800F03E860022308701873D37
:102F160001080800003003180130BD003E08573E86
:102F260086003D08080021008C120D1373308E05B3
:102F360030302400950094171413200091110800D6
:102F4600200000082200B600080020000008220029
:102F5600B500840A0800F03086002230870001346C
:102F6600200000082200B400080086003C08870004
:102F76000108803A08003E08573E86008701031084
:102F860008008C168E150E150E17240095160800CF
:102F9600F0308600223087004131010808003708EA
:102FA600573E86008701010808000508B30004089B
:102FB600B2000334573E860087010108080020004E
:102FC600AE01AE0AAF0108002000BC0022003508A1
:102FD6000800840A0319850A360808008600870156
:102FE6008101370808000508B3000408B20008008C
:0A2FF6002100BD009830BE00080065
:020000040001F9
:04000E00FCCFCFDB79
:00000001FF
