:041208008A31532AAA
:101210007E1489312000111C1729CE3097008E31A1
:10122000A42689312000D101D10A1110512A0B1DA9
:10123000512A613095005C08AD000330AD055C08B3
:10124000AC00FC30AC0503302D02063003183A2AFE
:10125000F0002D0890316E208931AB00C93E860028
:10126000870101082C020318372901303829003082
:10127000A8002B08CA3E8600870101082C0203182B
:101280004329013044290030A9002B08CB3E8600B9
:10129000870101082C0203184F2901305029003022
:1012A000AA002B08CC3E8600870101082C020318F7
:1012B0005B2901305C290030A5002B08CD3E86005B
:1012C000870101082C0203186729013068290030C2
:1012D000A6002B08CE3E8600870101082C020318C9
:1012E0007329013074290030A7002D08543E860070
:1012F0008701010B8A292D08573E86002508011217
:10130000031D01162D08573E860028080110031DF5
:101310000114A0292D08543E8600033087010106E0
:10132000031DBD292D08573E860025080112031D07
:1013300001162D08573E860028080113031D0117CA
:101340002D08573E860029088110031D81142D08A1
:10135000573E860026088111031D81152D08573E32
:10136000860027080111031D01152D08573E860030
:101370002A088112031D8116FC292D08543E86007F
:10138000023087010106031DFC29A201A20A2808D8
:10139000031DCE292508031DCE29A2012208A8007D
:1013A000A301A30A2908031DD9292608031DD92949
:1013B000A3012308A900A401A40A2A08031DE42903
:1013C0002708031DE429A4012408AA002D08573E7C
:1013D0008600870128080110031D01142D08573EBF
:1013E000860029088110031D81142D08573E8600B0
:1013F0002A080111031D01152D08013E8F316627B2
:101400008931492A60080319232A5D089031862012
:1014100089312000E00361080319142A5F08903124
:10142000BC2089312000E1035E0F1A2AFF30A000A2
:10143000A101202A5E08A000A101A00A0319A10AA7
:101440002008DE003D2AFF309031BC208931200089
:101450000630DD0AF0005D08013E8F31C02789317A
:10146000DF006108E0005F08C33E860087010108D5
:10147000E10006305D02031C022A06305D06031DF2
:10148000492A3F305E02031C482ADE01DD01492A59
:10149000DE0AFE305C06031D4F2AD301D30ADC0AA4
:1014A0000B117E1009009131412996313D268A3178
:1014B0003A082100A100A3302000B9000030BA0092
:1014C0002100210869228A31A330CE000030CF00EC
:1014D000CA2A2000BF005530AE003F08BC248A3124
:1014E000D63ED4248A31BE00B300FA30B401B50030
:1014F000FF30B600DC238A313308FF3EBB000030EA
:10150000343DBC003C0DBC0CBB0C3B08C0002B3078
:101510003F020318912A7F30C1004008C200C30176
:10152000B82A55303F020318992A4008C1007F307D
:101530008E2A80303F020318A22A7F30C101C200E8
:101540004008AA2AAB303F020318AC2AC101400868
:10155000C2007F30C300B82AD5303F020318B42A36
:101560004008C100C201A92A7F30C100C201A02ADF
:10157000390886003A088700410881004208BB000C
:101580003908013E50258A314308BB003908023E24
:1015900050250800DF2A4F08C1004E08C000C330A4
:1015A000C20019249631652E2100A001ED2A2100E8
:1015B000A001A00AED2A02302100A000ED2A5B085C
:1015C000003A0319CB2A013A0319D42A033A031922
:1015D000D72A013A0319DB2AED2A963165268A318A
:1015E000210020089B258A31031D082B20007B2524
:1015F0008A3178238A31C93EBB00BC01F1238A318C
:101600007B258A3178238A31CC3EBB00BC01F12B8B
:1016100020004F08C1004E08C0000630AE00210077
:10162000200878238A31C93EC200192C4F08C10016
:101630004E08C000A230C20019248A312100BA012C
:101640003A089B258A31031D4B2B20004B258A31FC
:1016500042258A31DC238A313A258A312A258A318A
:1016600078238A31063EA23EBB00BC01F1238A31B9
:101670004B258A3142258A31DC238A313A258A3149
:101680002A258A3178238A31093EA23EBB00BC015B
:10169000F1238A316C2B20004F08C1004E08C00096
:1016A00042258A31DC238A313A258A3120082000FC
:1016B000C007210021082000C13D0330C0070318E6
:1016C000C10A0630AE0021003A0878238A31063E6E
:1016D000A23EC20019248A3121000330BA0A3A021C
:1016E000031C202BA2302000B3000030B400132DC7
:1016F0002000B000AF012E083018AF07AE35B0366D
:101700003008031D7B2B2F080800C800023E8425EB
:101710008A31B31BB4035730B500B601DC238A31DC
:101720003408C7003308C600480A84258A31B31B31
:10173000B4033D30B500B601DC238A313408C30060
:101740003308C200480884258A31B31BB4036A30C9
:10175000B500B601DC238A313408C5003308C40063
:10176000480A84258A31B31BB4038530B500FF30A5
:10177000B600DC238A3146083307BB004708343DF6
:10178000BC00BD00390886003A0887003D0881008A
:1017900042084407BB004308453D71258A31013E9C
:1017A00066258A3144084202BB004508433B712547
:1017B0008A31023E66250800B701B801331CE42BCC
:1017C0003508B7073608B83DB535B60DB436B30C95
:1017D00033083404031DDE2B3808B4003708B30087
:1017E0000800390886003A0887000108D4248A31A5
:1017F000BD003B0886003C0887003D088100390891
:1018000086003A08870041310108D4248A31BD009E
:101810003B08013E5B258A31390886003A0887007B
:1018200042310108D4248A31BD003B08023E5B25C9
:1018300008004108BA004008B9004108BC0040084F
:10184000BB00F1238A318B13CD01A6258A31BC243C
:101850008A318A258A31031D352CA1258A31BC2481
:101860008A318A258A310319812C4D084207C30029
:10187000860003308701AE004D08013EBC248A314A
:1018800093258A310008C600A1258A31BC248A31FB
:10189000C700C801400784004808413D850046084C
:1018A0000007B900BA010318BA0AC61BBA03801BA5
:1018B000BA0320004D08C900CA01400784004A0845
:1018C000413D85000008B300B401B31BB403A62555
:1018D0008A31BC248A31CB00CC01400784004C08FB
:1018E000413D85000008B500B601B51BB603DC23F9
:1018F0008A313408BC003308BB00EE248A31390831
:101900008A2C4D084207C300860087014D089325A5
:101910008A31003781004D084207C300033E86002C
:1019200087014D084207C400840085010008C500F6
:101930004D08C600C701400784004708413D8500A7
:101940000008C8004508480281000330CD0A4D0256
:10195000031C252C42088600443FCD004208043E6B
:101960008600420A8400850100088100420A860040
:101970004D0881008B170800B0000830B100B2019B
:101980003008AF000730AF36890BC32C32352F0437
:10199000B200B0352E083202031CD02C2E08B20241
:1019A000B10BC02C32080800B200803A7F3E3208EA
:1019B0000318E82CAE00AF01AE1BAF03AE09AF09B0
:1019C000AE0A0319AF0A2E08B0002F08B100EC2CA4
:1019D000B000B101B01BB10330080800BE01BF0167
:1019E00039083A0403190E2DBD01BD0ABA1BFB2CA0
:1019F000B935BA0DF52CBE35BF0D3A083C02031DB2
:101A0000032D39083B02031C0A2D3908BB023A0892
:101A1000BC3B3E14BA36B90CBD0BFB2C3F08BA00D8
:101A20003E08B9000800B7013708C33E86008701A9
:101A30003708B500B601330784003608343D850009
:101A40000008D4248A3181001830B70A37020318FD
:101A50000800142D20082000B907210021082000CB
:101A6000BA3D0330B9070318BA0A0630AE002100A8
:101A70003A08080033082100A000200034082100A3
:101A8000A100080021003A082000B3000330B4018F
:101A9000B500B60108004F08BA004E08B9000800AA
:101AA000BC0000303A3DBD003C0886003D08870080
:101AB0003B0881000800BE0000303C3DBF003E08EE
:101AC00086003F0887003D0881000800C000003004
:101AD0003A3DC10040088600410887003F08810068
:101AE0000800BC0046083B07BD0047083C3DBE005F
:101AF000BF00390808004F08BA004E08B900063088
:101B0000AE00210020080800860087010108B3000C
:101B1000B4010800C300C401400786004408413DE9
:101B2000870001080800C400C5014007840045087B
:101B3000413D85000800543E8600023087010106C1
:101B400008000330AE004D08023E08000330AE002E
:101B50004D08013E08004B30E4254A08BA00490808
:101B6000B9004B308B31852BBA00393086000130FB
:101B7000870030308400003085000A30AF00160046
:101B80001A00AF0BBF2D3A08563E860087010108A8
:101B9000B9002400951620003A0830268D31911D99
:101BA000CF2DBB0191113B08303E9E268D31200088
:101BB000911DD72D0A30BB0A3B02031CD22D3A08D7
:101BC0006326240095120800BE0051268D31BF0007
:101BD0003F08031908008B134B2606302000AE0087
:101BE000AF0193315A238D313F08AF0029301426BD
:101BF0008D312000BD003E0897268D312B301426F4
:101C00008D312000BD003E0A97268D312D301426DF
:101C10002000BD003E08023E860087013D0881008D
:101C20008B173F08DB000800B00024009516200049
:101C30002F0830268D319111300880382400910012
:101C40002000911D202E91112F08563E9E268D3189
:101C50002000911D282E2F0863262400110808005B
:101C6000AE003C2E8C1208008E1108000E110800E8
:101C70008C12F3308E0508002E08013A0319322E1B
:101C8000033A0319342E013A0319362EFC3A03198C
:101C9000382E4A2E0800BC007E268D3120003C08DC
:101CA000B42DAE01AE0A2E08533E860002308701E5
:101CB0000106031D5D2E2E0808000430AE0A2E0218
:101CC00003180034532EAE006F2E8C1608008E15AC
:101CD00008000E1508008C160C308E0408002E0823
:101CE000013A0319652E033A0319672E013A0319C5
:101CF000692EFC3A03196B2E7D2E0800B2002100DC
:101D00000D1620003208563E860087010113320866
:101D1000563E860081153208933154238D313208A6
:101D200063262400941714133030950008008600B1
:101D300087013D0881003F08AF0008008600870149
:101D40000108240091000800AF268E31003A0319E3
:101D5000AD2EF3268E31F4268E31F82608000030A1
:101D6000F701F70A8B1B0130F5008B13F3268E3138
:101D7000F601D42E643076020318D72E21000E10FF
:101D800020000E10F001F00AF101DF268E31210053
:101D90000E14F001F00AF101DF268E310030200030
:101DA0000E180130F700F60A7708031DBA2EFA263E
:101DB0007508031D8B1703198B137708080070082B
:101DC000710403190800CA30F2000130F300F20276
:101DD0000030F33B720873040130031DE72EF0025C
:101DE0000030F13BDF2E6E2F7C2780311C2808004D
:101DF00064000800FF30F000003004278E318C169C
:101E00004C308E0455270800F10097313A278E3167
:101E1000710824009100F201432F031020008C1E52
:101E20000314031C162F20008C163E2F20008C124A
:101E30003E2F031020008E1D0314031C222F2000B0
:101E40008E153E2F20008E113E2F031020000E1DF8
:101E50000314031C2E2F20000E153E2F20000E1100
:101E60003E2F031020008C1E0314031C3A2F200069
:101E70008C163C2F20008C120C308E060230F20A99
:101E800072020318522F7008013A03190D2F033AFA
:101E90000319192F013A0319252FFC3A0319312F81
:101EA0003E2F3E2F20008E130800F401F40A740820
:101EB000973174278E310319602F740866278E318D
:101EC0000430F40A740203180800572FF300F000DE
:101ED000730897316F278E310427080021000D13F6
:101EE0008E130E1320000D138C1224009512333024
:101EF00020008E050D1308008B130E1721000E1302
:101F00000800B601B701B801B9012E1C8F2F3208A5
:101F1000B6073308B73D3408B83D3508B93DB2358A
:101F2000B30DB40DB50DB136B00CAF0CAE0C31081D
:101F300030042F042E04031D852F3908B100380802
:101F4000B0003708AF003608AE0008009331AD2B63
:101F50009331B22B9331B52B9331B82B9331BB2BEB
:101F60009331C42B9431162C9331CC2B9331D72B36
:101F70009331D92B9331E12B9331ED2B9331FD2B01
:101F8000F2000830F300F4017208F1000730F13676
:101F9000890BC72F74357104F400F2357008740290
:101FA000031CD42F7008F402F30BC42F740808002C
:101FB000C030210095055A3020009500C1309900AD
:101FC00001309800CE309700210011140B08E03842
:101FD000EF398B000800B201B20A3208973174273A
:101FE0008F310319F72F3208933154238F31043086
:0A1FF000B20A320203180800ED2FB8
:1020DC00F200F10170087218F107F035F23672084F
:1020EC00031D702871080800640001308001013163
:1020FC00FE020030FF3B7F087E04031900347B286E
:10210C00F1008B2090317108BC28F000A42821002C
:10211C008D1718308E04080021008E16080021003F
:10212C000E16080021008D17080021008E160800DD
:10213C0021000E16080021008D1708007008003AC7
:10214C0003199228013A03199528033A0319982880
:10215C00013A03199B28073A03199E28013A0319DF
:10216C00A128FA3A03198D28BB280800F000EF28A3
:10217C0021008D1320008D13CF3021008E052000FF
:10218C008E0508000D210E1220000E1208000D21E4
:10219C008E1220008E120800E73021008E052000E0
:1021AC008E120E16080007210E1220000E160800C3
:1021BC0007218E1220008E160800E73021008E05B4
:1021CC0020008E160E120800183021008E040E16F8
:1021DC0008007008003A0319C828013A0319CD28E1
:1021EC00033A0319D228013A0319D928073A0319DB
:1021FC00DE28013A0319E328FA3A0319BE28EA2823
:10220C00080021008D1320008D13210008002100EF
:10221C008D1320008D17210008000030B501B50A80
:10222C008B1B0130B3008B1307279131B401362976
:10223C00643034020318392921000E1020000E10CE
:10224C00AE01AE0AAF015A23913121000E1488273A
:10225C0091315A23913100300E180130B500B40A77
:10226C003508031D1E29A7263308031D8B170319D8
:10227C008B1335080800F0308400223085000030C4
:10228C00FE000130FF0090317A20913150308400F3
:10229C00003085001230FE000030FF0090317A20B3
:1022AC009131C3308400003085001830FE000030BE
:1022BC00FF0090317A2091310130F8000030F900A4
:1022CC00FA00FB0022006030B9004730BA00003041
:1022DC00BB00BC00BD00BE00BF00C000C100C200FE
:1022EC007E102000792973269131A7269131A821DF
:1022FC009131FD269131063097279131712391311F
:10230C009A29A82191310030D1016E2391310330EB
:10231C0097279131712391312100C2019A29D30160
:10232C00BA2791312100C20020005108031D8729D2
:10233C005308031D95292100420803199A299C274B
:10234C0091319A298B13AE01AE0AAF015A23913108
:10235C00342391312000C300C401C40A4308BC00DB
:10236C004408C22191312000C3000430C40A440245
:10237C00031CB4298B170800C20074279131003A52
:10238C000319F029013A0319E629033A0319DC2948
:10239C00013A0319D229F02957279131011C031452
:1023AC00312791310110031D01142B2A572791312C
:1023BC00811F0314312791318113031D81172B2A9F
:1023CC0057279131011F0314312791310113031D3C
:1023DC0001172B2A4208563E8600FF3087018106E2
:1023EC00420854239131342391312000C0001A2724
:1023FC009131803C031D042A3D084002031C102A25
:10240C0020001A279131803C031D0E2A3D083C0206
:10241C00031C282A200011279131BF0080303F0275
:10242C00031D1A2A40083D02031C2B2A20001127E9
:10243C009131BF0080303F02031D262A3C083D022B
:10244C0003182B2A20004208952A20004208542306
:10245C009131342391312000C000410803194B2ADB
:10246C001A279131803C031D3D2A3D084002031C74
:10247C00622A20001A279131BF0080303F02031DD1
:10248C00492A3C083D02031C622A20004108031D16
:10249C00582A11279131803C031D562A3D084002D1
:1024AC000318622A200011279131803C031D602AF9
:1024BC003D083C020318922A20005B084206031DCB
:1024CC00692A65269131472791314431BD00420A72
:1024DC00702ABD35890B6F2A3D08FF3A81054727C5
:1024EC0091314531BD00420A7C2ABD35890B7B2ACE
:1024FC003D08FF3A8105472791314331BD00420A1F
:10250C00882ABD35890B872A3D08FF3A8105420888
:10251C00533E860087018101200040080800B70067
:10252C00563E8600FF3087018100370854239131D5
:10253C00342391312000B5003708563E8D27913158
:10254C0054239131342391312000B600153EB20052
:10255C00003003180130B300803A803C031DB82AC8
:10256C00320835020318BD2A200036080800200066
:10257C0035083607B200B301B30D330DB30CB20CF2
:10258C003208B4003708563E86008030870181003F
:10259C0037086F27913103192D2B370854239131AC
:1025AC003423913120003402031C122B232B3708C7
:1025BC00533E860003308701810047279131443117
:1025CC00B200370AEA2AB235890BE92A0F2B3708F1
:1025DC00533E8600F03087018101810A860022304B
:1025EC00870001304331B200370AFD2AB235890B1E
:1025FC00FC2A0F2B3708533E8600023087018100DE
:10260C00472791314531B200370A0D2BB235890B72
:10261C000C2B320881041F2B37086F279131013A9C
:10262C000319DD2A413A0319ED2AC03A0319002B8C
:10263C001F2B37086E2391312D2B3708563E860001
:10264C0087013708563E840085010036CD2A3708AD
:10265C00563E8D27913154239131342B2400951201
:10266C0020008E13AE01AE0AAF015A239131210026
:10267C008E1723008E17603021009E0025309D00A0
:10268C00882791315A23913121009D149D184C2B90
:10269C0023008E1321008E131C080800B100AE001D
:1026AC0031086F279131B12E2E082F040319080021
:1026BC00CA30B0000130B100B0020030B13B30087C
:1026CC0031040130031D622BAE020030AF3B5A2B9C
:1026DC00AE00DB00080005082200A1000408A000E1
:1026EC0021003E0885003D088400FF302000DA0000
:1026FC00200000082200AF00840A0319850AF0307C
:10270C002F052100BF00103A031DAB2D200000083F
:10271C00DF2591312200B800840A0319850A2000B4
:10272C000008DF2591312200B70023279131B50035
:10273C000408013E2100BF000030053DC0003F08E9
:10274C002200B200210040082200B300092C3808F6
:10275C00B0003708B005162C38083704042C38089C
:10276C003707042C37083802042C37082000AE0039
:10277C00220038088B3178239131FB2B370820004D
:10278C00AE0022003808D5279131FB2BA801380860
:10279C000319D52B37080319D52BA801A80A28082B
:1027AC00042C3808DF2B3808031DDE2B0130DF2BFF
:1027BC0000303706042C3808803A2100BF00220074
:1027CC003708803A2100BF02031CF82BFA2B37087C
:1027DC00803A2100BF0022003808803A2100BF0255
:1027EC00031CFA2B0130FB2B00302200042C380880
:1027FC003706031D032C0130042C0030B000162CBE
:10280C00CA30A90008002F08F03E031C062C8400D7
:10281C000D3004020318062C8F310435A63E8200BD
:10282C0030087E279131E72591312200682C023047
:10283C0084070318850A0508FA2591310408FA253E
:10284C009131023084020030853B200000082200C8
:10285C00A40023279131A5002408850025086B2CA2
:10286C00512791310319850A20000008BC00220071
:10287C003508E7259131840A0319850A7E2B20003F
:10288C0000082200A20023279131B600840A031904
:10289C00850A7F2C79279131AA002B302000B900B2
:1028AC000130BA0022003608DF258A3169229131C5
:1028BC002A302100BB000130BC000A2691311B2CB0
:1028CC009227913133088500320884007E2B9227A1
:1028DC0091313D2691313A08BC0022003608192C62
:1028EC0021088500200884003608DF252200A90075
:1028FC0008002208003A0319762C013A0319662CB9
:10290C00033A0319502C013A03196D2C7E2B20002D
:10291C0000082200A300840A0319850AC62C792713
:10292C002000DA02F130C9002230CA005A08C90767
:10293C000318CA0A8D31AB2591310330FA25913138
:10294C001B2C0508B3000408B2002000F030DA0A92
:10295C002100BB002230BC0020005A082100BB071C
:10296C000318BC0A0A2691315A082A279131DA0732
:10297C001B2CF52591318400F525913185007E2B9A
:10298C002308013A0319A72C033A0319952C063A8C
:10299C000319BF2CDE2D512791310319850AF5251A
:1029AC009131BC0022003508E72591317E2B4C2754
:1029BC00913183279131DF259131FA2591317E2B8D
:1029CC005D279131840A0319850AF525913122007E
:1029DC00B1003408F03E2100BF002230C001C03DE0
:1029EC003F0886004008870022003108810031082A
:1029FC0003197E2BB40AF52591312100BF0022006A
:102A0C003408F03E2100C0002230C101C13D400815
:102A1C008600410887003F0881002200B103FD2C8D
:102A2C005D279131840A0319850A34082A279131CC
:102A3C00B10034083107AE0034082E02031C7E2B83
:102A4C002E082A279131FA25913122002E080319DC
:102A5C007E2BAE03222D4C27913123279131B500CB
:102A6C0083279131DF2591312200B800B81F512DF9
:102A7C0038082100BF00C001BF1BC003BF09C0093B
:102A8C00BF0A0319C00A3F082200A6002100400813
:102A9C002200A700562D3808A600A701A61BA703E5
:102AAC0026087E279131E72591317E2B51279131D4
:102ABC000319850A682791317E279131E7259131D9
:102ACC007E2B4C27913183279131DF2591312100C9
:102ADC00BF00F1308600223087003F0881007E2B3A
:102AEC006827913103197E2B033084070318850A5C
:102AFC007E2B5D27913123279131B600232791310D
:102B0C00B500840A0319850A51302F06031D9B2D2D
:102B1C003508DF259131BC0022003608DF259131C4
:102B2C0022003407E72591317E2B3608DF259131C1
:102B3C0022003407DF259131BC0022003508E7253F
:102B4C0091317E2BC130A900080022002F08003AD9
:102B5C000319DE2D053A0319452C033A03198D2C64
:102B6C000E3A0319362C023A0319DD2C013A0319DB
:102B7C00D12C073A0319312D013A0319E62C033AEB
:102B8C000319162D3E3A03195C2D013A0319672DD2
:102B9C00713A0319762D103A03197F2D013A031956
:102BAC007F2D313A03192B2C013A03191D2CA82D1A
:102BBC007E2B2000AE002E08031900342E082A2785
:102BCC0008002000BF00F03EBD002230BE01BE3D1B
:102BDC003D0886003E0887003C0881000800200064
:102BEC00DA0A5A082A2708002000B0005A08F03EDA
:102BFC00AE002230AF01AF3D2E0886002F088700B3
:102C0C0030088100DA0308003B08622791317D3ED1
:102C1C000318122E8A31552A3B08622791317A3ECD
:102C2C003B080318232E013E2000CE00003021006B
:102C3C003C3D2000CF008A31CA2A62279131683E80
:102C4C003B080318332E013E2000CE00003021003B
:102C5C003C3D2000CF008B31162B013E2000B300F1
:102C6C00003021003C3D2000B4008D31132D41304B
:102C7C002000B100C630B0004E30AF006D30AE0059
:102C8C007B08B5007A08B4007908B3007808B20064
:102C9C008F3181273108FB003008FA002F08F9002A
:102CAC002E08F8003930F8073030F93D0030FA3D85
:102CBC00FB3D7B08BB007A08BA00BB1308003D261D
:102CCC0091313A08DB000330DB055B08031908007F
:102CDC0074279131031D0800652E9E269131230027
:102CEC008C018D018E0196268F31D827F03086000D
:102CFC0022308700F0304431810186002230870079
:102D0C00F03043318101860022308700453181014A
:102D1C0020001C30D401D501D601210097000800F9
:102D2C0021008D160E1320000E1724008C110800A4
:102D3C003C30210099041908FC3902389900991388
:102D4C000800FF302000AE000030B1268C164C304D
:102D5C008E048F31EB2FAF003A2791312F082400CE
:102D6C0091002000B001EC2E03108C1E0314031CE8
:102D7C00C22E20008C16E72E20008C12E72E03109A
:102D8C008E1D0314031CCD2E20008E15E72E200063
:102D9C008E11E72E03100E1D0314031CD82E2000D9
:102DAC000E15E72E20000E11E72E03108C1E0314B7
:102DBC00031CE32E20008C16E52E20008C120C3008
:102DCC008E060230B00A30020318FB2E2E08013A90
:102DDC000319BA2E033A0319C52E013A0319D02E42
:102DEC00FC3A0319DB2EE72EE72E8E130800132175
:102DFC009131003A0319062F072791310B27913196
:102E0C00092F8F316E2F640008008F317C27913190
:102E1C0080311C2808003C08EB3EBD00FF30031835
:102E2C000030BE00803A08003C08153EBD00003062
:102E3C0003180130BE00803A0800840A0319850A81
:102E4C002000000822000800F03E86002230870196
:102E5C00873D01080800003003180130C10042080A
:102E6C00563E86004108080021008C120D13733069
:102E7C008E05303024009500941714132000911106
:102E8C000800F03086002230870001342000000852
:102E9C002200B6000800200000082200B500840AB9
:102EAC0008004208563E86008701031008002000E7
:102EBC0000082200B400080086003C0887000108C6
:102ECC00803A0800F030860022308700413101083A
:102EDC000800563E8600870101080800533E860014
:102EEC008701010808000508B3000408B200033488
:102EFC002000BC00220035080800840A0319850A4A
:102F0C00360808002000AE01AE0AAF0108008600AA
:102F1C0087018101370808000508B3000408B200D6
:102F2C0008002100BD009830BE00080017082000E2
:102F3C00B6008B13072791311430D301D30AD1017A
:102F4C00D10A2100970011108B1263008B162100FF
:102F5C0011142000360821009700A7269131CE309D
:102F6C00970011108B17FD2EAE01AE0AAF012F0882
:102F7C00C33E8600870101080319CE2F2F08C33EDC
:102F8C0086002F08C33E8400850100368100AE0107
:102F9C001830AF0A2F02031CBD2F2E08080020008A
:102FAC00B200B001AE1FDE2FAE09AE0AB001B00AFE
:102FBC00B21FE42F0130B209B20AB006B1012E08DB
:102FCC000319F92FAF01AF0AAE1BEE2FAE35E92F67
:102FDC00B1352E083202031CF62F2E08B202311422
:102FEC00AE36AF0BEE2F30080319FE2FB109B10A24
:042FFC003108080090
:020000040001F9
:04000E00FCCFCFDB79
:00000001FF
