:041208008A31542AA9
:101210007E1489312000111C1829CE3097009601C8
:101220008E3141268931F801F80A20001110522A26
:101230000B1D522A613095005C08AD000330AD05EE
:101240005C08AC00FC30AC0503302D0206300318FE
:101250003B2AF0002D088F31DE278931AB00C93ED3
:101260008600870101082C0203183829013039292A
:101270000030A8002B08CA3E8600870101082C0216
:1012800003184429013045290030A9002B08CB3E22
:101290008600870101082C020318502901305129CA
:1012A0000030AA002B08CC3E8600870101082C02E2
:1012B00003185C2901305D290030A5002B08CD3EC4
:1012C0008600870101082C0203186829013069296A
:1012D0000030A6002B08CE3E8600870101082C02B4
:1012E00003187429013075290030A7002D08553ED8
:1012F00086008701010B8B292D08583E86002508A2
:101300000112031D01162D08583E86002808011001
:10131000031D0114A1292D08553E860003308701C5
:101320000106031DBE292D08583E8600250801121E
:10133000031D01162D08583E860028080113031DC1
:1013400001172D08583E860029088110031D8114BD
:101350002D08583E860026088111031D81152D0891
:10136000583E860027080111031D01152D08583E1F
:1013700086002A088112031D8116FD292D08553E7D
:101380008600023087010106031DFD29A201A20A81
:101390002808031DCF292508031DCF29A2012208F3
:1013A000A800A301A30A2908031DDA292608031DA2
:1013B000DA29A3012308A900A401A40A2A08031D0D
:1013C000E5292708031DE529A4012408AA002D0802
:1013D000583E8600870128080110031D01142D08BE
:1013E000583E860029088110031D81142D08583E9F
:1013F00086002A080111031D01152D08013E8E31BA
:10140000F82689314A2A60080319242A5D088F3199
:10141000132789312000E00361080319152A5F08AA
:101420008F31492789312000E1035E0F1B2AFF30ED
:10143000A000A101212A5E08A000A101A00A0319B1
:10144000A10A2008DE003E2AFF308F31492789316A
:1014500020000630DD0AF0005D08013E8F31BA271A
:101460008931DF006108E0005F08C33E8600870124
:101470000108E10006305D02031C032A06305D0608
:10148000031D4A2A3F305E02031C492ADE01DD01AA
:101490004A2ADE0AFE305C06031D502AFA01FA0AC7
:1014A000DC0A0B117E10090091311629C80047088B
:1014B000BA004608B900EA30BB008F30BC004808CB
:1014C000812C4F08C1004E08C000A230C200182372
:1014D0008A312100BA013A0851258A31031D8F2A29
:1014E00020004F08BA004E08B90030258A31D624B2
:1014F0008A3126258A31B907210021082000BA3D0A
:101500000330B9070318BA0A6125963164268A3177
:10151000063EA23EBB00BC01D3238A31AC2A200088
:101520004F08C1004E08C00030258A31D6248A31C8
:1015300026258A31C007210021082000C13D033043
:10154000C0070318C10A6125963164268A31063E18
:10155000A23EC20018238A3121000330BA0A3A029F
:10156000031C6B2AA2302000B3000030B400EB2C27
:101570009631D5268A313A0803396625913185217D
:101580008A319631D5268A313A082100A000A2304E
:101590002000B9000030BA002100200896317126E1
:1015A0008A31A230CE000030CF00D62AE82A4F0878
:1015B000C1004E08C000C330C20018238A31352C48
:1015C000D001F62AD001D00AF62A0230D000F62A3D
:1015D0005108003A0319D72A013A0319E02A033ABD
:1015E0000319E22A013A0319E52AF62A35248A3139
:1015F000500851258A31031D0B2B4F08BA004E08A5
:10160000B9000630AE005008963164268A31C93ED2
:10161000BB00BC01D32B4F08C1004E08C0000630F0
:10162000AE005008963164268A31C93EC200182B9C
:101630004108BA004008B9004108BC004008BB009E
:10164000D3238A318B13CD015C258A31BB238A31A8
:1016500039258A31031D342B57258A31BB238A3122
:1016600039258A310319802B4D084207C3008600B3
:1016700003308701AE004D08013EBB238A3142256D
:101680008A310008C60057258A31BB238A31C7003A
:10169000C801400784004808413D8500460800070E
:1016A000B900BA010318BA0AC61BBA03801BBA03F1
:1016B00020004D08C900CA01400784004A08413D86
:1016C00085000008B300B401B31BB4035C258A3164
:1016D000BB238A31CB00CC01400784004C08413D3C
:1016E00085000008B500B601B51BB603D6248A31C3
:1016F0003408BC003308BB005C248A313908892BCC
:101700004D084207C300860087014D0842258A31F3
:10171000003781004D084207C300033E8600870161
:101720004D084207C400840085010008C5004D082B
:10173000C600C701400784004708413D85000008F6
:10174000C8004508480281000330CD0A4D02031C41
:10175000242B42088600443FCD004208043E860008
:10176000420A8400850100088100420A86004D0873
:1017700081008B170800B0000830B100B2013008BA
:10178000AF000730AF36890BC22B32352F04B200C1
:10179000B0352E083202031CCF2B2E08B202B10B3B
:1017A000BF2B32080800390886003A088700010874
:1017B0001B248A31BD003B0886003C0887003D0899
:1017C0008100390886003A088700413101081B244E
:1017D0008A31BD003B08013E02258A313908860066
:1017E0003A088700423101081B248A31BD003B08BA
:1017F000023E02258A313B0886003C08870001082A
:10180000BD003B08033E02258A313B0886003C08A8
:10181000870041310108BD003B08043E02258A31A2
:101820003B0886003C08870042310108BD003B08A8
:10183000053E02250800B200803A7F3E32080318B8
:101840002F2CAE00AF01AE1BAF03AE09AF09AE0A3D
:101850000319AF0A2E08B0002F08B100332CB000D6
:10186000B101B01BB103300808005108AE00AF0150
:101870002F0866258A310319452C2F08513E860012
:101880004A258A31AF0A382CAF0A2F08513E86000C
:1018900087014A258A312F08513E86000108031925
:1018A000552C03302F02031C442C2F08513E860078
:1018B00087012E0881000800BE01BF0139083A04E3
:1018C00003197C2CBD01BD0ABA1B692CB935BA0DB0
:1018D000632CBE35BF0D3A083C02031D712C39083C
:1018E0003B02031C782C3908BB023A08BC3B3E146F
:1018F000BA36B90CBD0B692C3F08BA003E08B900D6
:101900000800C400C5014408860087010108B3002F
:10191000B401B31BB4033C08BE003B08BD0045083E
:101920003D0784003E0803183E0A85000008B50004
:10193000B601B51BB603D6248A313408C300330878
:10194000C200440A86000D258A3103301C258A31E5
:10195000B51BB603D6248A313308C2073408C33D09
:101960004408023E86000D258A3106301C258A3146
:10197000B51BB603D6248A313308C2073408C33DE9
:101980004308BD004508BE00BF013907C0003F083D
:101990003A3DC10040088600410887003D088100AB
:1019A0000330C50A450203180800832CB701B801AB
:1019B000331CDE2C3508B7073608B83DB535B60DF3
:1019C000B436B30C33083404031DD82C3808B400E3
:1019D0003708B3000800B7013708C33E8600870107
:1019E0003708B500B601330784003608343D85005A
:1019F00000081B248A3181001830B70A3702031807
:101A00000800EC2CBE0000303C3DBF003E088600C4
:101A10003F0887003D088100080087010108B300E6
:101A2000B401B31BB4034508BD00BE013B07BF00B2
:101A30003E083C3DC00008003F07840040080318F2
:101A4000400A85000008B500B601080033082100EF
:101A5000A000200034082100A10020082000080078
:101A600021003A082000B3000330B401B500B601EC
:101A70000800C300C401400786004408413D8700B8
:101A800001080800C400C501400784004508413D25
:101A9000850008002F08523E84008501000881005F
:101AA0000800553E86000230870101060800033019
:101AB000AE004D08023E08000330AE004D08013E66
:101AC00008000630AE0021003A080800513E8600AA
:101AD00087010108080017082000B5008B13BA25FC
:101AE0008D311430FA01FA0AF801F80A2100970042
:101AF0000B11200011106300200035082100970011
:101B0000BB258D318B17CE3097009601872D9125FF
:101B10008D31003A0319902DBA258D3122268D3151
:101B2000262EB401B40A8B13BA258D31B301B32D1F
:101B3000643033020318B62D21000E1020000E1061
:101B4000AE01AE0AAF01933150238D3121000E1446
:101B500097317A278D31933150238D3100300E1813
:101B60000130B400B30A3408031D982DBB258B1730
:101B700034080800002FFF302000AE000030C425DC
:101B80008D3135268D31102EAF0028268D312F084E
:101B9000240091002000B001FF2D03108C1E0314BF
:101BA000031CD52D20008C16FA2D20008C12FA2D46
:101BB00003108E1D0314031CE02D20008E15FA2D3A
:101BC00020008E11FA2D03100E1D0314031CEB2DA3
:101BD00020000E15FA2D20000E11FA2D03108C1E78
:101BE0000314031CF62D20008C16F82D20008C12F7
:101BF0000C308E060230B00A300203180E2E2E086A
:101C0000013A0319CD2D033A0319D82D013A0319CE
:101C1000E32DFC3A0319EE2DFA2DFA2D8E13080050
:101C20002000B201B20A32083C268D3103191C2E65
:101C3000320893314A238D310430B20A320203183C
:101C40000800132E0E2780311C28080064000800AD
:101C500021008C120D1373308E0530302400950056
:101C6000941714132000911108008C168E150E1570
:101C70000E17240095160800543E860087010108BF
:101C800008004C268D31003A03194A2E88268D31E2
:101C900089268D318D260800F601F60A8B138826D9
:101CA0008D31F5016D2E643075020318702E210000
:101CB0000E1020000E10F001F00AF10174268D3193
:101CC00021000E14F001F00AF10174268D3100306C
:101CD00020000E180130F600F50A7608031D532E79
:101CE0008F268B1776080800700871040319080006
:101CF000CA30F2000130F300F2020030F33B720808
:101D000073040130031D7C2EF0020030F13B742E71
:101D1000002F0E2780311C28080064000800FF30C7
:101D2000F000003098268D3135268D31E8260800E8
:101D3000F10028268D31710824009100F201D62E81
:101D4000031020008C1E0314031CA92E20008C16E7
:101D5000D12E20008C12D12E031020008E1D0314D2
:101D6000031CB52E20008E15D12E20008E11D12EF1
:101D7000031020000E1D0314031CC12E20000E159D
:101D8000D12E20000E11D12E031020008C1E031422
:101D9000031CCD2E20008C16CF2E20008C120C3070
:101DA0008E060230F20A72020318E52E7008013A1C
:101DB0000319A02E033A0319AC2E013A0319B82EC9
:101DC000FC3A0319C42ED12ED12E20008E13080008
:101DD000F401F40A74083C268D310319F22E7408BC
:101DE000F8268D310430F40A740203180800EA2E34
:101DF000F300F0007308973175278D31982608009D
:101E000021000D138E130E1320000D138C122400CD
:101E10009512333020008E050D1308008B130E171A
:101E200021000E130800F10018278F317108492F87
:101E3000F000312F21008D1718308E04080021008A
:101E40008E16080021000E16080021008D170800CC
:101E500021008E16080021000E16080021008D17A3
:101E600008007008003A03191F2F013A0319222FA6
:101E7000033A0319252F013A0319282F073A0319AA
:101E80002B2F013A03192E2FFA3A03191A2F482F34
:101E90000800F0007C2F21008D1320008D13CF301F
:101EA00021008E0520008E0508009A270E122000C2
:101EB0000E1208009A278E1220008E120800E730BA
:101EC00021008E0520008E120E16080094270E1297
:101ED00020000E16080094278E1220008E1608008F
:101EE000E73021008E0520008E160E1208001830F3
:101EF00021008E040E1608007008003A0319552FB1
:101F0000013A03195A2F033A03195F2F013A0319B3
:101F1000662F073A03196B2F013A0319702FFA3A0B
:101F200003194B2F772F080021008D1320008D13EC
:101F30002100080021008D1320008D1721000800CA
:101F40009331A02B9331A52B9331A82B9331AB2B3D
:101F50009331AE2B9331B62B9431082C9331BE2B99
:101F60009331C92B9331CB2B9331D32B9331DF2B6F
:101F70009331EF2BF2000830F300F4017208F10006
:101F80000730F136890BC12F74357104F400F23536
:101F900070087402031CCE2F7008F402F30BBE2FDE
:101FA000740808006400013080010131FE02003035
:101FB000FF3B7F087E0403190034D32FF200F101A8
:101FC00070087218F107F035F2367208031DE02F21
:101FD0007108080000346A34963485343D343D3449
:061FE0005734573457345A
:10203E004B3058204A08C7004908C6004B308A3139
:10204E00562ABA00393086000130870030308400BD
:10205E00003085000A30AF0016001A00AF0B33288F
:10206E003A08573E860087010108B90024009516EC
:10207E0020003A08A2209031911D4328BB019111F6
:10208E003B08303E102190312000911D4B280A3024
:10209E00BB0A3B02031C46283A08D52024009512A1
:1020AE000800BE00C3209031BF003F08031908008E
:1020BE008B13BD2006302000AE00AF0193315023AC
:1020CE0090313F08AF002930862090312000BD00AE
:1020DE003E08092190312B30862090312000BD0022
:1020EE003E0A092190312D3086202000BD003E0889
:1020FE00023E860087013D0881008B170800B00064
:10210E002400951620002F08A2209031911130083E
:10211E008038240091002000911D922891112F08E3
:10212E00573E102190312000911D9A282F08D5205E
:10213E00240011080800AE00AE288C1208008E1183
:10214E0008000E1108008C12F3308E0508002E08C0
:10215E00013A0319A428033A0319A628013A0319D0
:10216E00A828FC3A0319AA28BC280800BC00F020B5
:10217E00903120003C082828AE01AE0A2E08543EAD
:10218E008600023087010106031DCF282E080800A5
:10219E000430AE0A2E0203180034C528AE00E12822
:1021AE008C1608008E1508000E1508008C160C30C3
:1021BE008E0408002E08013A0319D728033A031992
:1021CE00D928013A0319DB28FC3A0319DD28EF2838
:1021DE000800B20021000D1620003208573E86007E
:1021EE00870101133208573E86008115320893315C
:1021FE004A2390313208D52024009417141330301E
:10220E0095000800860087013D0881003F08AF0059
:10221E000800860087010108240091000800F030B4
:10222E008400223085000130FE01FF008F31D2275D
:10223E0091315130F701F801F901FA0184000030B3
:10224E0085001130FE00FF018F31D2279131C3304E
:10225E008400003085001830FE00FF018F31D22738
:10226E00913121000130DB00DC01DD01DE012200B5
:10227E006030B9004730BA000030BB01BC01BD016F
:10228E00BE01BF01C001C101C2017E1020004F2955
:10229E002100C20198278D31BB259131A6219131A4
:1022AE00003085218D31872591310630932791316C
:1022BE00642391317729A62191310030F801FA017A
:1022CE00FA0A85219131033093279131642391319C
:1022DE002100C2017729FA011D2691312100C20089
:1022EE007808031D62297A08031D7229210042080D
:1022FE00031977298D316B2591317729AE00AF0106
:10230E002F08513E8600870101082E060319A029C9
:10231E000330AF0A2F060319A02987292F08513E33
:10232E00860087012F08503E840085010008810039
:10233E00AF032F08031D95292E08D10008008B131B
:10234E007A279131502391312A2391312000BF00F9
:10235E00C001C00A3F08B8004008BF2191312000DB
:10236E00BF000430C00A4002031CB1298B170800BD
:10237E00BE008E313C269131003A0319EE29013A06
:10238E000319E429033A0319DA29013A0319D0296A
:10239E00EE2958279131011C03142E27913101107B
:1023AE00031D0114292A58279131811F03142E274A
:1023BE0091318113031D8117292A58279131011F4D
:1023CE0003142E2791310113031D0117292A3E08EC
:1023DE00573E8600FF30870181063E084A23913121
:1023EE002A2391312000BC000E279131803C031D21
:1023FE00022A39083C02031C0E2A20000E279131B6
:10240E00803C031D0C2A39083802031C262A2000A2
:10241E0017279131BB0080303B02031D182A3C0860
:10242E003902031C292A200017279131BB00803066
:10243E003B02031D242A380839020318292A2000DA
:10244E003E088D2A20003E084A2391312A239131DD
:10245E002000BC003D080319492A0E279131803C0B
:10246E00031D3B2A39083C02031C602A20000E275C
:10247E009131BB0080303B02031D472A38083902D8
:10248E00031C602A20003D08031D562A1727913190
:10249E00803C031D542A39083C020318602A200090
:1024AE0017279131803C031D5E2A39083802031824
:1024BE008A2A4D27913144312000B9003E0A682AFC
:1024CE00B935890B672A3908FF3A81054D279131B5
:1024DE004531B9003E0A742AB935890B732A390879
:1024EE00FF3A81054D2791314331B9003E0A802ACA
:1024FE00B935890B7F2A3908FF3A81053E08543ECB
:10250E0086008701810120003C080800B700573E75
:10251E008600FF308701810037084A2391312A2334
:10252E0091312000B5003708573E892791314A2353
:10253E0091312A2391312000B600153EB2000030B1
:10254E0003180130B300803A803C031DB02A3208D4
:10255E0035020318B52A2000360808002000350879
:10256E003607B200B301B30D330DB30CB20C320803
:10257E00B4003708573E86008030870181006A27F5
:10258E0091310319232B37084A2391312A23913194
:10259E0020003402031C092B192B3708543E8600E9
:1025AE000330870181004D2791314431B200370A43
:1025BE00E12AB235890BE02A062B3708543E8600F5
:1025CE00F03087018101810A8600223087000130B8
:1025DE004331B200370AF42AB235890BF32A062B9F
:1025EE003708543E86000230870181004D27913115
:1025FE004531B200370A042BB235890B032B320852
:10260E008104152B6A279131013A0319D42A413AD4
:10261E000319E42AC03A0319F72A152B3708852126
:10262E009131232B3708573E860087013708573ED6
:10263E00840085010036C52A3708573E8927913117
:10264E004A2391312A2B2400951220008E13AE01BD
:10265E00AE0AAF015023913121008E1723008E1741
:10266E00603021009E0025309D007A279131502345
:10267E00913121009D149D18422B23008E132100B1
:10268E008E131C080800B100AE00310875278D317D
:10269E00C42D2E082F0403190800CA30B0000130D3
:1026AE00B100B0020030B13B300831040130031DDF
:1026BE00582BAE020030AF3B502B05082200A10074
:1026CE000408A00021003E0885003D088400FF306C
:1026DE002000DB00200000082200AF00840A03194E
:1026EE00850AF0302F052100BF00103A031D8B2DF7
:1026FE0020000008BF2591312200B800840A03197A
:10270E00850A20000008BF2591312200B70020273E
:10271E009131B5000408013E2100BF000030053D97
:10272E00C0003F082200B200210040082200B30082
:10273E00FB2B3808B0003708B005082C38083704D2
:10274E00F62B38083707F62B37083802F62B3708E2
:10275E002000AE002200380864269131ED2B370898
:10276E002000AE002200380839269131ED2BA80149
:10277E0038080319C72B37080319C72BA801A80A55
:10278E002808F62B3808D12B3808031DD02B013022
:10279E00D12B00303706F62B3808803A2100BF00C7
:1027AE0022003708803A2100BF02031CEA2BEC2BD3
:1027BE003708803A2100BF0022003808803A2100F5
:1027CE00BF02031CEC2B0130ED2B00302200F62B48
:1027DE0038083706031DF52B0130F62B0030B000FC
:1027EE00082CCA30A90008002F08F03E031CF82B55
:1027FE0084000D3004020318F82B8F310435A03EEF
:10280E00820030087F279131C72591312200522C4A
:10281E000508D52591310408D525913120000008F1
:10282E002200A40020279131A50024088500250848
:10283E00552C472791310319850A20000008BC004A
:10284E0022003508C7259131840A0319850A712B98
:10285E00200000082200A20020279131B600840A31
:10286E000319850A692C70279131AA002B3020009C
:10287E00B9000130BA0022003608BF259131712609
:10288E0091312A302100BB000130BC00EA25913184
:10289E000D2C8E2791313308850032088400712B60
:1028AE008E279131D52691313A08BC002200360888
:1028BE000B2C21088500200884003608BF25220035
:1028CE00A90008002208003A0319602C013A0319E6
:1028DE00502C033A03193A2C013A0319572C712B39
:1028EE00200000082200A300840A0319850AA92CDF
:1028FE0070272000DB02F130C9002230CA005B08CD
:10290E00C9070318CA0A90311F2091310330D5250B
:10291E0091310D2C0508B3000408B2002000F030F0
:10292E00DB0A2100BB002230BC0020005B08210026
:10293E00BB070318BC0AEA2591315B0827279131A2
:10294E00DB070D2C2308013A0319912C033A0319C6
:10295E007F2CBE2D472791310319850AE52591312C
:10296E00BC0022003508C7259131712B42279131C9
:10297E0084279131BF259131D5259131712B5E2759
:10298E009131840A0319850AE52591312200B1009F
:10299E003408F03E2100BF002230C001C03D3F0888
:1029AE008600400887002200310881003108031993
:1029BE00712BB40AE52591312100BF0022003408A5
:1029CE00F03E2100C0002230C101C13D400886000A
:1029DE00410887003F0881002200B103DD2C5E27ED
:1029EE009131840A0319850A340827279131B100E1
:1029FE0034083107AE0034082E02031C712B2E084A
:102A0E0027279131D525913122002E080319712BDC
:102A1E00AE03022D4227913120279131B500842734
:102A2E009131BF2591312200B800B81F312D3808E1
:102A3E002100BF00C001BF1BC003BF09C009BF0AF0
:102A4E000319C00A3F082200A600210040082200F8
:102A5E00A700362D3808A600A701A61BA703260837
:102A6E007F279131C7259131712B4727913103195A
:102A7E00850A632791317F279131C7259131712BBB
:102A8E004227913184279131BF2591312100BF001A
:102A9E00F1308600223087003F088100712B6327BA
:102AAE0091310319712B033084070318850A712B9A
:102ABE005E27913120279131B60020279131B50044
:102ACE00840A0319850A51302F06031D7B2D350804
:102ADE00BF259131BC0022003608BF25913122005E
:102AEE003407C7259131712B3608BF25913122004D
:102AFE003407BF259131BC0022003508C72591311E
:102B0E00712BC130A900080022002F08003A0319CA
:102B1E00BE2D053A03192F2C033A0319772C0E3AC2
:102B2E000319202C023A0319BD2C013A0319B12CBA
:102B3E00073A0319112D013A0319C62C033A03194A
:102B4E00F62C3E3A03193C2D013A0319472D713AE2
:102B5E000319562D103A03195F2D013A03195F2DF3
:102B6E00313A0319152C013A03190F2C882D712BAC
:102B7E002000AE002E08031900342E082727080067
:102B8E002000BF00F03EBD002230BE01BE3D3D081C
:102B9E0086003E0887003C08810008002000B00037
:102BAE005B08F03EAE002230AF01AF3D2E0886002E
:102BBE002F08870030088100DB0308002000DB0AA5
:102BCE005B08272708003B08522791317D3E0318EA
:102BDE00F22D8A31B82A3B08522791317A3E3B08B2
:102BEE000318032E013E2000CE00003021003C3D94
:102BFE002000CF008A31D62A52279131683E3B08F9
:102C0E000318132E013E2000CE00003021003C3D63
:102C1E002000CF008A31612A013E2000B30000302F
:102C2E0021003C3D2000B4008C31EB2C2000AE0185
:102C3E00AE0AAF012F08C33E8600870101080319B3
:102C4E00322E2F08C33E86002F08C33E8400850116
:102C5E0000368100AE011830AF0A2F02031C212E60
:102C6E002E0808002000B200B001AE1F422EAE09A1
:102C7E00AE0AB001B00AB21F482E0130B209B20A34
:102C8E00B006B1012E0803195D2EAF01AF0AAE1BBF
:102C9E00522EAE354D2EB1352E083202031C5A2E51
:102CAE002E08B2023114AE36AF0B522E3008031975
:102CBE00622EB109B10A310808002000B000AF0140
:102CCE002E083018AF07AE35B0363008031D672E0C
:102CDE002F0808002000BF005530AE003F088B3192
:102CEE00BB239131D63E8C311B249131BE00B300F3
:102CFE00FA30B401B500FF30B6008C31D6249131D4
:102D0E003308FF3EBB000030343DBC003C0DBC0C14
:102D1E00BB0C3B08C0002B303F0203189C2E7F30AB
:102D2E00C1004008C200C301C32E55303F02031834
:102D3E00A42E4008C1007F30992E80303F02031828
:102D4E00AD2E7F30C101C2004008B52EAB303F0220
:102D5E000318B72EC1014008C2007F30C300C32E36
:102D6E00D5303F020318BF2E4008C100C201B42E59
:102D7E007F30C100C201AB2E390886003A088700A9
:102D8E00410881004208BB003908013E37279131C6
:102D9E004308BB003908023E3727080041302000A7
:102DAE00B100C630B0004E30AF006D30AE00210025
:102DBE005E082000B50021005D082000B40021004F
:102DCE005C082000B30021005B082000B200DB2766
:102DDE0031082100DE00200030082100DD00200037
:102DEE002F082100DC0020002E082100DB003930E6
:102DFE00DB073030DC3D0030DD3DDE3D5E0820007F
:102E0E00BB0021005D082000BA00BB130800380883
:102E1E00153EB900003003180130BA00803A0800A0
:102E2E003808EB3EB900FF3003180030BA00803A84
:102E3E000800840A0319850A2000000822000800F1
:102E4E00F03E860022308701873D010808000030E1
:102E5E0003180130BD003E08573E86003D080800AD
:102E6E00BC0000303A3DBD003C0886003D0887009E
:102E7E003B0881000800200000082200B600080070
:102E8E00200000082200B500840A0800F0308600F9
:102E9E0022308700013486003C0887000108803A02
:102EAE0008003E08573E86008701031008002000E8
:102EBE0000082200B4000800F0308600223087009F
:102ECE004131010808003708573E86008701010886
:102EDE0008000508B3000408B2000334573E86000C
:102EEE008701010808002000AE01AE0AAF010800FC
:102EFE002000BC00220035080800840A0319850A48
:102F0E003608080086008701810137080800050889
:102F1E00B3000408B20008002100BD009830BE00C6
:102F2E000800C027913123008C018D018E01B82736
:102F3E009131C827F030860022308700F0304431BE
:102F4E008101860022308700F030433181018600F6
:102F5E0022308700453181012000D501D601D701ED
:102F6E00080021008D160E1320000E1724008C1160
:102F7E0008003C3099041908FC390238990099135D
:102F8E000800C030210095055A3020009500C13050
:102F9E00990001309800CE309700210011140B08D3
:102FAE00E038EF398B000800B601B701B801B9015E
:102FBE002E1CE92F3208B6073308B73D3408B83D4A
:102FCE003508B93DB235B30DB40DB50DB136B00CF3
:102FDE00AF0CAE0C310830042F042E04031DDF2F6E
:102FEE003908B1003808B0003708AF003608AE0017
:022FFE000800C9
:020000040001F9
:04000E00FCCFCFDB79
:00000001FF
